{
  "contracts/Relay.sol": {
    "Relay": {
      "abi": [
        {
          "inputs": [
            {
              "internalType": "address",
              "name": "manager",
              "type": "address"
            }
          ],
          "stateMutability": "nonpayable",
          "type": "constructor"
        },
        {
          "anonymous": false,
          "inputs": [
            {
              "indexed": true,
              "internalType": "address",
              "name": "business",
              "type": "address"
            }
          ],
          "name": "BusinessApproved",
          "type": "event"
        },
        {
          "anonymous": false,
          "inputs": [
            {
              "indexed": true,
              "internalType": "address",
              "name": "business",
              "type": "address"
            }
          ],
          "name": "BusinessRemoved",
          "type": "event"
        },
        {
          "anonymous": false,
          "inputs": [
            {
              "indexed": true,
              "internalType": "address",
              "name": "charity",
              "type": "address"
            }
          ],
          "name": "CharityApproved",
          "type": "event"
        },
        {
          "anonymous": false,
          "inputs": [
            {
              "indexed": true,
              "internalType": "address",
              "name": "charity",
              "type": "address"
            }
          ],
          "name": "CharityRemoved",
          "type": "event"
        },
        {
          "anonymous": false,
          "inputs": [
            {
              "indexed": true,
              "internalType": "address",
              "name": "manager",
              "type": "address"
            }
          ],
          "name": "ManagerAdded",
          "type": "event"
        },
        {
          "anonymous": false,
          "inputs": [
            {
              "indexed": true,
              "internalType": "address",
              "name": "charity",
              "type": "address"
            }
          ],
          "name": "PendingBusinessAdded",
          "type": "event"
        },
        {
          "anonymous": false,
          "inputs": [
            {
              "indexed": true,
              "internalType": "address",
              "name": "charity",
              "type": "address"
            }
          ],
          "name": "PendingCharityAdded",
          "type": "event"
        },
        {
          "anonymous": false,
          "inputs": [
            {
              "indexed": true,
              "internalType": "uint256",
              "name": "transactionId",
              "type": "uint256"
            },
            {
              "indexed": true,
              "internalType": "address",
              "name": "business",
              "type": "address"
            }
          ],
          "name": "TransactionAdded",
          "type": "event"
        },
        {
          "anonymous": false,
          "inputs": [
            {
              "indexed": true,
              "internalType": "uint256",
              "name": "transactionId",
              "type": "uint256"
            },
            {
              "indexed": true,
              "internalType": "address",
              "name": "business",
              "type": "address"
            }
          ],
          "name": "TransactionPaid",
          "type": "event"
        },
        {
          "anonymous": false,
          "inputs": [
            {
              "indexed": false,
              "internalType": "uint256",
              "name": "amount",
              "type": "uint256"
            },
            {
              "indexed": true,
              "internalType": "address",
              "name": "manager",
              "type": "address"
            }
          ],
          "name": "Withdrawal",
          "type": "event"
        },
        {
          "stateMutability": "payable",
          "type": "fallback"
        },
        {
          "inputs": [
            {
              "internalType": "address",
              "name": "manager",
              "type": "address"
            }
          ],
          "name": "addManager",
          "outputs": [],
          "stateMutability": "nonpayable",
          "type": "function"
        },
        {
          "inputs": [
            {
              "internalType": "address",
              "name": "business",
              "type": "address"
            }
          ],
          "name": "addNewBusiness",
          "outputs": [],
          "stateMutability": "nonpayable",
          "type": "function"
        },
        {
          "inputs": [
            {
              "internalType": "address",
              "name": "charity",
              "type": "address"
            }
          ],
          "name": "addNewCharity",
          "outputs": [],
          "stateMutability": "nonpayable",
          "type": "function"
        },
        {
          "inputs": [
            {
              "internalType": "address",
              "name": "business",
              "type": "address"
            }
          ],
          "name": "approveBusiness",
          "outputs": [],
          "stateMutability": "nonpayable",
          "type": "function"
        },
        {
          "inputs": [
            {
              "internalType": "address",
              "name": "charity",
              "type": "address"
            }
          ],
          "name": "approveCharity",
          "outputs": [],
          "stateMutability": "nonpayable",
          "type": "function"
        },
        {
          "inputs": [
            {
              "internalType": "uint256",
              "name": "",
              "type": "uint256"
            }
          ],
          "name": "businesses",
          "outputs": [
            {
              "internalType": "address",
              "name": "",
              "type": "address"
            }
          ],
          "stateMutability": "view",
          "type": "function"
        },
        {
          "inputs": [
            {
              "internalType": "uint256",
              "name": "",
              "type": "uint256"
            }
          ],
          "name": "charities",
          "outputs": [
            {
              "internalType": "address",
              "name": "",
              "type": "address"
            }
          ],
          "stateMutability": "view",
          "type": "function"
        },
        {
          "inputs": [
            {
              "internalType": "address",
              "name": "",
              "type": "address"
            },
            {
              "internalType": "uint256",
              "name": "",
              "type": "uint256"
            }
          ],
          "name": "clientToTransaction",
          "outputs": [
            {
              "internalType": "uint256",
              "name": "",
              "type": "uint256"
            }
          ],
          "stateMutability": "view",
          "type": "function"
        },
        {
          "inputs": [
            {
              "internalType": "uint256",
              "name": "transactionId",
              "type": "uint256"
            }
          ],
          "name": "executeTransaction",
          "outputs": [],
          "stateMutability": "payable",
          "type": "function"
        },
        {
          "inputs": [
            {
              "internalType": "address",
              "name": "client",
              "type": "address"
            },
            {
              "components": [
                {
                  "internalType": "address",
                  "name": "destination",
                  "type": "address"
                },
                {
                  "internalType": "uint256",
                  "name": "value",
                  "type": "uint256"
                }
              ],
              "internalType": "struct Types.TransactionPiece[]",
              "name": "pieces",
              "type": "tuple[]"
            },
            {
              "internalType": "uint256",
              "name": "fee",
              "type": "uint256"
            }
          ],
          "name": "generateTransaction",
          "outputs": [],
          "stateMutability": "nonpayable",
          "type": "function"
        },
        {
          "inputs": [
            {
              "internalType": "address",
              "name": "",
              "type": "address"
            }
          ],
          "name": "isBusiness",
          "outputs": [
            {
              "internalType": "bool",
              "name": "",
              "type": "bool"
            }
          ],
          "stateMutability": "view",
          "type": "function"
        },
        {
          "inputs": [
            {
              "internalType": "address",
              "name": "",
              "type": "address"
            }
          ],
          "name": "isCharity",
          "outputs": [
            {
              "internalType": "bool",
              "name": "",
              "type": "bool"
            }
          ],
          "stateMutability": "view",
          "type": "function"
        },
        {
          "inputs": [
            {
              "internalType": "address",
              "name": "",
              "type": "address"
            }
          ],
          "name": "isManager",
          "outputs": [
            {
              "internalType": "bool",
              "name": "",
              "type": "bool"
            }
          ],
          "stateMutability": "view",
          "type": "function"
        },
        {
          "inputs": [
            {
              "internalType": "uint256",
              "name": "",
              "type": "uint256"
            }
          ],
          "name": "managers",
          "outputs": [
            {
              "internalType": "address",
              "name": "",
              "type": "address"
            }
          ],
          "stateMutability": "view",
          "type": "function"
        },
        {
          "inputs": [
            {
              "internalType": "uint256",
              "name": "",
              "type": "uint256"
            }
          ],
          "name": "pendingBusinesses",
          "outputs": [
            {
              "internalType": "address",
              "name": "",
              "type": "address"
            }
          ],
          "stateMutability": "view",
          "type": "function"
        },
        {
          "inputs": [
            {
              "internalType": "uint256",
              "name": "",
              "type": "uint256"
            }
          ],
          "name": "pendingCharities",
          "outputs": [
            {
              "internalType": "address",
              "name": "",
              "type": "address"
            }
          ],
          "stateMutability": "view",
          "type": "function"
        },
        {
          "inputs": [
            {
              "internalType": "address",
              "name": "client",
              "type": "address"
            }
          ],
          "name": "pendingTransactions",
          "outputs": [
            {
              "components": [
                {
                  "internalType": "address",
                  "name": "client",
                  "type": "address"
                },
                {
                  "components": [
                    {
                      "internalType": "address",
                      "name": "destination",
                      "type": "address"
                    },
                    {
                      "internalType": "uint256",
                      "name": "value",
                      "type": "uint256"
                    }
                  ],
                  "internalType": "struct Types.TransactionPiece[]",
                  "name": "pieces",
                  "type": "tuple[]"
                },
                {
                  "internalType": "uint256",
                  "name": "piecesCount",
                  "type": "uint256"
                },
                {
                  "internalType": "uint256",
                  "name": "fee",
                  "type": "uint256"
                },
                {
                  "internalType": "bool",
                  "name": "paid",
                  "type": "bool"
                }
              ],
              "internalType": "struct Types.Transaction[]",
              "name": "",
              "type": "tuple[]"
            }
          ],
          "stateMutability": "view",
          "type": "function"
        },
        {
          "inputs": [
            {
              "internalType": "address",
              "name": "business",
              "type": "address"
            }
          ],
          "name": "removeBusiness",
          "outputs": [],
          "stateMutability": "nonpayable",
          "type": "function"
        },
        {
          "inputs": [
            {
              "internalType": "address",
              "name": "charity",
              "type": "address"
            }
          ],
          "name": "removeCharity",
          "outputs": [],
          "stateMutability": "nonpayable",
          "type": "function"
        },
        {
          "inputs": [],
          "name": "rewards",
          "outputs": [
            {
              "internalType": "uint256",
              "name": "",
              "type": "uint256"
            }
          ],
          "stateMutability": "view",
          "type": "function"
        },
        {
          "inputs": [
            {
              "internalType": "uint256",
              "name": "",
              "type": "uint256"
            }
          ],
          "name": "transactions",
          "outputs": [
            {
              "internalType": "address",
              "name": "client",
              "type": "address"
            },
            {
              "internalType": "uint256",
              "name": "piecesCount",
              "type": "uint256"
            },
            {
              "internalType": "uint256",
              "name": "fee",
              "type": "uint256"
            },
            {
              "internalType": "bool",
              "name": "paid",
              "type": "bool"
            }
          ],
          "stateMutability": "view",
          "type": "function"
        },
        {
          "inputs": [],
          "name": "transactionsCount",
          "outputs": [
            {
              "internalType": "uint256",
              "name": "",
              "type": "uint256"
            }
          ],
          "stateMutability": "view",
          "type": "function"
        },
        {
          "inputs": [],
          "name": "withdraw",
          "outputs": [],
          "stateMutability": "nonpayable",
          "type": "function"
        },
        {
          "stateMutability": "payable",
          "type": "receive"
        }
      ],
      "evm": {
        "bytecode": {
          "linkReferences": {},
          "object": "608060405234801561001057600080fd5b50604051611d72380380611d7283398101604081905261002f91610056565b6001600160a01b03166000908152600360205260409020805460ff19166001179055610086565b60006020828403121561006857600080fd5b81516001600160a01b038116811461007f57600080fd5b9392505050565b611cdd806100956000396000f3fe6080604052600436106101385760003560e01c80639ec5a894116100b0578063e81ffbef1161006c578063e81ffbef146103ff578063ee22610b1461042f578063f3ae241514610442578063fb709d2e14610472578063fd99a74614610492578063fddd4387146104a857005b80639ec5a8941461033c5780639ffd8fb814610352578063abefe59114610372578063b984c6ec14610392578063c127fd39146103b2578063e725a4be146103df57005b80633d39c260116100ff5780633d39c260146101fb578063418dff3d14610233578063419b96fa1461026157806345810583146102815780639ace38c2146102a15780639b0137b31461031c57005b80631466d01914610141578063166cd850146101865780631702e2dc146101a65780632d06177a146101c65780633ccfd60b146101e657005b3661013f57005b005b34801561014d57600080fd5b5061017161015c366004611953565b60006020819052908152604090205460ff1681565b60405190151581526020015b60405180910390f35b34801561019257600080fd5b5061013f6101a1366004611953565b6104c8565b3480156101b257600080fd5b5061013f6101c13660046119e5565b6105f4565b3480156101d257600080fd5b5061013f6101e1366004611953565b610943565b3480156101f257600080fd5b5061013f6109fe565b34801561020757600080fd5b5061021b610216366004611ad4565b610ac0565b6040516001600160a01b03909116815260200161017d565b34801561023f57600080fd5b5061025361024e366004611aed565b610aea565b60405190815260200161017d565b34801561026d57600080fd5b5061013f61027c366004611953565b610b1b565b34801561028d57600080fd5b5061013f61029c366004611953565b610cbf565b3480156102ad57600080fd5b506102f06102bc366004611ad4565b600a6020526000908152604090208054600282015460038301546004909301546001600160a01b0390921692909160ff1684565b604080516001600160a01b0390951685526020850193909352918301521515606082015260800161017d565b34801561032857600080fd5b5061021b610337366004611ad4565b610e9c565b34801561034857600080fd5b5061025360055481565b34801561035e57600080fd5b5061021b61036d366004611ad4565b610eac565b34801561037e57600080fd5b5061013f61038d366004611953565b610ebc565b34801561039e57600080fd5b5061021b6103ad366004611ad4565b611032565b3480156103be57600080fd5b506103d26103cd366004611953565b611042565b60405161017d9190611b17565b3480156103eb57600080fd5b5061013f6103fa366004611953565b611228565b34801561040b57600080fd5b5061017161041a366004611953565b60066020526000908152604090205460ff1681565b61013f61043d366004611ad4565b611350565b34801561044e57600080fd5b5061017161045d366004611953565b60036020526000908152604090205460ff1681565b34801561047e57600080fd5b5061021b61048d366004611ad4565b6116ac565b34801561049e57600080fd5b5061025360095481565b3480156104b457600080fd5b5061013f6104c3366004611953565b6116bc565b60005b60085481101561057b57816001600160a01b0316600882815481106104f2576104f2611bef565b6000918252602090912001546001600160a01b031614156105695760405162461bcd60e51b815260206004820152602660248201527f5468652063686172697479206164647265737320697320616c72656164792070604482015265656e64696e6760d01b60648201526084015b60405180910390fd5b8061057381611c1b565b9150506104cb565b506008805460018101825560009182527ff3f7a9fe364faab93b216da50a3214154f22a0a2b415b23a84c8169e8b636ee30180546001600160a01b0319166001600160a01b03841690811790915560405190917fee010dc102da811e4fb2e0202db4865ca889bc73f30087b25cbda0729c63eff391a250565b3360009081526003602052604090205460ff166106235760405162461bcd60e51b815260040161056090611c36565b600082511161066a5760405162461bcd60e51b81526020600482015260136024820152724368617269746965732061726520656d70747960681b6044820152606401610560565b6001600160a01b03831660009081526020819052604090205460ff166106d25760405162461bcd60e51b815260206004820152601860248201527f436c69656e74206973206e6f74206f757220636c69656e7400000000000000006044820152606401610560565b600980546000908152600a602052604080822080546001600160a01b0319166001600160a01b038816179055825482528082206003018490558451835483528183206002015591548152908120600401805460ff191690555b82518110156108cb576006600084838151811061074a5761074a611bef565b602090810291909101810151516001600160a01b031682528101919091526040016000205460ff166107d95760405162461bcd60e51b815260206004820152603260248201527f4f6e65206f66207468652064657374696e6174696f6e73206973206e6f7420616044820152716e20617070726f766564206368617269747960701b6064820152608401610560565b60008382815181106107ed576107ed611bef565b602002602001015160200151116108465760405162461bcd60e51b815260206004820152601c60248201527f446f6e6174696f6e732073686f756c64206265206e6f6e2d7a65726f000000006044820152606401610560565b600a6000600954815260200190815260200160002060010183828151811061087057610870611bef565b602090810291909101810151825460018082018555600094855293839020825160029092020180546001600160a01b0319166001600160a01b03909216919091178155910151910155806108c381611c1b565b91505061072b565b506001600160a01b0383166000818152600b60209081526040808320600980548254600181018455928652938520909101929092559054905190917f5fd655308280ca8f5b685114cfe87b25b8f728b401240adcc0a98e877e3e29cd91a36009805490600061093983611c1b565b9190505550505050565b3360009081526003602052604090205460ff166109725760405162461bcd60e51b815260040161056090611c36565b6001600160a01b038116600081815260036020526040808220805460ff1916600190811790915560048054918201815583527f8a35acfbc15ff81a39ae7d344fd709f28e8600b4aa8c65c6b64bfe7fe36bd19b0180546001600160a01b03191684179055517f3b4a40cccf2058c593542587329dd385be4f0b588db5471fbd9598e56dd7093a9190a250565b3360009081526003602052604090205460ff16610a2d5760405162461bcd60e51b815260040161056090611c36565b600060055411610a755760405162461bcd60e51b81526020600482015260136024820152724e6f7468696e6720746f20776974686472617760681b6044820152606401610560565b60055460405190815233907fd964a27d45f595739c13d8b1160b57491050cacf3a2e5602207277d6228f64ee9060200160405180910390a2610ab933600554611898565b6000600555565b60048181548110610ad057600080fd5b6000918252602090912001546001600160a01b0316905081565b600b6020528160005260406000208181548110610b0657600080fd5b90600052602060002001600091509150505481565b3360009081526003602052604090205460ff16610b4a5760405162461bcd60e51b815260040161056090611c36565b6001600160a01b038116600081815260208190526040808220805460ff19169055517f53c1bf54b1856bd715700f661ff046b40ed055bd0b5d09654df4cb6dc7fb2cfd9190a2600154610b9a5750565b60005b600154811015610cbb57816001600160a01b031660018281548110610bc457610bc4611bef565b6000918252602090912001546001600160a01b03161415610ca95760018054610bed9190611c78565b8114610c6d5760018054610c02908290611c78565b81548110610c1257610c12611bef565b600091825260209091200154600180546001600160a01b039092169183908110610c3e57610c3e611bef565b9060005260206000200160006101000a8154816001600160a01b0302191690836001600160a01b031602179055505b60018054610c7c908290611c78565b81548110610c8c57610c8c611bef565b600091825260209091200180546001600160a01b03191690555050565b80610cb381611c1b565b915050610b9d565b5050565b3360009081526003602052604090205460ff16610cee5760405162461bcd60e51b815260040161056090611c36565b6001600160a01b03811660009081526006602052604090205460ff1615610d125750565b6001600160a01b038116600081815260066020526040808220805460ff1916600190811790915560078054918201815583527fa66cc928b5edb82af9bd49922954155ab7b0942694bea4ce44661d9a8736c6880180546001600160a01b03191684179055517f28675749c11847be30a3b822f80f286058475c5f4977dcb99798b5b0ff2cbe5e9190a2600854610da55750565b60005b600854811015610cbb57816001600160a01b031660088281548110610dcf57610dcf611bef565b6000918252602090912001546001600160a01b03161415610e8a57600854610df990600190611c78565b8114610e7a5760088054610e0f90600190611c78565b81548110610e1f57610e1f611bef565b600091825260209091200154600880546001600160a01b039092169183908110610e4b57610e4b611bef565b9060005260206000200160006101000a8154816001600160a01b0302191690836001600160a01b031602179055505b60088054610c7c90600190611c78565b80610e9481611c1b565b915050610da8565b60088181548110610ad057600080fd5b60028181548110610ad057600080fd5b3360009081526003602052604090205460ff16610eeb5760405162461bcd60e51b815260040161056090611c36565b6001600160a01b038116600081815260066020526040808220805460ff19169055517f7db8df158d85e9475e8dd97a5e3e193c67dc6d977d2fc4f7321049b6c0b70e939190a2600754610f3b5750565b60005b600754811015610cbb57816001600160a01b031660078281548110610f6557610f65611bef565b6000918252602090912001546001600160a01b0316141561102057600754610f8f90600190611c78565b81146110105760078054610fa590600190611c78565b81548110610fb557610fb5611bef565b600091825260209091200154600780546001600160a01b039092169183908110610fe157610fe1611bef565b9060005260206000200160006101000a8154816001600160a01b0302191690836001600160a01b031602179055505b60078054610c7c90600190611c78565b8061102a81611c1b565b915050610f3e565b60018181548110610ad057600080fd5b6001600160a01b0381166000908152600b60205260408120546060918167ffffffffffffffff81111561107757611077611975565b6040519080825280602002602001820160405280156110e557816020015b6110d26040518060a0016040528060006001600160a01b031681526020016060815260200160008152602001600081526020016000151581525090565b8152602001906001900390816110955790505b50905060005b82811015611220576001600160a01b0385166000908152600b602052604081208054600a9291908490811061112257611122611bef565b600091825260208083209091015483528281019390935260409182018120825160a08101845281546001600160a01b031681526001820180548551818802810188019096528086529195929486840194909391929184015b828210156111c2576000848152602090819020604080518082019091526002850290910180546001600160a01b0316825260019081015482840152908352909201910161117a565b50505090825250600282015460208201526003820154604082015260049091015460ff161515606090910152825183908390811061120257611202611bef565b6020026020010181905250808061121890611c1b565b9150506110eb565b509392505050565b60005b6002548110156112d757816001600160a01b03166002828154811061125257611252611bef565b6000918252602090912001546001600160a01b031614156112c55760405162461bcd60e51b815260206004820152602760248201527f54686520627573696e657373206164647265737320697320616c72656164792060448201526670656e64696e6760c81b6064820152608401610560565b806112cf81611c1b565b91505061122b565b506002805460018101825560009182527f405787fa12a823e0f2b7631cc41b3ba8828b3321ca811111fa75cd3aa3bb5ace0180546001600160a01b0319166001600160a01b03841690811790915560405190917f8887e6f603275db1e771ec0f4ef66986dd7f78c8b354787c2055c5f56665602991a250565b3360009081526020819052604090205460ff166113bb5760405162461bcd60e51b815260206004820152602360248201527f53656e646572206973206e6f742074686520617070726f76656420627573696e60448201526265737360e81b6064820152608401610560565b6000818152600a602052604090205481906001600160a01b03166114215760405162461bcd60e51b815260206004820152601a60248201527f5472616e73616374696f6e20646f65736e27742065786973742e0000000000006044820152606401610560565b6000828152600a6020526040902080546001600160a01b031633146114965760405162461bcd60e51b815260206004820152602560248201527f546865207472616e73616374696f6e20697320666f7220616e6f7468657220636044820152641b1a595b9d60da1b6064820152608401610560565b600481015460ff16156114eb5760405162461bcd60e51b815260206004820152601b60248201527f5472616e73616374696f6e206973207061696420616c726561647900000000006044820152606401610560565b6000805b82600201548110156115415782600101818154811061151057611510611bef565b9060005260206000209060020201600101548261152d9190611c8f565b91508061153981611c1b565b9150506114ef565b50348260030154826115539190611c8f565b11156115ba5760405162461bcd60e51b815260206004820152603060248201527f5468652076616c7565206973206e6f7420656e6f75676820746f20636f76657260448201526f103a3432903a3930b739b0b1ba34b7b760811b6064820152608401610560565b60005b826002015481101561163d5761162b8360010182815481106115e1576115e1611bef565b60009182526020909120600290910201546001850180546001600160a01b03909216918490811061161457611614611bef565b906000526020600020906002020160010154611898565b8061163581611c1b565b9150506115bd565b5060048201805460ff191660011790556116578134611c78565b600560008282546116689190611c8f565b909155505081546040516001600160a01b039091169085907f1048322214c2376910cb9740dec280cf85a1375be08c0db6dd0413edc8c49c8e90600090a350505050565b60078181548110610ad057600080fd5b3360009081526003602052604090205460ff166116eb5760405162461bcd60e51b815260040161056090611c36565b6001600160a01b03811660009081526020819052604090205460ff161561170f5750565b6001600160a01b038116600081815260208190526040808220805460ff19166001908117909155805480820182559083527fb10e2d527612073b26eecdfd717e6a320cf44b4afac2b0732d9fcbe2b7fa0cf60180546001600160a01b03191684179055517faf1d127970278f3e2c952d5839b66d23f63c89edc514c3c4e96afbc3e0c9510f9190a26002546117a15750565b60005b600254811015610cbb57816001600160a01b0316600282815481106117cb576117cb611bef565b6000918252602090912001546001600160a01b03161415611886576002546117f590600190611c78565b8114611876576002805461180b90600190611c78565b8154811061181b5761181b611bef565b600091825260209091200154600280546001600160a01b03909216918390811061184757611847611bef565b9060005260206000200160006101000a8154816001600160a01b0302191690836001600160a01b031602179055505b60028054610c7c90600190611c78565b8061189081611c1b565b9150506117a4565b6000826001600160a01b03168260405160006040518083038185875af1925050503d80600081146118e5576040519150601f19603f3d011682016040523d82523d6000602084013e6118ea565b606091505b50509050806119325760405162461bcd60e51b81526020600482015260146024820152734661696c656420746f2073656e642066756e647360601b6044820152606401610560565b505050565b80356001600160a01b038116811461194e57600080fd5b919050565b60006020828403121561196557600080fd5b61196e82611937565b9392505050565b634e487b7160e01b600052604160045260246000fd5b6040805190810167ffffffffffffffff811182821017156119ae576119ae611975565b60405290565b604051601f8201601f1916810167ffffffffffffffff811182821017156119dd576119dd611975565b604052919050565b6000806000606084860312156119fa57600080fd5b611a0384611937565b925060208085013567ffffffffffffffff80821115611a2157600080fd5b818701915087601f830112611a3557600080fd5b813581811115611a4757611a47611975565b611a55848260051b016119b4565b818152848101925060069190911b830184019089821115611a7557600080fd5b928401925b81841015611abf576040848b031215611a935760008081fd5b611a9b61198b565b611aa485611937565b81528486013586820152835260409093019291840191611a7a565b96999698505050506040949094013593505050565b600060208284031215611ae657600080fd5b5035919050565b60008060408385031215611b0057600080fd5b611b0983611937565b946020939093013593505050565b60006020808301818452808551808352604092508286019150828160051b8701018488016000805b84811015611be057898403603f19018652825180516001600160a01b0390811686528982015160a08b8801819052815190880181905260c0880192918c01919086905b80821015611bad5783518051841686528e01518e860152938c0193928d019260019190910190611b82565b5050505081890151868a015260608083015190870152608091820151151591909501529487019491870191600101611b3f565b50919998505050505050505050565b634e487b7160e01b600052603260045260246000fd5b634e487b7160e01b600052601160045260246000fd5b6000600019821415611c2f57611c2f611c05565b5060010190565b60208082526022908201527f53656e646572206973206e6f742074686520617070726f766564206d616e616760408201526132b960f11b606082015260800190565b600082821015611c8a57611c8a611c05565b500390565b60008219821115611ca257611ca2611c05565b50019056fea2646970667358221220bb19456d27f0848144e3e6dec84e442d98dad5997af2691ebd7606cda7c39e5864736f6c63430008090033",
          "opcodes": "PUSH1 0x80 PUSH1 0x40 MSTORE CALLVALUE DUP1 ISZERO PUSH2 0x10 JUMPI PUSH1 0x0 DUP1 REVERT JUMPDEST POP PUSH1 0x40 MLOAD PUSH2 0x1D72 CODESIZE SUB DUP1 PUSH2 0x1D72 DUP4 CODECOPY DUP2 ADD PUSH1 0x40 DUP2 SWAP1 MSTORE PUSH2 0x2F SWAP2 PUSH2 0x56 JUMP JUMPDEST PUSH1 0x1 PUSH1 0x1 PUSH1 0xA0 SHL SUB AND PUSH1 0x0 SWAP1 DUP2 MSTORE PUSH1 0x3 PUSH1 0x20 MSTORE PUSH1 0x40 SWAP1 KECCAK256 DUP1 SLOAD PUSH1 0xFF NOT AND PUSH1 0x1 OR SWAP1 SSTORE PUSH2 0x86 JUMP JUMPDEST PUSH1 0x0 PUSH1 0x20 DUP3 DUP5 SUB SLT ISZERO PUSH2 0x68 JUMPI PUSH1 0x0 DUP1 REVERT JUMPDEST DUP2 MLOAD PUSH1 0x1 PUSH1 0x1 PUSH1 0xA0 SHL SUB DUP2 AND DUP2 EQ PUSH2 0x7F JUMPI PUSH1 0x0 DUP1 REVERT JUMPDEST SWAP4 SWAP3 POP POP POP JUMP JUMPDEST PUSH2 0x1CDD DUP1 PUSH2 0x95 PUSH1 0x0 CODECOPY PUSH1 0x0 RETURN INVALID PUSH1 0x80 PUSH1 0x40 MSTORE PUSH1 0x4 CALLDATASIZE LT PUSH2 0x138 JUMPI PUSH1 0x0 CALLDATALOAD PUSH1 0xE0 SHR DUP1 PUSH4 0x9EC5A894 GT PUSH2 0xB0 JUMPI DUP1 PUSH4 0xE81FFBEF GT PUSH2 0x6C JUMPI DUP1 PUSH4 0xE81FFBEF EQ PUSH2 0x3FF JUMPI DUP1 PUSH4 0xEE22610B EQ PUSH2 0x42F JUMPI DUP1 PUSH4 0xF3AE2415 EQ PUSH2 0x442 JUMPI DUP1 PUSH4 0xFB709D2E EQ PUSH2 0x472 JUMPI DUP1 PUSH4 0xFD99A746 EQ PUSH2 0x492 JUMPI DUP1 PUSH4 0xFDDD4387 EQ PUSH2 0x4A8 JUMPI STOP JUMPDEST DUP1 PUSH4 0x9EC5A894 EQ PUSH2 0x33C JUMPI DUP1 PUSH4 0x9FFD8FB8 EQ PUSH2 0x352 JUMPI DUP1 PUSH4 0xABEFE591 EQ PUSH2 0x372 JUMPI DUP1 PUSH4 0xB984C6EC EQ PUSH2 0x392 JUMPI DUP1 PUSH4 0xC127FD39 EQ PUSH2 0x3B2 JUMPI DUP1 PUSH4 0xE725A4BE EQ PUSH2 0x3DF JUMPI STOP JUMPDEST DUP1 PUSH4 0x3D39C260 GT PUSH2 0xFF JUMPI DUP1 PUSH4 0x3D39C260 EQ PUSH2 0x1FB JUMPI DUP1 PUSH4 0x418DFF3D EQ PUSH2 0x233 JUMPI DUP1 PUSH4 0x419B96FA EQ PUSH2 0x261 JUMPI DUP1 PUSH4 0x45810583 EQ PUSH2 0x281 JUMPI DUP1 PUSH4 0x9ACE38C2 EQ PUSH2 0x2A1 JUMPI DUP1 PUSH4 0x9B0137B3 EQ PUSH2 0x31C JUMPI STOP JUMPDEST DUP1 PUSH4 0x1466D019 EQ PUSH2 0x141 JUMPI DUP1 PUSH4 0x166CD850 EQ PUSH2 0x186 JUMPI DUP1 PUSH4 0x1702E2DC EQ PUSH2 0x1A6 JUMPI DUP1 PUSH4 0x2D06177A EQ PUSH2 0x1C6 JUMPI DUP1 PUSH4 0x3CCFD60B EQ PUSH2 0x1E6 JUMPI STOP JUMPDEST CALLDATASIZE PUSH2 0x13F JUMPI STOP JUMPDEST STOP JUMPDEST CALLVALUE DUP1 ISZERO PUSH2 0x14D JUMPI PUSH1 0x0 DUP1 REVERT JUMPDEST POP PUSH2 0x171 PUSH2 0x15C CALLDATASIZE PUSH1 0x4 PUSH2 0x1953 JUMP JUMPDEST PUSH1 0x0 PUSH1 0x20 DUP2 SWAP1 MSTORE SWAP1 DUP2 MSTORE PUSH1 0x40 SWAP1 KECCAK256 SLOAD PUSH1 0xFF AND DUP2 JUMP JUMPDEST PUSH1 0x40 MLOAD SWAP1 ISZERO ISZERO DUP2 MSTORE PUSH1 0x20 ADD JUMPDEST PUSH1 0x40 MLOAD DUP1 SWAP2 SUB SWAP1 RETURN JUMPDEST CALLVALUE DUP1 ISZERO PUSH2 0x192 JUMPI PUSH1 0x0 DUP1 REVERT JUMPDEST POP PUSH2 0x13F PUSH2 0x1A1 CALLDATASIZE PUSH1 0x4 PUSH2 0x1953 JUMP JUMPDEST PUSH2 0x4C8 JUMP JUMPDEST CALLVALUE DUP1 ISZERO PUSH2 0x1B2 JUMPI PUSH1 0x0 DUP1 REVERT JUMPDEST POP PUSH2 0x13F PUSH2 0x1C1 CALLDATASIZE PUSH1 0x4 PUSH2 0x19E5 JUMP JUMPDEST PUSH2 0x5F4 JUMP JUMPDEST CALLVALUE DUP1 ISZERO PUSH2 0x1D2 JUMPI PUSH1 0x0 DUP1 REVERT JUMPDEST POP PUSH2 0x13F PUSH2 0x1E1 CALLDATASIZE PUSH1 0x4 PUSH2 0x1953 JUMP JUMPDEST PUSH2 0x943 JUMP JUMPDEST CALLVALUE DUP1 ISZERO PUSH2 0x1F2 JUMPI PUSH1 0x0 DUP1 REVERT JUMPDEST POP PUSH2 0x13F PUSH2 0x9FE JUMP JUMPDEST CALLVALUE DUP1 ISZERO PUSH2 0x207 JUMPI PUSH1 0x0 DUP1 REVERT JUMPDEST POP PUSH2 0x21B PUSH2 0x216 CALLDATASIZE PUSH1 0x4 PUSH2 0x1AD4 JUMP JUMPDEST PUSH2 0xAC0 JUMP JUMPDEST PUSH1 0x40 MLOAD PUSH1 0x1 PUSH1 0x1 PUSH1 0xA0 SHL SUB SWAP1 SWAP2 AND DUP2 MSTORE PUSH1 0x20 ADD PUSH2 0x17D JUMP JUMPDEST CALLVALUE DUP1 ISZERO PUSH2 0x23F JUMPI PUSH1 0x0 DUP1 REVERT JUMPDEST POP PUSH2 0x253 PUSH2 0x24E CALLDATASIZE PUSH1 0x4 PUSH2 0x1AED JUMP JUMPDEST PUSH2 0xAEA JUMP JUMPDEST PUSH1 0x40 MLOAD SWAP1 DUP2 MSTORE PUSH1 0x20 ADD PUSH2 0x17D JUMP JUMPDEST CALLVALUE DUP1 ISZERO PUSH2 0x26D JUMPI PUSH1 0x0 DUP1 REVERT JUMPDEST POP PUSH2 0x13F PUSH2 0x27C CALLDATASIZE PUSH1 0x4 PUSH2 0x1953 JUMP JUMPDEST PUSH2 0xB1B JUMP JUMPDEST CALLVALUE DUP1 ISZERO PUSH2 0x28D JUMPI PUSH1 0x0 DUP1 REVERT JUMPDEST POP PUSH2 0x13F PUSH2 0x29C CALLDATASIZE PUSH1 0x4 PUSH2 0x1953 JUMP JUMPDEST PUSH2 0xCBF JUMP JUMPDEST CALLVALUE DUP1 ISZERO PUSH2 0x2AD JUMPI PUSH1 0x0 DUP1 REVERT JUMPDEST POP PUSH2 0x2F0 PUSH2 0x2BC CALLDATASIZE PUSH1 0x4 PUSH2 0x1AD4 JUMP JUMPDEST PUSH1 0xA PUSH1 0x20 MSTORE PUSH1 0x0 SWAP1 DUP2 MSTORE PUSH1 0x40 SWAP1 KECCAK256 DUP1 SLOAD PUSH1 0x2 DUP3 ADD SLOAD PUSH1 0x3 DUP4 ADD SLOAD PUSH1 0x4 SWAP1 SWAP4 ADD SLOAD PUSH1 0x1 PUSH1 0x1 PUSH1 0xA0 SHL SUB SWAP1 SWAP3 AND SWAP3 SWAP1 SWAP2 PUSH1 0xFF AND DUP5 JUMP JUMPDEST PUSH1 0x40 DUP1 MLOAD PUSH1 0x1 PUSH1 0x1 PUSH1 0xA0 SHL SUB SWAP1 SWAP6 AND DUP6 MSTORE PUSH1 0x20 DUP6 ADD SWAP4 SWAP1 SWAP4 MSTORE SWAP2 DUP4 ADD MSTORE ISZERO ISZERO PUSH1 0x60 DUP3 ADD MSTORE PUSH1 0x80 ADD PUSH2 0x17D JUMP JUMPDEST CALLVALUE DUP1 ISZERO PUSH2 0x328 JUMPI PUSH1 0x0 DUP1 REVERT JUMPDEST POP PUSH2 0x21B PUSH2 0x337 CALLDATASIZE PUSH1 0x4 PUSH2 0x1AD4 JUMP JUMPDEST PUSH2 0xE9C JUMP JUMPDEST CALLVALUE DUP1 ISZERO PUSH2 0x348 JUMPI PUSH1 0x0 DUP1 REVERT JUMPDEST POP PUSH2 0x253 PUSH1 0x5 SLOAD DUP2 JUMP JUMPDEST CALLVALUE DUP1 ISZERO PUSH2 0x35E JUMPI PUSH1 0x0 DUP1 REVERT JUMPDEST POP PUSH2 0x21B PUSH2 0x36D CALLDATASIZE PUSH1 0x4 PUSH2 0x1AD4 JUMP JUMPDEST PUSH2 0xEAC JUMP JUMPDEST CALLVALUE DUP1 ISZERO PUSH2 0x37E JUMPI PUSH1 0x0 DUP1 REVERT JUMPDEST POP PUSH2 0x13F PUSH2 0x38D CALLDATASIZE PUSH1 0x4 PUSH2 0x1953 JUMP JUMPDEST PUSH2 0xEBC JUMP JUMPDEST CALLVALUE DUP1 ISZERO PUSH2 0x39E JUMPI PUSH1 0x0 DUP1 REVERT JUMPDEST POP PUSH2 0x21B PUSH2 0x3AD CALLDATASIZE PUSH1 0x4 PUSH2 0x1AD4 JUMP JUMPDEST PUSH2 0x1032 JUMP JUMPDEST CALLVALUE DUP1 ISZERO PUSH2 0x3BE JUMPI PUSH1 0x0 DUP1 REVERT JUMPDEST POP PUSH2 0x3D2 PUSH2 0x3CD CALLDATASIZE PUSH1 0x4 PUSH2 0x1953 JUMP JUMPDEST PUSH2 0x1042 JUMP JUMPDEST PUSH1 0x40 MLOAD PUSH2 0x17D SWAP2 SWAP1 PUSH2 0x1B17 JUMP JUMPDEST CALLVALUE DUP1 ISZERO PUSH2 0x3EB JUMPI PUSH1 0x0 DUP1 REVERT JUMPDEST POP PUSH2 0x13F PUSH2 0x3FA CALLDATASIZE PUSH1 0x4 PUSH2 0x1953 JUMP JUMPDEST PUSH2 0x1228 JUMP JUMPDEST CALLVALUE DUP1 ISZERO PUSH2 0x40B JUMPI PUSH1 0x0 DUP1 REVERT JUMPDEST POP PUSH2 0x171 PUSH2 0x41A CALLDATASIZE PUSH1 0x4 PUSH2 0x1953 JUMP JUMPDEST PUSH1 0x6 PUSH1 0x20 MSTORE PUSH1 0x0 SWAP1 DUP2 MSTORE PUSH1 0x40 SWAP1 KECCAK256 SLOAD PUSH1 0xFF AND DUP2 JUMP JUMPDEST PUSH2 0x13F PUSH2 0x43D CALLDATASIZE PUSH1 0x4 PUSH2 0x1AD4 JUMP JUMPDEST PUSH2 0x1350 JUMP JUMPDEST CALLVALUE DUP1 ISZERO PUSH2 0x44E JUMPI PUSH1 0x0 DUP1 REVERT JUMPDEST POP PUSH2 0x171 PUSH2 0x45D CALLDATASIZE PUSH1 0x4 PUSH2 0x1953 JUMP JUMPDEST PUSH1 0x3 PUSH1 0x20 MSTORE PUSH1 0x0 SWAP1 DUP2 MSTORE PUSH1 0x40 SWAP1 KECCAK256 SLOAD PUSH1 0xFF AND DUP2 JUMP JUMPDEST CALLVALUE DUP1 ISZERO PUSH2 0x47E JUMPI PUSH1 0x0 DUP1 REVERT JUMPDEST POP PUSH2 0x21B PUSH2 0x48D CALLDATASIZE PUSH1 0x4 PUSH2 0x1AD4 JUMP JUMPDEST PUSH2 0x16AC JUMP JUMPDEST CALLVALUE DUP1 ISZERO PUSH2 0x49E JUMPI PUSH1 0x0 DUP1 REVERT JUMPDEST POP PUSH2 0x253 PUSH1 0x9 SLOAD DUP2 JUMP JUMPDEST CALLVALUE DUP1 ISZERO PUSH2 0x4B4 JUMPI PUSH1 0x0 DUP1 REVERT JUMPDEST POP PUSH2 0x13F PUSH2 0x4C3 CALLDATASIZE PUSH1 0x4 PUSH2 0x1953 JUMP JUMPDEST PUSH2 0x16BC JUMP JUMPDEST PUSH1 0x0 JUMPDEST PUSH1 0x8 SLOAD DUP2 LT ISZERO PUSH2 0x57B JUMPI DUP2 PUSH1 0x1 PUSH1 0x1 PUSH1 0xA0 SHL SUB AND PUSH1 0x8 DUP3 DUP2 SLOAD DUP2 LT PUSH2 0x4F2 JUMPI PUSH2 0x4F2 PUSH2 0x1BEF JUMP JUMPDEST PUSH1 0x0 SWAP2 DUP3 MSTORE PUSH1 0x20 SWAP1 SWAP2 KECCAK256 ADD SLOAD PUSH1 0x1 PUSH1 0x1 PUSH1 0xA0 SHL SUB AND EQ ISZERO PUSH2 0x569 JUMPI PUSH1 0x40 MLOAD PUSH3 0x461BCD PUSH1 0xE5 SHL DUP2 MSTORE PUSH1 0x20 PUSH1 0x4 DUP3 ADD MSTORE PUSH1 0x26 PUSH1 0x24 DUP3 ADD MSTORE PUSH32 0x5468652063686172697479206164647265737320697320616C72656164792070 PUSH1 0x44 DUP3 ADD MSTORE PUSH6 0x656E64696E67 PUSH1 0xD0 SHL PUSH1 0x64 DUP3 ADD MSTORE PUSH1 0x84 ADD JUMPDEST PUSH1 0x40 MLOAD DUP1 SWAP2 SUB SWAP1 REVERT JUMPDEST DUP1 PUSH2 0x573 DUP2 PUSH2 0x1C1B JUMP JUMPDEST SWAP2 POP POP PUSH2 0x4CB JUMP JUMPDEST POP PUSH1 0x8 DUP1 SLOAD PUSH1 0x1 DUP2 ADD DUP3 SSTORE PUSH1 0x0 SWAP2 DUP3 MSTORE PUSH32 0xF3F7A9FE364FAAB93B216DA50A3214154F22A0A2B415B23A84C8169E8B636EE3 ADD DUP1 SLOAD PUSH1 0x1 PUSH1 0x1 PUSH1 0xA0 SHL SUB NOT AND PUSH1 0x1 PUSH1 0x1 PUSH1 0xA0 SHL SUB DUP5 AND SWAP1 DUP2 OR SWAP1 SWAP2 SSTORE PUSH1 0x40 MLOAD SWAP1 SWAP2 PUSH32 0xEE010DC102DA811E4FB2E0202DB4865CA889BC73F30087B25CBDA0729C63EFF3 SWAP2 LOG2 POP JUMP JUMPDEST CALLER PUSH1 0x0 SWAP1 DUP2 MSTORE PUSH1 0x3 PUSH1 0x20 MSTORE PUSH1 0x40 SWAP1 KECCAK256 SLOAD PUSH1 0xFF AND PUSH2 0x623 JUMPI PUSH1 0x40 MLOAD PUSH3 0x461BCD PUSH1 0xE5 SHL DUP2 MSTORE PUSH1 0x4 ADD PUSH2 0x560 SWAP1 PUSH2 0x1C36 JUMP JUMPDEST PUSH1 0x0 DUP3 MLOAD GT PUSH2 0x66A JUMPI PUSH1 0x40 MLOAD PUSH3 0x461BCD PUSH1 0xE5 SHL DUP2 MSTORE PUSH1 0x20 PUSH1 0x4 DUP3 ADD MSTORE PUSH1 0x13 PUSH1 0x24 DUP3 ADD MSTORE PUSH19 0x4368617269746965732061726520656D707479 PUSH1 0x68 SHL PUSH1 0x44 DUP3 ADD MSTORE PUSH1 0x64 ADD PUSH2 0x560 JUMP JUMPDEST PUSH1 0x1 PUSH1 0x1 PUSH1 0xA0 SHL SUB DUP4 AND PUSH1 0x0 SWAP1 DUP2 MSTORE PUSH1 0x20 DUP2 SWAP1 MSTORE PUSH1 0x40 SWAP1 KECCAK256 SLOAD PUSH1 0xFF AND PUSH2 0x6D2 JUMPI PUSH1 0x40 MLOAD PUSH3 0x461BCD PUSH1 0xE5 SHL DUP2 MSTORE PUSH1 0x20 PUSH1 0x4 DUP3 ADD MSTORE PUSH1 0x18 PUSH1 0x24 DUP3 ADD MSTORE PUSH32 0x436C69656E74206973206E6F74206F757220636C69656E740000000000000000 PUSH1 0x44 DUP3 ADD MSTORE PUSH1 0x64 ADD PUSH2 0x560 JUMP JUMPDEST PUSH1 0x9 DUP1 SLOAD PUSH1 0x0 SWAP1 DUP2 MSTORE PUSH1 0xA PUSH1 0x20 MSTORE PUSH1 0x40 DUP1 DUP3 KECCAK256 DUP1 SLOAD PUSH1 0x1 PUSH1 0x1 PUSH1 0xA0 SHL SUB NOT AND PUSH1 0x1 PUSH1 0x1 PUSH1 0xA0 SHL SUB DUP9 AND OR SWAP1 SSTORE DUP3 SLOAD DUP3 MSTORE DUP1 DUP3 KECCAK256 PUSH1 0x3 ADD DUP5 SWAP1 SSTORE DUP5 MLOAD DUP4 SLOAD DUP4 MSTORE DUP2 DUP4 KECCAK256 PUSH1 0x2 ADD SSTORE SWAP2 SLOAD DUP2 MSTORE SWAP1 DUP2 KECCAK256 PUSH1 0x4 ADD DUP1 SLOAD PUSH1 0xFF NOT AND SWAP1 SSTORE JUMPDEST DUP3 MLOAD DUP2 LT ISZERO PUSH2 0x8CB JUMPI PUSH1 0x6 PUSH1 0x0 DUP5 DUP4 DUP2 MLOAD DUP2 LT PUSH2 0x74A JUMPI PUSH2 0x74A PUSH2 0x1BEF JUMP JUMPDEST PUSH1 0x20 SWAP1 DUP2 MUL SWAP2 SWAP1 SWAP2 ADD DUP2 ADD MLOAD MLOAD PUSH1 0x1 PUSH1 0x1 PUSH1 0xA0 SHL SUB AND DUP3 MSTORE DUP2 ADD SWAP2 SWAP1 SWAP2 MSTORE PUSH1 0x40 ADD PUSH1 0x0 KECCAK256 SLOAD PUSH1 0xFF AND PUSH2 0x7D9 JUMPI PUSH1 0x40 MLOAD PUSH3 0x461BCD PUSH1 0xE5 SHL DUP2 MSTORE PUSH1 0x20 PUSH1 0x4 DUP3 ADD MSTORE PUSH1 0x32 PUSH1 0x24 DUP3 ADD MSTORE PUSH32 0x4F6E65206F66207468652064657374696E6174696F6E73206973206E6F742061 PUSH1 0x44 DUP3 ADD MSTORE PUSH18 0x6E20617070726F7665642063686172697479 PUSH1 0x70 SHL PUSH1 0x64 DUP3 ADD MSTORE PUSH1 0x84 ADD PUSH2 0x560 JUMP JUMPDEST PUSH1 0x0 DUP4 DUP3 DUP2 MLOAD DUP2 LT PUSH2 0x7ED JUMPI PUSH2 0x7ED PUSH2 0x1BEF JUMP JUMPDEST PUSH1 0x20 MUL PUSH1 0x20 ADD ADD MLOAD PUSH1 0x20 ADD MLOAD GT PUSH2 0x846 JUMPI PUSH1 0x40 MLOAD PUSH3 0x461BCD PUSH1 0xE5 SHL DUP2 MSTORE PUSH1 0x20 PUSH1 0x4 DUP3 ADD MSTORE PUSH1 0x1C PUSH1 0x24 DUP3 ADD MSTORE PUSH32 0x446F6E6174696F6E732073686F756C64206265206E6F6E2D7A65726F00000000 PUSH1 0x44 DUP3 ADD MSTORE PUSH1 0x64 ADD PUSH2 0x560 JUMP JUMPDEST PUSH1 0xA PUSH1 0x0 PUSH1 0x9 SLOAD DUP2 MSTORE PUSH1 0x20 ADD SWAP1 DUP2 MSTORE PUSH1 0x20 ADD PUSH1 0x0 KECCAK256 PUSH1 0x1 ADD DUP4 DUP3 DUP2 MLOAD DUP2 LT PUSH2 0x870 JUMPI PUSH2 0x870 PUSH2 0x1BEF JUMP JUMPDEST PUSH1 0x20 SWAP1 DUP2 MUL SWAP2 SWAP1 SWAP2 ADD DUP2 ADD MLOAD DUP3 SLOAD PUSH1 0x1 DUP1 DUP3 ADD DUP6 SSTORE PUSH1 0x0 SWAP5 DUP6 MSTORE SWAP4 DUP4 SWAP1 KECCAK256 DUP3 MLOAD PUSH1 0x2 SWAP1 SWAP3 MUL ADD DUP1 SLOAD PUSH1 0x1 PUSH1 0x1 PUSH1 0xA0 SHL SUB NOT AND PUSH1 0x1 PUSH1 0x1 PUSH1 0xA0 SHL SUB SWAP1 SWAP3 AND SWAP2 SWAP1 SWAP2 OR DUP2 SSTORE SWAP2 ADD MLOAD SWAP2 ADD SSTORE DUP1 PUSH2 0x8C3 DUP2 PUSH2 0x1C1B JUMP JUMPDEST SWAP2 POP POP PUSH2 0x72B JUMP JUMPDEST POP PUSH1 0x1 PUSH1 0x1 PUSH1 0xA0 SHL SUB DUP4 AND PUSH1 0x0 DUP2 DUP2 MSTORE PUSH1 0xB PUSH1 0x20 SWAP1 DUP2 MSTORE PUSH1 0x40 DUP1 DUP4 KECCAK256 PUSH1 0x9 DUP1 SLOAD DUP3 SLOAD PUSH1 0x1 DUP2 ADD DUP5 SSTORE SWAP3 DUP7 MSTORE SWAP4 DUP6 KECCAK256 SWAP1 SWAP2 ADD SWAP3 SWAP1 SWAP3 SSTORE SWAP1 SLOAD SWAP1 MLOAD SWAP1 SWAP2 PUSH32 0x5FD655308280CA8F5B685114CFE87B25B8F728B401240ADCC0A98E877E3E29CD SWAP2 LOG3 PUSH1 0x9 DUP1 SLOAD SWAP1 PUSH1 0x0 PUSH2 0x939 DUP4 PUSH2 0x1C1B JUMP JUMPDEST SWAP2 SWAP1 POP SSTORE POP POP POP POP JUMP JUMPDEST CALLER PUSH1 0x0 SWAP1 DUP2 MSTORE PUSH1 0x3 PUSH1 0x20 MSTORE PUSH1 0x40 SWAP1 KECCAK256 SLOAD PUSH1 0xFF AND PUSH2 0x972 JUMPI PUSH1 0x40 MLOAD PUSH3 0x461BCD PUSH1 0xE5 SHL DUP2 MSTORE PUSH1 0x4 ADD PUSH2 0x560 SWAP1 PUSH2 0x1C36 JUMP JUMPDEST PUSH1 0x1 PUSH1 0x1 PUSH1 0xA0 SHL SUB DUP2 AND PUSH1 0x0 DUP2 DUP2 MSTORE PUSH1 0x3 PUSH1 0x20 MSTORE PUSH1 0x40 DUP1 DUP3 KECCAK256 DUP1 SLOAD PUSH1 0xFF NOT AND PUSH1 0x1 SWAP1 DUP2 OR SWAP1 SWAP2 SSTORE PUSH1 0x4 DUP1 SLOAD SWAP2 DUP3 ADD DUP2 SSTORE DUP4 MSTORE PUSH32 0x8A35ACFBC15FF81A39AE7D344FD709F28E8600B4AA8C65C6B64BFE7FE36BD19B ADD DUP1 SLOAD PUSH1 0x1 PUSH1 0x1 PUSH1 0xA0 SHL SUB NOT AND DUP5 OR SWAP1 SSTORE MLOAD PUSH32 0x3B4A40CCCF2058C593542587329DD385BE4F0B588DB5471FBD9598E56DD7093A SWAP2 SWAP1 LOG2 POP JUMP JUMPDEST CALLER PUSH1 0x0 SWAP1 DUP2 MSTORE PUSH1 0x3 PUSH1 0x20 MSTORE PUSH1 0x40 SWAP1 KECCAK256 SLOAD PUSH1 0xFF AND PUSH2 0xA2D JUMPI PUSH1 0x40 MLOAD PUSH3 0x461BCD PUSH1 0xE5 SHL DUP2 MSTORE PUSH1 0x4 ADD PUSH2 0x560 SWAP1 PUSH2 0x1C36 JUMP JUMPDEST PUSH1 0x0 PUSH1 0x5 SLOAD GT PUSH2 0xA75 JUMPI PUSH1 0x40 MLOAD PUSH3 0x461BCD PUSH1 0xE5 SHL DUP2 MSTORE PUSH1 0x20 PUSH1 0x4 DUP3 ADD MSTORE PUSH1 0x13 PUSH1 0x24 DUP3 ADD MSTORE PUSH19 0x4E6F7468696E6720746F207769746864726177 PUSH1 0x68 SHL PUSH1 0x44 DUP3 ADD MSTORE PUSH1 0x64 ADD PUSH2 0x560 JUMP JUMPDEST PUSH1 0x5 SLOAD PUSH1 0x40 MLOAD SWAP1 DUP2 MSTORE CALLER SWAP1 PUSH32 0xD964A27D45F595739C13D8B1160B57491050CACF3A2E5602207277D6228F64EE SWAP1 PUSH1 0x20 ADD PUSH1 0x40 MLOAD DUP1 SWAP2 SUB SWAP1 LOG2 PUSH2 0xAB9 CALLER PUSH1 0x5 SLOAD PUSH2 0x1898 JUMP JUMPDEST PUSH1 0x0 PUSH1 0x5 SSTORE JUMP JUMPDEST PUSH1 0x4 DUP2 DUP2 SLOAD DUP2 LT PUSH2 0xAD0 JUMPI PUSH1 0x0 DUP1 REVERT JUMPDEST PUSH1 0x0 SWAP2 DUP3 MSTORE PUSH1 0x20 SWAP1 SWAP2 KECCAK256 ADD SLOAD PUSH1 0x1 PUSH1 0x1 PUSH1 0xA0 SHL SUB AND SWAP1 POP DUP2 JUMP JUMPDEST PUSH1 0xB PUSH1 0x20 MSTORE DUP2 PUSH1 0x0 MSTORE PUSH1 0x40 PUSH1 0x0 KECCAK256 DUP2 DUP2 SLOAD DUP2 LT PUSH2 0xB06 JUMPI PUSH1 0x0 DUP1 REVERT JUMPDEST SWAP1 PUSH1 0x0 MSTORE PUSH1 0x20 PUSH1 0x0 KECCAK256 ADD PUSH1 0x0 SWAP2 POP SWAP2 POP POP SLOAD DUP2 JUMP JUMPDEST CALLER PUSH1 0x0 SWAP1 DUP2 MSTORE PUSH1 0x3 PUSH1 0x20 MSTORE PUSH1 0x40 SWAP1 KECCAK256 SLOAD PUSH1 0xFF AND PUSH2 0xB4A JUMPI PUSH1 0x40 MLOAD PUSH3 0x461BCD PUSH1 0xE5 SHL DUP2 MSTORE PUSH1 0x4 ADD PUSH2 0x560 SWAP1 PUSH2 0x1C36 JUMP JUMPDEST PUSH1 0x1 PUSH1 0x1 PUSH1 0xA0 SHL SUB DUP2 AND PUSH1 0x0 DUP2 DUP2 MSTORE PUSH1 0x20 DUP2 SWAP1 MSTORE PUSH1 0x40 DUP1 DUP3 KECCAK256 DUP1 SLOAD PUSH1 0xFF NOT AND SWAP1 SSTORE MLOAD PUSH32 0x53C1BF54B1856BD715700F661FF046B40ED055BD0B5D09654DF4CB6DC7FB2CFD SWAP2 SWAP1 LOG2 PUSH1 0x1 SLOAD PUSH2 0xB9A JUMPI POP JUMP JUMPDEST PUSH1 0x0 JUMPDEST PUSH1 0x1 SLOAD DUP2 LT ISZERO PUSH2 0xCBB JUMPI DUP2 PUSH1 0x1 PUSH1 0x1 PUSH1 0xA0 SHL SUB AND PUSH1 0x1 DUP3 DUP2 SLOAD DUP2 LT PUSH2 0xBC4 JUMPI PUSH2 0xBC4 PUSH2 0x1BEF JUMP JUMPDEST PUSH1 0x0 SWAP2 DUP3 MSTORE PUSH1 0x20 SWAP1 SWAP2 KECCAK256 ADD SLOAD PUSH1 0x1 PUSH1 0x1 PUSH1 0xA0 SHL SUB AND EQ ISZERO PUSH2 0xCA9 JUMPI PUSH1 0x1 DUP1 SLOAD PUSH2 0xBED SWAP2 SWAP1 PUSH2 0x1C78 JUMP JUMPDEST DUP2 EQ PUSH2 0xC6D JUMPI PUSH1 0x1 DUP1 SLOAD PUSH2 0xC02 SWAP1 DUP3 SWAP1 PUSH2 0x1C78 JUMP JUMPDEST DUP2 SLOAD DUP2 LT PUSH2 0xC12 JUMPI PUSH2 0xC12 PUSH2 0x1BEF JUMP JUMPDEST PUSH1 0x0 SWAP2 DUP3 MSTORE PUSH1 0x20 SWAP1 SWAP2 KECCAK256 ADD SLOAD PUSH1 0x1 DUP1 SLOAD PUSH1 0x1 PUSH1 0x1 PUSH1 0xA0 SHL SUB SWAP1 SWAP3 AND SWAP2 DUP4 SWAP1 DUP2 LT PUSH2 0xC3E JUMPI PUSH2 0xC3E PUSH2 0x1BEF JUMP JUMPDEST SWAP1 PUSH1 0x0 MSTORE PUSH1 0x20 PUSH1 0x0 KECCAK256 ADD PUSH1 0x0 PUSH2 0x100 EXP DUP2 SLOAD DUP2 PUSH1 0x1 PUSH1 0x1 PUSH1 0xA0 SHL SUB MUL NOT AND SWAP1 DUP4 PUSH1 0x1 PUSH1 0x1 PUSH1 0xA0 SHL SUB AND MUL OR SWAP1 SSTORE POP JUMPDEST PUSH1 0x1 DUP1 SLOAD PUSH2 0xC7C SWAP1 DUP3 SWAP1 PUSH2 0x1C78 JUMP JUMPDEST DUP2 SLOAD DUP2 LT PUSH2 0xC8C JUMPI PUSH2 0xC8C PUSH2 0x1BEF JUMP JUMPDEST PUSH1 0x0 SWAP2 DUP3 MSTORE PUSH1 0x20 SWAP1 SWAP2 KECCAK256 ADD DUP1 SLOAD PUSH1 0x1 PUSH1 0x1 PUSH1 0xA0 SHL SUB NOT AND SWAP1 SSTORE POP POP JUMP JUMPDEST DUP1 PUSH2 0xCB3 DUP2 PUSH2 0x1C1B JUMP JUMPDEST SWAP2 POP POP PUSH2 0xB9D JUMP JUMPDEST POP POP JUMP JUMPDEST CALLER PUSH1 0x0 SWAP1 DUP2 MSTORE PUSH1 0x3 PUSH1 0x20 MSTORE PUSH1 0x40 SWAP1 KECCAK256 SLOAD PUSH1 0xFF AND PUSH2 0xCEE JUMPI PUSH1 0x40 MLOAD PUSH3 0x461BCD PUSH1 0xE5 SHL DUP2 MSTORE PUSH1 0x4 ADD PUSH2 0x560 SWAP1 PUSH2 0x1C36 JUMP JUMPDEST PUSH1 0x1 PUSH1 0x1 PUSH1 0xA0 SHL SUB DUP2 AND PUSH1 0x0 SWAP1 DUP2 MSTORE PUSH1 0x6 PUSH1 0x20 MSTORE PUSH1 0x40 SWAP1 KECCAK256 SLOAD PUSH1 0xFF AND ISZERO PUSH2 0xD12 JUMPI POP JUMP JUMPDEST PUSH1 0x1 PUSH1 0x1 PUSH1 0xA0 SHL SUB DUP2 AND PUSH1 0x0 DUP2 DUP2 MSTORE PUSH1 0x6 PUSH1 0x20 MSTORE PUSH1 0x40 DUP1 DUP3 KECCAK256 DUP1 SLOAD PUSH1 0xFF NOT AND PUSH1 0x1 SWAP1 DUP2 OR SWAP1 SWAP2 SSTORE PUSH1 0x7 DUP1 SLOAD SWAP2 DUP3 ADD DUP2 SSTORE DUP4 MSTORE PUSH32 0xA66CC928B5EDB82AF9BD49922954155AB7B0942694BEA4CE44661D9A8736C688 ADD DUP1 SLOAD PUSH1 0x1 PUSH1 0x1 PUSH1 0xA0 SHL SUB NOT AND DUP5 OR SWAP1 SSTORE MLOAD PUSH32 0x28675749C11847BE30A3B822F80F286058475C5F4977DCB99798B5B0FF2CBE5E SWAP2 SWAP1 LOG2 PUSH1 0x8 SLOAD PUSH2 0xDA5 JUMPI POP JUMP JUMPDEST PUSH1 0x0 JUMPDEST PUSH1 0x8 SLOAD DUP2 LT ISZERO PUSH2 0xCBB JUMPI DUP2 PUSH1 0x1 PUSH1 0x1 PUSH1 0xA0 SHL SUB AND PUSH1 0x8 DUP3 DUP2 SLOAD DUP2 LT PUSH2 0xDCF JUMPI PUSH2 0xDCF PUSH2 0x1BEF JUMP JUMPDEST PUSH1 0x0 SWAP2 DUP3 MSTORE PUSH1 0x20 SWAP1 SWAP2 KECCAK256 ADD SLOAD PUSH1 0x1 PUSH1 0x1 PUSH1 0xA0 SHL SUB AND EQ ISZERO PUSH2 0xE8A JUMPI PUSH1 0x8 SLOAD PUSH2 0xDF9 SWAP1 PUSH1 0x1 SWAP1 PUSH2 0x1C78 JUMP JUMPDEST DUP2 EQ PUSH2 0xE7A JUMPI PUSH1 0x8 DUP1 SLOAD PUSH2 0xE0F SWAP1 PUSH1 0x1 SWAP1 PUSH2 0x1C78 JUMP JUMPDEST DUP2 SLOAD DUP2 LT PUSH2 0xE1F JUMPI PUSH2 0xE1F PUSH2 0x1BEF JUMP JUMPDEST PUSH1 0x0 SWAP2 DUP3 MSTORE PUSH1 0x20 SWAP1 SWAP2 KECCAK256 ADD SLOAD PUSH1 0x8 DUP1 SLOAD PUSH1 0x1 PUSH1 0x1 PUSH1 0xA0 SHL SUB SWAP1 SWAP3 AND SWAP2 DUP4 SWAP1 DUP2 LT PUSH2 0xE4B JUMPI PUSH2 0xE4B PUSH2 0x1BEF JUMP JUMPDEST SWAP1 PUSH1 0x0 MSTORE PUSH1 0x20 PUSH1 0x0 KECCAK256 ADD PUSH1 0x0 PUSH2 0x100 EXP DUP2 SLOAD DUP2 PUSH1 0x1 PUSH1 0x1 PUSH1 0xA0 SHL SUB MUL NOT AND SWAP1 DUP4 PUSH1 0x1 PUSH1 0x1 PUSH1 0xA0 SHL SUB AND MUL OR SWAP1 SSTORE POP JUMPDEST PUSH1 0x8 DUP1 SLOAD PUSH2 0xC7C SWAP1 PUSH1 0x1 SWAP1 PUSH2 0x1C78 JUMP JUMPDEST DUP1 PUSH2 0xE94 DUP2 PUSH2 0x1C1B JUMP JUMPDEST SWAP2 POP POP PUSH2 0xDA8 JUMP JUMPDEST PUSH1 0x8 DUP2 DUP2 SLOAD DUP2 LT PUSH2 0xAD0 JUMPI PUSH1 0x0 DUP1 REVERT JUMPDEST PUSH1 0x2 DUP2 DUP2 SLOAD DUP2 LT PUSH2 0xAD0 JUMPI PUSH1 0x0 DUP1 REVERT JUMPDEST CALLER PUSH1 0x0 SWAP1 DUP2 MSTORE PUSH1 0x3 PUSH1 0x20 MSTORE PUSH1 0x40 SWAP1 KECCAK256 SLOAD PUSH1 0xFF AND PUSH2 0xEEB JUMPI PUSH1 0x40 MLOAD PUSH3 0x461BCD PUSH1 0xE5 SHL DUP2 MSTORE PUSH1 0x4 ADD PUSH2 0x560 SWAP1 PUSH2 0x1C36 JUMP JUMPDEST PUSH1 0x1 PUSH1 0x1 PUSH1 0xA0 SHL SUB DUP2 AND PUSH1 0x0 DUP2 DUP2 MSTORE PUSH1 0x6 PUSH1 0x20 MSTORE PUSH1 0x40 DUP1 DUP3 KECCAK256 DUP1 SLOAD PUSH1 0xFF NOT AND SWAP1 SSTORE MLOAD PUSH32 0x7DB8DF158D85E9475E8DD97A5E3E193C67DC6D977D2FC4F7321049B6C0B70E93 SWAP2 SWAP1 LOG2 PUSH1 0x7 SLOAD PUSH2 0xF3B JUMPI POP JUMP JUMPDEST PUSH1 0x0 JUMPDEST PUSH1 0x7 SLOAD DUP2 LT ISZERO PUSH2 0xCBB JUMPI DUP2 PUSH1 0x1 PUSH1 0x1 PUSH1 0xA0 SHL SUB AND PUSH1 0x7 DUP3 DUP2 SLOAD DUP2 LT PUSH2 0xF65 JUMPI PUSH2 0xF65 PUSH2 0x1BEF JUMP JUMPDEST PUSH1 0x0 SWAP2 DUP3 MSTORE PUSH1 0x20 SWAP1 SWAP2 KECCAK256 ADD SLOAD PUSH1 0x1 PUSH1 0x1 PUSH1 0xA0 SHL SUB AND EQ ISZERO PUSH2 0x1020 JUMPI PUSH1 0x7 SLOAD PUSH2 0xF8F SWAP1 PUSH1 0x1 SWAP1 PUSH2 0x1C78 JUMP JUMPDEST DUP2 EQ PUSH2 0x1010 JUMPI PUSH1 0x7 DUP1 SLOAD PUSH2 0xFA5 SWAP1 PUSH1 0x1 SWAP1 PUSH2 0x1C78 JUMP JUMPDEST DUP2 SLOAD DUP2 LT PUSH2 0xFB5 JUMPI PUSH2 0xFB5 PUSH2 0x1BEF JUMP JUMPDEST PUSH1 0x0 SWAP2 DUP3 MSTORE PUSH1 0x20 SWAP1 SWAP2 KECCAK256 ADD SLOAD PUSH1 0x7 DUP1 SLOAD PUSH1 0x1 PUSH1 0x1 PUSH1 0xA0 SHL SUB SWAP1 SWAP3 AND SWAP2 DUP4 SWAP1 DUP2 LT PUSH2 0xFE1 JUMPI PUSH2 0xFE1 PUSH2 0x1BEF JUMP JUMPDEST SWAP1 PUSH1 0x0 MSTORE PUSH1 0x20 PUSH1 0x0 KECCAK256 ADD PUSH1 0x0 PUSH2 0x100 EXP DUP2 SLOAD DUP2 PUSH1 0x1 PUSH1 0x1 PUSH1 0xA0 SHL SUB MUL NOT AND SWAP1 DUP4 PUSH1 0x1 PUSH1 0x1 PUSH1 0xA0 SHL SUB AND MUL OR SWAP1 SSTORE POP JUMPDEST PUSH1 0x7 DUP1 SLOAD PUSH2 0xC7C SWAP1 PUSH1 0x1 SWAP1 PUSH2 0x1C78 JUMP JUMPDEST DUP1 PUSH2 0x102A DUP2 PUSH2 0x1C1B JUMP JUMPDEST SWAP2 POP POP PUSH2 0xF3E JUMP JUMPDEST PUSH1 0x1 DUP2 DUP2 SLOAD DUP2 LT PUSH2 0xAD0 JUMPI PUSH1 0x0 DUP1 REVERT JUMPDEST PUSH1 0x1 PUSH1 0x1 PUSH1 0xA0 SHL SUB DUP2 AND PUSH1 0x0 SWAP1 DUP2 MSTORE PUSH1 0xB PUSH1 0x20 MSTORE PUSH1 0x40 DUP2 KECCAK256 SLOAD PUSH1 0x60 SWAP2 DUP2 PUSH8 0xFFFFFFFFFFFFFFFF DUP2 GT ISZERO PUSH2 0x1077 JUMPI PUSH2 0x1077 PUSH2 0x1975 JUMP JUMPDEST PUSH1 0x40 MLOAD SWAP1 DUP1 DUP3 MSTORE DUP1 PUSH1 0x20 MUL PUSH1 0x20 ADD DUP3 ADD PUSH1 0x40 MSTORE DUP1 ISZERO PUSH2 0x10E5 JUMPI DUP2 PUSH1 0x20 ADD JUMPDEST PUSH2 0x10D2 PUSH1 0x40 MLOAD DUP1 PUSH1 0xA0 ADD PUSH1 0x40 MSTORE DUP1 PUSH1 0x0 PUSH1 0x1 PUSH1 0x1 PUSH1 0xA0 SHL SUB AND DUP2 MSTORE PUSH1 0x20 ADD PUSH1 0x60 DUP2 MSTORE PUSH1 0x20 ADD PUSH1 0x0 DUP2 MSTORE PUSH1 0x20 ADD PUSH1 0x0 DUP2 MSTORE PUSH1 0x20 ADD PUSH1 0x0 ISZERO ISZERO DUP2 MSTORE POP SWAP1 JUMP JUMPDEST DUP2 MSTORE PUSH1 0x20 ADD SWAP1 PUSH1 0x1 SWAP1 SUB SWAP1 DUP2 PUSH2 0x1095 JUMPI SWAP1 POP JUMPDEST POP SWAP1 POP PUSH1 0x0 JUMPDEST DUP3 DUP2 LT ISZERO PUSH2 0x1220 JUMPI PUSH1 0x1 PUSH1 0x1 PUSH1 0xA0 SHL SUB DUP6 AND PUSH1 0x0 SWAP1 DUP2 MSTORE PUSH1 0xB PUSH1 0x20 MSTORE PUSH1 0x40 DUP2 KECCAK256 DUP1 SLOAD PUSH1 0xA SWAP3 SWAP2 SWAP1 DUP5 SWAP1 DUP2 LT PUSH2 0x1122 JUMPI PUSH2 0x1122 PUSH2 0x1BEF JUMP JUMPDEST PUSH1 0x0 SWAP2 DUP3 MSTORE PUSH1 0x20 DUP1 DUP4 KECCAK256 SWAP1 SWAP2 ADD SLOAD DUP4 MSTORE DUP3 DUP2 ADD SWAP4 SWAP1 SWAP4 MSTORE PUSH1 0x40 SWAP2 DUP3 ADD DUP2 KECCAK256 DUP3 MLOAD PUSH1 0xA0 DUP2 ADD DUP5 MSTORE DUP2 SLOAD PUSH1 0x1 PUSH1 0x1 PUSH1 0xA0 SHL SUB AND DUP2 MSTORE PUSH1 0x1 DUP3 ADD DUP1 SLOAD DUP6 MLOAD DUP2 DUP9 MUL DUP2 ADD DUP9 ADD SWAP1 SWAP7 MSTORE DUP1 DUP7 MSTORE SWAP2 SWAP6 SWAP3 SWAP5 DUP7 DUP5 ADD SWAP5 SWAP1 SWAP4 SWAP2 SWAP3 SWAP2 DUP5 ADD JUMPDEST DUP3 DUP3 LT ISZERO PUSH2 0x11C2 JUMPI PUSH1 0x0 DUP5 DUP2 MSTORE PUSH1 0x20 SWAP1 DUP2 SWAP1 KECCAK256 PUSH1 0x40 DUP1 MLOAD DUP1 DUP3 ADD SWAP1 SWAP2 MSTORE PUSH1 0x2 DUP6 MUL SWAP1 SWAP2 ADD DUP1 SLOAD PUSH1 0x1 PUSH1 0x1 PUSH1 0xA0 SHL SUB AND DUP3 MSTORE PUSH1 0x1 SWAP1 DUP2 ADD SLOAD DUP3 DUP5 ADD MSTORE SWAP1 DUP4 MSTORE SWAP1 SWAP3 ADD SWAP2 ADD PUSH2 0x117A JUMP JUMPDEST POP POP POP SWAP1 DUP3 MSTORE POP PUSH1 0x2 DUP3 ADD SLOAD PUSH1 0x20 DUP3 ADD MSTORE PUSH1 0x3 DUP3 ADD SLOAD PUSH1 0x40 DUP3 ADD MSTORE PUSH1 0x4 SWAP1 SWAP2 ADD SLOAD PUSH1 0xFF AND ISZERO ISZERO PUSH1 0x60 SWAP1 SWAP2 ADD MSTORE DUP3 MLOAD DUP4 SWAP1 DUP4 SWAP1 DUP2 LT PUSH2 0x1202 JUMPI PUSH2 0x1202 PUSH2 0x1BEF JUMP JUMPDEST PUSH1 0x20 MUL PUSH1 0x20 ADD ADD DUP2 SWAP1 MSTORE POP DUP1 DUP1 PUSH2 0x1218 SWAP1 PUSH2 0x1C1B JUMP JUMPDEST SWAP2 POP POP PUSH2 0x10EB JUMP JUMPDEST POP SWAP4 SWAP3 POP POP POP JUMP JUMPDEST PUSH1 0x0 JUMPDEST PUSH1 0x2 SLOAD DUP2 LT ISZERO PUSH2 0x12D7 JUMPI DUP2 PUSH1 0x1 PUSH1 0x1 PUSH1 0xA0 SHL SUB AND PUSH1 0x2 DUP3 DUP2 SLOAD DUP2 LT PUSH2 0x1252 JUMPI PUSH2 0x1252 PUSH2 0x1BEF JUMP JUMPDEST PUSH1 0x0 SWAP2 DUP3 MSTORE PUSH1 0x20 SWAP1 SWAP2 KECCAK256 ADD SLOAD PUSH1 0x1 PUSH1 0x1 PUSH1 0xA0 SHL SUB AND EQ ISZERO PUSH2 0x12C5 JUMPI PUSH1 0x40 MLOAD PUSH3 0x461BCD PUSH1 0xE5 SHL DUP2 MSTORE PUSH1 0x20 PUSH1 0x4 DUP3 ADD MSTORE PUSH1 0x27 PUSH1 0x24 DUP3 ADD MSTORE PUSH32 0x54686520627573696E657373206164647265737320697320616C726561647920 PUSH1 0x44 DUP3 ADD MSTORE PUSH7 0x70656E64696E67 PUSH1 0xC8 SHL PUSH1 0x64 DUP3 ADD MSTORE PUSH1 0x84 ADD PUSH2 0x560 JUMP JUMPDEST DUP1 PUSH2 0x12CF DUP2 PUSH2 0x1C1B JUMP JUMPDEST SWAP2 POP POP PUSH2 0x122B JUMP JUMPDEST POP PUSH1 0x2 DUP1 SLOAD PUSH1 0x1 DUP2 ADD DUP3 SSTORE PUSH1 0x0 SWAP2 DUP3 MSTORE PUSH32 0x405787FA12A823E0F2B7631CC41B3BA8828B3321CA811111FA75CD3AA3BB5ACE ADD DUP1 SLOAD PUSH1 0x1 PUSH1 0x1 PUSH1 0xA0 SHL SUB NOT AND PUSH1 0x1 PUSH1 0x1 PUSH1 0xA0 SHL SUB DUP5 AND SWAP1 DUP2 OR SWAP1 SWAP2 SSTORE PUSH1 0x40 MLOAD SWAP1 SWAP2 PUSH32 0x8887E6F603275DB1E771EC0F4EF66986DD7F78C8B354787C2055C5F566656029 SWAP2 LOG2 POP JUMP JUMPDEST CALLER PUSH1 0x0 SWAP1 DUP2 MSTORE PUSH1 0x20 DUP2 SWAP1 MSTORE PUSH1 0x40 SWAP1 KECCAK256 SLOAD PUSH1 0xFF AND PUSH2 0x13BB JUMPI PUSH1 0x40 MLOAD PUSH3 0x461BCD PUSH1 0xE5 SHL DUP2 MSTORE PUSH1 0x20 PUSH1 0x4 DUP3 ADD MSTORE PUSH1 0x23 PUSH1 0x24 DUP3 ADD MSTORE PUSH32 0x53656E646572206973206E6F742074686520617070726F76656420627573696E PUSH1 0x44 DUP3 ADD MSTORE PUSH3 0x657373 PUSH1 0xE8 SHL PUSH1 0x64 DUP3 ADD MSTORE PUSH1 0x84 ADD PUSH2 0x560 JUMP JUMPDEST PUSH1 0x0 DUP2 DUP2 MSTORE PUSH1 0xA PUSH1 0x20 MSTORE PUSH1 0x40 SWAP1 KECCAK256 SLOAD DUP2 SWAP1 PUSH1 0x1 PUSH1 0x1 PUSH1 0xA0 SHL SUB AND PUSH2 0x1421 JUMPI PUSH1 0x40 MLOAD PUSH3 0x461BCD PUSH1 0xE5 SHL DUP2 MSTORE PUSH1 0x20 PUSH1 0x4 DUP3 ADD MSTORE PUSH1 0x1A PUSH1 0x24 DUP3 ADD MSTORE PUSH32 0x5472616E73616374696F6E20646F65736E27742065786973742E000000000000 PUSH1 0x44 DUP3 ADD MSTORE PUSH1 0x64 ADD PUSH2 0x560 JUMP JUMPDEST PUSH1 0x0 DUP3 DUP2 MSTORE PUSH1 0xA PUSH1 0x20 MSTORE PUSH1 0x40 SWAP1 KECCAK256 DUP1 SLOAD PUSH1 0x1 PUSH1 0x1 PUSH1 0xA0 SHL SUB AND CALLER EQ PUSH2 0x1496 JUMPI PUSH1 0x40 MLOAD PUSH3 0x461BCD PUSH1 0xE5 SHL DUP2 MSTORE PUSH1 0x20 PUSH1 0x4 DUP3 ADD MSTORE PUSH1 0x25 PUSH1 0x24 DUP3 ADD MSTORE PUSH32 0x546865207472616E73616374696F6E20697320666F7220616E6F746865722063 PUSH1 0x44 DUP3 ADD MSTORE PUSH5 0x1B1A595B9D PUSH1 0xDA SHL PUSH1 0x64 DUP3 ADD MSTORE PUSH1 0x84 ADD PUSH2 0x560 JUMP JUMPDEST PUSH1 0x4 DUP2 ADD SLOAD PUSH1 0xFF AND ISZERO PUSH2 0x14EB JUMPI PUSH1 0x40 MLOAD PUSH3 0x461BCD PUSH1 0xE5 SHL DUP2 MSTORE PUSH1 0x20 PUSH1 0x4 DUP3 ADD MSTORE PUSH1 0x1B PUSH1 0x24 DUP3 ADD MSTORE PUSH32 0x5472616E73616374696F6E206973207061696420616C72656164790000000000 PUSH1 0x44 DUP3 ADD MSTORE PUSH1 0x64 ADD PUSH2 0x560 JUMP JUMPDEST PUSH1 0x0 DUP1 JUMPDEST DUP3 PUSH1 0x2 ADD SLOAD DUP2 LT ISZERO PUSH2 0x1541 JUMPI DUP3 PUSH1 0x1 ADD DUP2 DUP2 SLOAD DUP2 LT PUSH2 0x1510 JUMPI PUSH2 0x1510 PUSH2 0x1BEF JUMP JUMPDEST SWAP1 PUSH1 0x0 MSTORE PUSH1 0x20 PUSH1 0x0 KECCAK256 SWAP1 PUSH1 0x2 MUL ADD PUSH1 0x1 ADD SLOAD DUP3 PUSH2 0x152D SWAP2 SWAP1 PUSH2 0x1C8F JUMP JUMPDEST SWAP2 POP DUP1 PUSH2 0x1539 DUP2 PUSH2 0x1C1B JUMP JUMPDEST SWAP2 POP POP PUSH2 0x14EF JUMP JUMPDEST POP CALLVALUE DUP3 PUSH1 0x3 ADD SLOAD DUP3 PUSH2 0x1553 SWAP2 SWAP1 PUSH2 0x1C8F JUMP JUMPDEST GT ISZERO PUSH2 0x15BA JUMPI PUSH1 0x40 MLOAD PUSH3 0x461BCD PUSH1 0xE5 SHL DUP2 MSTORE PUSH1 0x20 PUSH1 0x4 DUP3 ADD MSTORE PUSH1 0x30 PUSH1 0x24 DUP3 ADD MSTORE PUSH32 0x5468652076616C7565206973206E6F7420656E6F75676820746F20636F766572 PUSH1 0x44 DUP3 ADD MSTORE PUSH16 0x103A3432903A3930B739B0B1BA34B7B7 PUSH1 0x81 SHL PUSH1 0x64 DUP3 ADD MSTORE PUSH1 0x84 ADD PUSH2 0x560 JUMP JUMPDEST PUSH1 0x0 JUMPDEST DUP3 PUSH1 0x2 ADD SLOAD DUP2 LT ISZERO PUSH2 0x163D JUMPI PUSH2 0x162B DUP4 PUSH1 0x1 ADD DUP3 DUP2 SLOAD DUP2 LT PUSH2 0x15E1 JUMPI PUSH2 0x15E1 PUSH2 0x1BEF JUMP JUMPDEST PUSH1 0x0 SWAP2 DUP3 MSTORE PUSH1 0x20 SWAP1 SWAP2 KECCAK256 PUSH1 0x2 SWAP1 SWAP2 MUL ADD SLOAD PUSH1 0x1 DUP6 ADD DUP1 SLOAD PUSH1 0x1 PUSH1 0x1 PUSH1 0xA0 SHL SUB SWAP1 SWAP3 AND SWAP2 DUP5 SWAP1 DUP2 LT PUSH2 0x1614 JUMPI PUSH2 0x1614 PUSH2 0x1BEF JUMP JUMPDEST SWAP1 PUSH1 0x0 MSTORE PUSH1 0x20 PUSH1 0x0 KECCAK256 SWAP1 PUSH1 0x2 MUL ADD PUSH1 0x1 ADD SLOAD PUSH2 0x1898 JUMP JUMPDEST DUP1 PUSH2 0x1635 DUP2 PUSH2 0x1C1B JUMP JUMPDEST SWAP2 POP POP PUSH2 0x15BD JUMP JUMPDEST POP PUSH1 0x4 DUP3 ADD DUP1 SLOAD PUSH1 0xFF NOT AND PUSH1 0x1 OR SWAP1 SSTORE PUSH2 0x1657 DUP2 CALLVALUE PUSH2 0x1C78 JUMP JUMPDEST PUSH1 0x5 PUSH1 0x0 DUP3 DUP3 SLOAD PUSH2 0x1668 SWAP2 SWAP1 PUSH2 0x1C8F JUMP JUMPDEST SWAP1 SWAP2 SSTORE POP POP DUP2 SLOAD PUSH1 0x40 MLOAD PUSH1 0x1 PUSH1 0x1 PUSH1 0xA0 SHL SUB SWAP1 SWAP2 AND SWAP1 DUP6 SWAP1 PUSH32 0x1048322214C2376910CB9740DEC280CF85A1375BE08C0DB6DD0413EDC8C49C8E SWAP1 PUSH1 0x0 SWAP1 LOG3 POP POP POP POP JUMP JUMPDEST PUSH1 0x7 DUP2 DUP2 SLOAD DUP2 LT PUSH2 0xAD0 JUMPI PUSH1 0x0 DUP1 REVERT JUMPDEST CALLER PUSH1 0x0 SWAP1 DUP2 MSTORE PUSH1 0x3 PUSH1 0x20 MSTORE PUSH1 0x40 SWAP1 KECCAK256 SLOAD PUSH1 0xFF AND PUSH2 0x16EB JUMPI PUSH1 0x40 MLOAD PUSH3 0x461BCD PUSH1 0xE5 SHL DUP2 MSTORE PUSH1 0x4 ADD PUSH2 0x560 SWAP1 PUSH2 0x1C36 JUMP JUMPDEST PUSH1 0x1 PUSH1 0x1 PUSH1 0xA0 SHL SUB DUP2 AND PUSH1 0x0 SWAP1 DUP2 MSTORE PUSH1 0x20 DUP2 SWAP1 MSTORE PUSH1 0x40 SWAP1 KECCAK256 SLOAD PUSH1 0xFF AND ISZERO PUSH2 0x170F JUMPI POP JUMP JUMPDEST PUSH1 0x1 PUSH1 0x1 PUSH1 0xA0 SHL SUB DUP2 AND PUSH1 0x0 DUP2 DUP2 MSTORE PUSH1 0x20 DUP2 SWAP1 MSTORE PUSH1 0x40 DUP1 DUP3 KECCAK256 DUP1 SLOAD PUSH1 0xFF NOT AND PUSH1 0x1 SWAP1 DUP2 OR SWAP1 SWAP2 SSTORE DUP1 SLOAD DUP1 DUP3 ADD DUP3 SSTORE SWAP1 DUP4 MSTORE PUSH32 0xB10E2D527612073B26EECDFD717E6A320CF44B4AFAC2B0732D9FCBE2B7FA0CF6 ADD DUP1 SLOAD PUSH1 0x1 PUSH1 0x1 PUSH1 0xA0 SHL SUB NOT AND DUP5 OR SWAP1 SSTORE MLOAD PUSH32 0xAF1D127970278F3E2C952D5839B66D23F63C89EDC514C3C4E96AFBC3E0C9510F SWAP2 SWAP1 LOG2 PUSH1 0x2 SLOAD PUSH2 0x17A1 JUMPI POP JUMP JUMPDEST PUSH1 0x0 JUMPDEST PUSH1 0x2 SLOAD DUP2 LT ISZERO PUSH2 0xCBB JUMPI DUP2 PUSH1 0x1 PUSH1 0x1 PUSH1 0xA0 SHL SUB AND PUSH1 0x2 DUP3 DUP2 SLOAD DUP2 LT PUSH2 0x17CB JUMPI PUSH2 0x17CB PUSH2 0x1BEF JUMP JUMPDEST PUSH1 0x0 SWAP2 DUP3 MSTORE PUSH1 0x20 SWAP1 SWAP2 KECCAK256 ADD SLOAD PUSH1 0x1 PUSH1 0x1 PUSH1 0xA0 SHL SUB AND EQ ISZERO PUSH2 0x1886 JUMPI PUSH1 0x2 SLOAD PUSH2 0x17F5 SWAP1 PUSH1 0x1 SWAP1 PUSH2 0x1C78 JUMP JUMPDEST DUP2 EQ PUSH2 0x1876 JUMPI PUSH1 0x2 DUP1 SLOAD PUSH2 0x180B SWAP1 PUSH1 0x1 SWAP1 PUSH2 0x1C78 JUMP JUMPDEST DUP2 SLOAD DUP2 LT PUSH2 0x181B JUMPI PUSH2 0x181B PUSH2 0x1BEF JUMP JUMPDEST PUSH1 0x0 SWAP2 DUP3 MSTORE PUSH1 0x20 SWAP1 SWAP2 KECCAK256 ADD SLOAD PUSH1 0x2 DUP1 SLOAD PUSH1 0x1 PUSH1 0x1 PUSH1 0xA0 SHL SUB SWAP1 SWAP3 AND SWAP2 DUP4 SWAP1 DUP2 LT PUSH2 0x1847 JUMPI PUSH2 0x1847 PUSH2 0x1BEF JUMP JUMPDEST SWAP1 PUSH1 0x0 MSTORE PUSH1 0x20 PUSH1 0x0 KECCAK256 ADD PUSH1 0x0 PUSH2 0x100 EXP DUP2 SLOAD DUP2 PUSH1 0x1 PUSH1 0x1 PUSH1 0xA0 SHL SUB MUL NOT AND SWAP1 DUP4 PUSH1 0x1 PUSH1 0x1 PUSH1 0xA0 SHL SUB AND MUL OR SWAP1 SSTORE POP JUMPDEST PUSH1 0x2 DUP1 SLOAD PUSH2 0xC7C SWAP1 PUSH1 0x1 SWAP1 PUSH2 0x1C78 JUMP JUMPDEST DUP1 PUSH2 0x1890 DUP2 PUSH2 0x1C1B JUMP JUMPDEST SWAP2 POP POP PUSH2 0x17A4 JUMP JUMPDEST PUSH1 0x0 DUP3 PUSH1 0x1 PUSH1 0x1 PUSH1 0xA0 SHL SUB AND DUP3 PUSH1 0x40 MLOAD PUSH1 0x0 PUSH1 0x40 MLOAD DUP1 DUP4 SUB DUP2 DUP6 DUP8 GAS CALL SWAP3 POP POP POP RETURNDATASIZE DUP1 PUSH1 0x0 DUP2 EQ PUSH2 0x18E5 JUMPI PUSH1 0x40 MLOAD SWAP2 POP PUSH1 0x1F NOT PUSH1 0x3F RETURNDATASIZE ADD AND DUP3 ADD PUSH1 0x40 MSTORE RETURNDATASIZE DUP3 MSTORE RETURNDATASIZE PUSH1 0x0 PUSH1 0x20 DUP5 ADD RETURNDATACOPY PUSH2 0x18EA JUMP JUMPDEST PUSH1 0x60 SWAP2 POP JUMPDEST POP POP SWAP1 POP DUP1 PUSH2 0x1932 JUMPI PUSH1 0x40 MLOAD PUSH3 0x461BCD PUSH1 0xE5 SHL DUP2 MSTORE PUSH1 0x20 PUSH1 0x4 DUP3 ADD MSTORE PUSH1 0x14 PUSH1 0x24 DUP3 ADD MSTORE PUSH20 0x4661696C656420746F2073656E642066756E6473 PUSH1 0x60 SHL PUSH1 0x44 DUP3 ADD MSTORE PUSH1 0x64 ADD PUSH2 0x560 JUMP JUMPDEST POP POP POP JUMP JUMPDEST DUP1 CALLDATALOAD PUSH1 0x1 PUSH1 0x1 PUSH1 0xA0 SHL SUB DUP2 AND DUP2 EQ PUSH2 0x194E JUMPI PUSH1 0x0 DUP1 REVERT JUMPDEST SWAP2 SWAP1 POP JUMP JUMPDEST PUSH1 0x0 PUSH1 0x20 DUP3 DUP5 SUB SLT ISZERO PUSH2 0x1965 JUMPI PUSH1 0x0 DUP1 REVERT JUMPDEST PUSH2 0x196E DUP3 PUSH2 0x1937 JUMP JUMPDEST SWAP4 SWAP3 POP POP POP JUMP JUMPDEST PUSH4 0x4E487B71 PUSH1 0xE0 SHL PUSH1 0x0 MSTORE PUSH1 0x41 PUSH1 0x4 MSTORE PUSH1 0x24 PUSH1 0x0 REVERT JUMPDEST PUSH1 0x40 DUP1 MLOAD SWAP1 DUP2 ADD PUSH8 0xFFFFFFFFFFFFFFFF DUP2 GT DUP3 DUP3 LT OR ISZERO PUSH2 0x19AE JUMPI PUSH2 0x19AE PUSH2 0x1975 JUMP JUMPDEST PUSH1 0x40 MSTORE SWAP1 JUMP JUMPDEST PUSH1 0x40 MLOAD PUSH1 0x1F DUP3 ADD PUSH1 0x1F NOT AND DUP2 ADD PUSH8 0xFFFFFFFFFFFFFFFF DUP2 GT DUP3 DUP3 LT OR ISZERO PUSH2 0x19DD JUMPI PUSH2 0x19DD PUSH2 0x1975 JUMP JUMPDEST PUSH1 0x40 MSTORE SWAP2 SWAP1 POP JUMP JUMPDEST PUSH1 0x0 DUP1 PUSH1 0x0 PUSH1 0x60 DUP5 DUP7 SUB SLT ISZERO PUSH2 0x19FA JUMPI PUSH1 0x0 DUP1 REVERT JUMPDEST PUSH2 0x1A03 DUP5 PUSH2 0x1937 JUMP JUMPDEST SWAP3 POP PUSH1 0x20 DUP1 DUP6 ADD CALLDATALOAD PUSH8 0xFFFFFFFFFFFFFFFF DUP1 DUP3 GT ISZERO PUSH2 0x1A21 JUMPI PUSH1 0x0 DUP1 REVERT JUMPDEST DUP2 DUP8 ADD SWAP2 POP DUP8 PUSH1 0x1F DUP4 ADD SLT PUSH2 0x1A35 JUMPI PUSH1 0x0 DUP1 REVERT JUMPDEST DUP2 CALLDATALOAD DUP2 DUP2 GT ISZERO PUSH2 0x1A47 JUMPI PUSH2 0x1A47 PUSH2 0x1975 JUMP JUMPDEST PUSH2 0x1A55 DUP5 DUP3 PUSH1 0x5 SHL ADD PUSH2 0x19B4 JUMP JUMPDEST DUP2 DUP2 MSTORE DUP5 DUP2 ADD SWAP3 POP PUSH1 0x6 SWAP2 SWAP1 SWAP2 SHL DUP4 ADD DUP5 ADD SWAP1 DUP10 DUP3 GT ISZERO PUSH2 0x1A75 JUMPI PUSH1 0x0 DUP1 REVERT JUMPDEST SWAP3 DUP5 ADD SWAP3 JUMPDEST DUP2 DUP5 LT ISZERO PUSH2 0x1ABF JUMPI PUSH1 0x40 DUP5 DUP12 SUB SLT ISZERO PUSH2 0x1A93 JUMPI PUSH1 0x0 DUP1 DUP2 REVERT JUMPDEST PUSH2 0x1A9B PUSH2 0x198B JUMP JUMPDEST PUSH2 0x1AA4 DUP6 PUSH2 0x1937 JUMP JUMPDEST DUP2 MSTORE DUP5 DUP7 ADD CALLDATALOAD DUP7 DUP3 ADD MSTORE DUP4 MSTORE PUSH1 0x40 SWAP1 SWAP4 ADD SWAP3 SWAP2 DUP5 ADD SWAP2 PUSH2 0x1A7A JUMP JUMPDEST SWAP7 SWAP10 SWAP7 SWAP9 POP POP POP POP PUSH1 0x40 SWAP5 SWAP1 SWAP5 ADD CALLDATALOAD SWAP4 POP POP POP JUMP JUMPDEST PUSH1 0x0 PUSH1 0x20 DUP3 DUP5 SUB SLT ISZERO PUSH2 0x1AE6 JUMPI PUSH1 0x0 DUP1 REVERT JUMPDEST POP CALLDATALOAD SWAP2 SWAP1 POP JUMP JUMPDEST PUSH1 0x0 DUP1 PUSH1 0x40 DUP4 DUP6 SUB SLT ISZERO PUSH2 0x1B00 JUMPI PUSH1 0x0 DUP1 REVERT JUMPDEST PUSH2 0x1B09 DUP4 PUSH2 0x1937 JUMP JUMPDEST SWAP5 PUSH1 0x20 SWAP4 SWAP1 SWAP4 ADD CALLDATALOAD SWAP4 POP POP POP JUMP JUMPDEST PUSH1 0x0 PUSH1 0x20 DUP1 DUP4 ADD DUP2 DUP5 MSTORE DUP1 DUP6 MLOAD DUP1 DUP4 MSTORE PUSH1 0x40 SWAP3 POP DUP3 DUP7 ADD SWAP2 POP DUP3 DUP2 PUSH1 0x5 SHL DUP8 ADD ADD DUP5 DUP9 ADD PUSH1 0x0 DUP1 JUMPDEST DUP5 DUP2 LT ISZERO PUSH2 0x1BE0 JUMPI DUP10 DUP5 SUB PUSH1 0x3F NOT ADD DUP7 MSTORE DUP3 MLOAD DUP1 MLOAD PUSH1 0x1 PUSH1 0x1 PUSH1 0xA0 SHL SUB SWAP1 DUP2 AND DUP7 MSTORE DUP10 DUP3 ADD MLOAD PUSH1 0xA0 DUP12 DUP9 ADD DUP2 SWAP1 MSTORE DUP2 MLOAD SWAP1 DUP9 ADD DUP2 SWAP1 MSTORE PUSH1 0xC0 DUP9 ADD SWAP3 SWAP2 DUP13 ADD SWAP2 SWAP1 DUP7 SWAP1 JUMPDEST DUP1 DUP3 LT ISZERO PUSH2 0x1BAD JUMPI DUP4 MLOAD DUP1 MLOAD DUP5 AND DUP7 MSTORE DUP15 ADD MLOAD DUP15 DUP7 ADD MSTORE SWAP4 DUP13 ADD SWAP4 SWAP3 DUP14 ADD SWAP3 PUSH1 0x1 SWAP2 SWAP1 SWAP2 ADD SWAP1 PUSH2 0x1B82 JUMP JUMPDEST POP POP POP POP DUP2 DUP10 ADD MLOAD DUP7 DUP11 ADD MSTORE PUSH1 0x60 DUP1 DUP4 ADD MLOAD SWAP1 DUP8 ADD MSTORE PUSH1 0x80 SWAP2 DUP3 ADD MLOAD ISZERO ISZERO SWAP2 SWAP1 SWAP6 ADD MSTORE SWAP5 DUP8 ADD SWAP5 SWAP2 DUP8 ADD SWAP2 PUSH1 0x1 ADD PUSH2 0x1B3F JUMP JUMPDEST POP SWAP2 SWAP10 SWAP9 POP POP POP POP POP POP POP POP POP JUMP JUMPDEST PUSH4 0x4E487B71 PUSH1 0xE0 SHL PUSH1 0x0 MSTORE PUSH1 0x32 PUSH1 0x4 MSTORE PUSH1 0x24 PUSH1 0x0 REVERT JUMPDEST PUSH4 0x4E487B71 PUSH1 0xE0 SHL PUSH1 0x0 MSTORE PUSH1 0x11 PUSH1 0x4 MSTORE PUSH1 0x24 PUSH1 0x0 REVERT JUMPDEST PUSH1 0x0 PUSH1 0x0 NOT DUP3 EQ ISZERO PUSH2 0x1C2F JUMPI PUSH2 0x1C2F PUSH2 0x1C05 JUMP JUMPDEST POP PUSH1 0x1 ADD SWAP1 JUMP JUMPDEST PUSH1 0x20 DUP1 DUP3 MSTORE PUSH1 0x22 SWAP1 DUP3 ADD MSTORE PUSH32 0x53656E646572206973206E6F742074686520617070726F766564206D616E6167 PUSH1 0x40 DUP3 ADD MSTORE PUSH2 0x32B9 PUSH1 0xF1 SHL PUSH1 0x60 DUP3 ADD MSTORE PUSH1 0x80 ADD SWAP1 JUMP JUMPDEST PUSH1 0x0 DUP3 DUP3 LT ISZERO PUSH2 0x1C8A JUMPI PUSH2 0x1C8A PUSH2 0x1C05 JUMP JUMPDEST POP SUB SWAP1 JUMP JUMPDEST PUSH1 0x0 DUP3 NOT DUP3 GT ISZERO PUSH2 0x1CA2 JUMPI PUSH2 0x1CA2 PUSH2 0x1C05 JUMP JUMPDEST POP ADD SWAP1 JUMP INVALID LOG2 PUSH5 0x6970667358 0x22 SLT KECCAK256 0xBB NOT GASLIMIT PUSH14 0x27F0848144E3E6DEC84E442D98DA 0xD5 SWAP10 PUSH27 0xF2691EBD7606CDA7C39E5864736F6C634300080900330000000000 "
        },
        "methodIdentifiers": {
          "addManager(address)": "2d06177a",
          "addNewBusiness(address)": "e725a4be",
          "addNewCharity(address)": "166cd850",
          "approveBusiness(address)": "fddd4387",
          "approveCharity(address)": "45810583",
          "businesses(uint256)": "b984c6ec",
          "charities(uint256)": "fb709d2e",
          "clientToTransaction(address,uint256)": "418dff3d",
          "executeTransaction(uint256)": "ee22610b",
          "generateTransaction(address,(address,uint256)[],uint256)": "1702e2dc",
          "isBusiness(address)": "1466d019",
          "isCharity(address)": "e81ffbef",
          "isManager(address)": "f3ae2415",
          "managers(uint256)": "3d39c260",
          "pendingBusinesses(uint256)": "9ffd8fb8",
          "pendingCharities(uint256)": "9b0137b3",
          "pendingTransactions(address)": "c127fd39",
          "removeBusiness(address)": "419b96fa",
          "removeCharity(address)": "abefe591",
          "rewards()": "9ec5a894",
          "transactions(uint256)": "9ace38c2",
          "transactionsCount()": "fd99a746",
          "withdraw()": "3ccfd60b"
        }
      }
    }
  }
}