{
  "contracts/Relay.sol": {
    "Relay": {
      "abi": [
        {
          "inputs": [
            {
              "internalType": "address",
              "name": "manager",
              "type": "address"
            }
          ],
          "stateMutability": "nonpayable",
          "type": "constructor"
        },
        {
          "anonymous": false,
          "inputs": [
            {
              "indexed": true,
              "internalType": "address",
              "name": "addedManager",
              "type": "address"
            }
          ],
          "name": "ManagerAdded",
          "type": "event"
        },
        {
          "anonymous": false,
          "inputs": [
            {
              "indexed": true,
              "internalType": "address",
              "name": "addedManager",
              "type": "address"
            }
          ],
          "name": "ManagerRemoved",
          "type": "event"
        },
        {
          "anonymous": false,
          "inputs": [
            {
              "indexed": true,
              "internalType": "uint256",
              "name": "transactionId",
              "type": "uint256"
            },
            {
              "indexed": true,
              "internalType": "address",
              "name": "business",
              "type": "address"
            }
          ],
          "name": "TransactionAdded",
          "type": "event"
        },
        {
          "anonymous": false,
          "inputs": [
            {
              "indexed": true,
              "internalType": "uint256",
              "name": "transactionId",
              "type": "uint256"
            },
            {
              "indexed": true,
              "internalType": "address",
              "name": "business",
              "type": "address"
            }
          ],
          "name": "TransactionPaid",
          "type": "event"
        },
        {
          "anonymous": false,
          "inputs": [
            {
              "indexed": false,
              "internalType": "uint256",
              "name": "amount",
              "type": "uint256"
            },
            {
              "indexed": true,
              "internalType": "address",
              "name": "manager",
              "type": "address"
            }
          ],
          "name": "Withdrawal",
          "type": "event"
        },
        {
          "stateMutability": "payable",
          "type": "fallback"
        },
        {
          "inputs": [
            {
              "internalType": "address",
              "name": "manager",
              "type": "address"
            }
          ],
          "name": "addManager",
          "outputs": [],
          "stateMutability": "nonpayable",
          "type": "function"
        },
        {
          "inputs": [
            {
              "internalType": "address",
              "name": "business",
              "type": "address"
            }
          ],
          "name": "addNewBusiness",
          "outputs": [],
          "stateMutability": "nonpayable",
          "type": "function"
        },
        {
          "inputs": [
            {
              "internalType": "address",
              "name": "charity",
              "type": "address"
            }
          ],
          "name": "addNewCharity",
          "outputs": [],
          "stateMutability": "nonpayable",
          "type": "function"
        },
        {
          "inputs": [
            {
              "internalType": "address",
              "name": "business",
              "type": "address"
            }
          ],
          "name": "approveBusiness",
          "outputs": [],
          "stateMutability": "nonpayable",
          "type": "function"
        },
        {
          "inputs": [
            {
              "internalType": "address",
              "name": "charity",
              "type": "address"
            }
          ],
          "name": "approveCharity",
          "outputs": [],
          "stateMutability": "nonpayable",
          "type": "function"
        },
        {
          "inputs": [
            {
              "internalType": "uint256",
              "name": "transactionId",
              "type": "uint256"
            }
          ],
          "name": "executeTransaction",
          "outputs": [],
          "stateMutability": "payable",
          "type": "function"
        },
        {
          "inputs": [
            {
              "internalType": "address",
              "name": "client",
              "type": "address"
            },
            {
              "components": [
                {
                  "internalType": "address",
                  "name": "destination",
                  "type": "address"
                },
                {
                  "internalType": "uint256",
                  "name": "value",
                  "type": "uint256"
                }
              ],
              "internalType": "struct Types.TransactionPiece[]",
              "name": "pieces",
              "type": "tuple[]"
            },
            {
              "internalType": "uint256",
              "name": "fee",
              "type": "uint256"
            }
          ],
          "name": "generateTransaction",
          "outputs": [],
          "stateMutability": "nonpayable",
          "type": "function"
        },
        {
          "inputs": [
            {
              "internalType": "address",
              "name": "",
              "type": "address"
            }
          ],
          "name": "isBusiness",
          "outputs": [
            {
              "internalType": "bool",
              "name": "",
              "type": "bool"
            }
          ],
          "stateMutability": "view",
          "type": "function"
        },
        {
          "inputs": [
            {
              "internalType": "address",
              "name": "",
              "type": "address"
            }
          ],
          "name": "isCharity",
          "outputs": [
            {
              "internalType": "bool",
              "name": "",
              "type": "bool"
            }
          ],
          "stateMutability": "view",
          "type": "function"
        },
        {
          "inputs": [
            {
              "internalType": "address",
              "name": "",
              "type": "address"
            }
          ],
          "name": "isManager",
          "outputs": [
            {
              "internalType": "bool",
              "name": "",
              "type": "bool"
            }
          ],
          "stateMutability": "view",
          "type": "function"
        },
        {
          "inputs": [
            {
              "internalType": "address",
              "name": "",
              "type": "address"
            }
          ],
          "name": "pendingBusinesses",
          "outputs": [
            {
              "internalType": "bool",
              "name": "",
              "type": "bool"
            }
          ],
          "stateMutability": "view",
          "type": "function"
        },
        {
          "inputs": [
            {
              "internalType": "address",
              "name": "",
              "type": "address"
            }
          ],
          "name": "pendingCharities",
          "outputs": [
            {
              "internalType": "bool",
              "name": "",
              "type": "bool"
            }
          ],
          "stateMutability": "view",
          "type": "function"
        },
        {
          "inputs": [
            {
              "internalType": "address",
              "name": "business",
              "type": "address"
            }
          ],
          "name": "removeBusiness",
          "outputs": [],
          "stateMutability": "nonpayable",
          "type": "function"
        },
        {
          "inputs": [
            {
              "internalType": "address",
              "name": "charity",
              "type": "address"
            }
          ],
          "name": "removeCharity",
          "outputs": [],
          "stateMutability": "nonpayable",
          "type": "function"
        },
        {
          "inputs": [],
          "name": "rewards",
          "outputs": [
            {
              "internalType": "uint256",
              "name": "",
              "type": "uint256"
            }
          ],
          "stateMutability": "view",
          "type": "function"
        },
        {
          "inputs": [
            {
              "internalType": "uint256",
              "name": "",
              "type": "uint256"
            }
          ],
          "name": "transactions",
          "outputs": [
            {
              "internalType": "address",
              "name": "client",
              "type": "address"
            },
            {
              "internalType": "uint256",
              "name": "piecesCount",
              "type": "uint256"
            },
            {
              "internalType": "uint256",
              "name": "fee",
              "type": "uint256"
            },
            {
              "internalType": "bool",
              "name": "paid",
              "type": "bool"
            }
          ],
          "stateMutability": "view",
          "type": "function"
        },
        {
          "inputs": [],
          "name": "transactionsCount",
          "outputs": [
            {
              "internalType": "uint256",
              "name": "",
              "type": "uint256"
            }
          ],
          "stateMutability": "view",
          "type": "function"
        },
        {
          "inputs": [],
          "name": "withdraw",
          "outputs": [],
          "stateMutability": "nonpayable",
          "type": "function"
        },
        {
          "stateMutability": "payable",
          "type": "receive"
        }
      ],
      "evm": {
        "bytecode": {
          "linkReferences": {},
          "object": "608060405234801561001057600080fd5b506040516110b63803806110b683398101604081905261002f91610056565b6001600160a01b03166000908152600260205260409020805460ff19166001179055610086565b60006020828403121561006857600080fd5b81516001600160a01b038116811461007f57600080fd5b9392505050565b611021806100956000396000f3fe6080604052600436106101015760003560e01c80639ec5a8941161008f578063e81ffbef11610061578063e81ffbef14610384578063ee22610b146103b4578063f3ae2415146103c7578063fd99a746146103f7578063fddd43871461040d57005b80639ec5a894146102ce578063abefe591146102f2578063db20a88714610312578063e725a4be1461034257005b80632d06177a116100d35780632d06177a146101de5780633ccfd60b146101fe578063419b96fa1461021357806345810583146102335780639ace38c21461025357005b80631466d0191461010a578063166cd8501461014f5780631702e2dc1461018e57806327b616cd146101ae57005b3661010857005b005b34801561011657600080fd5b5061013a610125366004610d99565b60006020819052908152604090205460ff1681565b60405190151581526020015b60405180910390f35b34801561015b57600080fd5b5061010861016a366004610d99565b6001600160a01b03166000908152600560205260409020805460ff19166001179055565b34801561019a57600080fd5b506101086101a9366004610e2b565b61042d565b3480156101ba57600080fd5b5061013a6101c9366004610d99565b60016020526000908152604090205460ff1681565b3480156101ea57600080fd5b506101086101f9366004610d99565b61074c565b34801561020a57600080fd5b5061010861079f565b34801561021f57600080fd5b5061010861022e366004610d99565b610861565b34801561023f57600080fd5b5061010861024e366004610d99565b6108b1565b34801561025f57600080fd5b506102a261026e366004610f1a565b60076020526000908152604090208054600282015460038301546004909301546001600160a01b0390921692909160ff1684565b604080516001600160a01b03909516855260208501939093529183015215156060820152608001610146565b3480156102da57600080fd5b506102e460035481565b604051908152602001610146565b3480156102fe57600080fd5b5061010861030d366004610d99565b610919565b34801561031e57600080fd5b5061013a61032d366004610d99565b60056020526000908152604090205460ff1681565b34801561034e57600080fd5b5061010861035d366004610d99565b6001600160a01b03166000908152600160208190526040909120805460ff19169091179055565b34801561039057600080fd5b5061013a61039f366004610d99565b60046020526000908152604090205460ff1681565b6101086103c2366004610f1a565b610969565b3480156103d357600080fd5b5061013a6103e2366004610d99565b60026020526000908152604090205460ff1681565b34801561040357600080fd5b506102e460065481565b34801561041957600080fd5b50610108610428366004610d99565b610c79565b3360009081526002602052604090205460ff166104655760405162461bcd60e51b815260040161045c90610f33565b60405180910390fd5b60008251116104ac5760405162461bcd60e51b81526020600482015260136024820152724368617269746965732061726520656d70747960681b604482015260640161045c565b6001600160a01b03831660009081526020819052604090205460ff166105145760405162461bcd60e51b815260206004820152601860248201527f436c69656e74206973206e6f74206f757220636c69656e740000000000000000604482015260640161045c565b6006805460009081526007602052604080822080546001600160a01b0319166001600160a01b038816179055825482528082206003018490558451835483528183206002015591548152908120600401805460ff191690555b82518110156106f9576004600084838151811061058c5761058c610f75565b602090810291909101810151516001600160a01b031682528101919091526040016000205460ff1661061b5760405162461bcd60e51b815260206004820152603260248201527f4f6e65206f66207468652064657374696e6174696f6e73206973206e6f7420616044820152716e20617070726f766564206368617269747960701b606482015260840161045c565b600083828151811061062f5761062f610f75565b602002602001015160200151116106885760405162461bcd60e51b815260206004820152601c60248201527f446f6e6174696f6e732073686f756c64206265206e6f6e2d7a65726f00000000604482015260640161045c565b82818151811061069a5761069a610f75565b6020908102919091018101516006546000908152600783526040808220858352600190810185529120825181546001600160a01b0319166001600160a01b039091161781559190920151910155806106f181610fa1565b91505061056d565b506006546040516001600160a01b03851691907f5fd655308280ca8f5b685114cfe87b25b8f728b401240adcc0a98e877e3e29cd90600090a36006805490600061074283610fa1565b9190505550505050565b3360009081526002602052604090205460ff1661077b5760405162461bcd60e51b815260040161045c90610f33565b6001600160a01b03166000908152600260205260409020805460ff19166001179055565b3360009081526002602052604090205460ff166107ce5760405162461bcd60e51b815260040161045c90610f33565b6000600354116108165760405162461bcd60e51b81526020600482015260136024820152724e6f7468696e6720746f20776974686472617760681b604482015260640161045c565b60035460405190815233907fd964a27d45f595739c13d8b1160b57491050cacf3a2e5602207277d6228f64ee9060200160405180910390a261085a33600354610cde565b6000600355565b3360009081526002602052604090205460ff166108905760405162461bcd60e51b815260040161045c90610f33565b6001600160a01b03166000908152602081905260409020805460ff19169055565b3360009081526002602052604090205460ff166108e05760405162461bcd60e51b815260040161045c90610f33565b6001600160a01b03166000908152600560209081526040808320805460ff19908116909155600490925290912080549091166001179055565b3360009081526002602052604090205460ff166109485760405162461bcd60e51b815260040161045c90610f33565b6001600160a01b03166000908152600460205260409020805460ff19169055565b3360009081526020819052604090205460ff166109d45760405162461bcd60e51b815260206004820152602360248201527f53656e646572206973206e6f742074686520617070726f76656420627573696e60448201526265737360e81b606482015260840161045c565b60008181526007602052604090205481906001600160a01b0316610a3a5760405162461bcd60e51b815260206004820152601a60248201527f5472616e73616374696f6e20646f65736e27742065786973742e000000000000604482015260640161045c565b600082815260076020526040902080546001600160a01b03163314610aaf5760405162461bcd60e51b815260206004820152602560248201527f546865207472616e73616374696f6e20697320666f7220616e6f7468657220636044820152641b1a595b9d60da1b606482015260840161045c565b600481015460ff1615610b045760405162461bcd60e51b815260206004820152601b60248201527f5472616e73616374696f6e206973207061696420616c72656164790000000000604482015260640161045c565b6000805b8260020154811015610b46576000818152600180850160205260409091200154610b329083610fbc565b915080610b3e81610fa1565b915050610b08565b5034826003015482610b589190610fbc565b1115610bbf5760405162461bcd60e51b815260206004820152603060248201527f5468652076616c7565206973206e6f7420656e6f75676820746f20636f76657260448201526f103a3432903a3930b739b0b1ba34b7b760811b606482015260840161045c565b60005b8260020154811015610c0a576000818152600180850160205260409091208054910154610bf8916001600160a01b031690610cde565b80610c0281610fa1565b915050610bc2565b5060048201805460ff19166001179055610c248134610fd4565b60036000828254610c359190610fbc565b909155505081546040516001600160a01b039091169085907f1048322214c2376910cb9740dec280cf85a1375be08c0db6dd0413edc8c49c8e90600090a350505050565b3360009081526002602052604090205460ff16610ca85760405162461bcd60e51b815260040161045c90610f33565b6001600160a01b03166000908152600160208181526040808420805460ff19908116909155918490529092208054909216179055565b6000826001600160a01b03168260405160006040518083038185875af1925050503d8060008114610d2b576040519150601f19603f3d011682016040523d82523d6000602084013e610d30565b606091505b5050905080610d785760405162461bcd60e51b81526020600482015260146024820152734661696c656420746f2073656e642066756e647360601b604482015260640161045c565b505050565b80356001600160a01b0381168114610d9457600080fd5b919050565b600060208284031215610dab57600080fd5b610db482610d7d565b9392505050565b634e487b7160e01b600052604160045260246000fd5b6040805190810167ffffffffffffffff81118282101715610df457610df4610dbb565b60405290565b604051601f8201601f1916810167ffffffffffffffff81118282101715610e2357610e23610dbb565b604052919050565b600080600060608486031215610e4057600080fd5b610e4984610d7d565b925060208085013567ffffffffffffffff80821115610e6757600080fd5b818701915087601f830112610e7b57600080fd5b813581811115610e8d57610e8d610dbb565b610e9b848260051b01610dfa565b818152848101925060069190911b830184019089821115610ebb57600080fd5b928401925b81841015610f05576040848b031215610ed95760008081fd5b610ee1610dd1565b610eea85610d7d565b81528486013586820152835260409093019291840191610ec0565b96999698505050506040949094013593505050565b600060208284031215610f2c57600080fd5b5035919050565b60208082526022908201527f53656e646572206973206e6f742074686520617070726f766564206d616e616760408201526132b960f11b606082015260800190565b634e487b7160e01b600052603260045260246000fd5b634e487b7160e01b600052601160045260246000fd5b6000600019821415610fb557610fb5610f8b565b5060010190565b60008219821115610fcf57610fcf610f8b565b500190565b600082821015610fe657610fe6610f8b565b50039056fea26469706673582212208a4d9096f87bfea001ac990dba9ca7f71c36db0117e186eda0549b3619cf568064736f6c63430008090033",
          "opcodes": "PUSH1 0x80 PUSH1 0x40 MSTORE CALLVALUE DUP1 ISZERO PUSH2 0x10 JUMPI PUSH1 0x0 DUP1 REVERT JUMPDEST POP PUSH1 0x40 MLOAD PUSH2 0x10B6 CODESIZE SUB DUP1 PUSH2 0x10B6 DUP4 CODECOPY DUP2 ADD PUSH1 0x40 DUP2 SWAP1 MSTORE PUSH2 0x2F SWAP2 PUSH2 0x56 JUMP JUMPDEST PUSH1 0x1 PUSH1 0x1 PUSH1 0xA0 SHL SUB AND PUSH1 0x0 SWAP1 DUP2 MSTORE PUSH1 0x2 PUSH1 0x20 MSTORE PUSH1 0x40 SWAP1 KECCAK256 DUP1 SLOAD PUSH1 0xFF NOT AND PUSH1 0x1 OR SWAP1 SSTORE PUSH2 0x86 JUMP JUMPDEST PUSH1 0x0 PUSH1 0x20 DUP3 DUP5 SUB SLT ISZERO PUSH2 0x68 JUMPI PUSH1 0x0 DUP1 REVERT JUMPDEST DUP2 MLOAD PUSH1 0x1 PUSH1 0x1 PUSH1 0xA0 SHL SUB DUP2 AND DUP2 EQ PUSH2 0x7F JUMPI PUSH1 0x0 DUP1 REVERT JUMPDEST SWAP4 SWAP3 POP POP POP JUMP JUMPDEST PUSH2 0x1021 DUP1 PUSH2 0x95 PUSH1 0x0 CODECOPY PUSH1 0x0 RETURN INVALID PUSH1 0x80 PUSH1 0x40 MSTORE PUSH1 0x4 CALLDATASIZE LT PUSH2 0x101 JUMPI PUSH1 0x0 CALLDATALOAD PUSH1 0xE0 SHR DUP1 PUSH4 0x9EC5A894 GT PUSH2 0x8F JUMPI DUP1 PUSH4 0xE81FFBEF GT PUSH2 0x61 JUMPI DUP1 PUSH4 0xE81FFBEF EQ PUSH2 0x384 JUMPI DUP1 PUSH4 0xEE22610B EQ PUSH2 0x3B4 JUMPI DUP1 PUSH4 0xF3AE2415 EQ PUSH2 0x3C7 JUMPI DUP1 PUSH4 0xFD99A746 EQ PUSH2 0x3F7 JUMPI DUP1 PUSH4 0xFDDD4387 EQ PUSH2 0x40D JUMPI STOP JUMPDEST DUP1 PUSH4 0x9EC5A894 EQ PUSH2 0x2CE JUMPI DUP1 PUSH4 0xABEFE591 EQ PUSH2 0x2F2 JUMPI DUP1 PUSH4 0xDB20A887 EQ PUSH2 0x312 JUMPI DUP1 PUSH4 0xE725A4BE EQ PUSH2 0x342 JUMPI STOP JUMPDEST DUP1 PUSH4 0x2D06177A GT PUSH2 0xD3 JUMPI DUP1 PUSH4 0x2D06177A EQ PUSH2 0x1DE JUMPI DUP1 PUSH4 0x3CCFD60B EQ PUSH2 0x1FE JUMPI DUP1 PUSH4 0x419B96FA EQ PUSH2 0x213 JUMPI DUP1 PUSH4 0x45810583 EQ PUSH2 0x233 JUMPI DUP1 PUSH4 0x9ACE38C2 EQ PUSH2 0x253 JUMPI STOP JUMPDEST DUP1 PUSH4 0x1466D019 EQ PUSH2 0x10A JUMPI DUP1 PUSH4 0x166CD850 EQ PUSH2 0x14F JUMPI DUP1 PUSH4 0x1702E2DC EQ PUSH2 0x18E JUMPI DUP1 PUSH4 0x27B616CD EQ PUSH2 0x1AE JUMPI STOP JUMPDEST CALLDATASIZE PUSH2 0x108 JUMPI STOP JUMPDEST STOP JUMPDEST CALLVALUE DUP1 ISZERO PUSH2 0x116 JUMPI PUSH1 0x0 DUP1 REVERT JUMPDEST POP PUSH2 0x13A PUSH2 0x125 CALLDATASIZE PUSH1 0x4 PUSH2 0xD99 JUMP JUMPDEST PUSH1 0x0 PUSH1 0x20 DUP2 SWAP1 MSTORE SWAP1 DUP2 MSTORE PUSH1 0x40 SWAP1 KECCAK256 SLOAD PUSH1 0xFF AND DUP2 JUMP JUMPDEST PUSH1 0x40 MLOAD SWAP1 ISZERO ISZERO DUP2 MSTORE PUSH1 0x20 ADD JUMPDEST PUSH1 0x40 MLOAD DUP1 SWAP2 SUB SWAP1 RETURN JUMPDEST CALLVALUE DUP1 ISZERO PUSH2 0x15B JUMPI PUSH1 0x0 DUP1 REVERT JUMPDEST POP PUSH2 0x108 PUSH2 0x16A CALLDATASIZE PUSH1 0x4 PUSH2 0xD99 JUMP JUMPDEST PUSH1 0x1 PUSH1 0x1 PUSH1 0xA0 SHL SUB AND PUSH1 0x0 SWAP1 DUP2 MSTORE PUSH1 0x5 PUSH1 0x20 MSTORE PUSH1 0x40 SWAP1 KECCAK256 DUP1 SLOAD PUSH1 0xFF NOT AND PUSH1 0x1 OR SWAP1 SSTORE JUMP JUMPDEST CALLVALUE DUP1 ISZERO PUSH2 0x19A JUMPI PUSH1 0x0 DUP1 REVERT JUMPDEST POP PUSH2 0x108 PUSH2 0x1A9 CALLDATASIZE PUSH1 0x4 PUSH2 0xE2B JUMP JUMPDEST PUSH2 0x42D JUMP JUMPDEST CALLVALUE DUP1 ISZERO PUSH2 0x1BA JUMPI PUSH1 0x0 DUP1 REVERT JUMPDEST POP PUSH2 0x13A PUSH2 0x1C9 CALLDATASIZE PUSH1 0x4 PUSH2 0xD99 JUMP JUMPDEST PUSH1 0x1 PUSH1 0x20 MSTORE PUSH1 0x0 SWAP1 DUP2 MSTORE PUSH1 0x40 SWAP1 KECCAK256 SLOAD PUSH1 0xFF AND DUP2 JUMP JUMPDEST CALLVALUE DUP1 ISZERO PUSH2 0x1EA JUMPI PUSH1 0x0 DUP1 REVERT JUMPDEST POP PUSH2 0x108 PUSH2 0x1F9 CALLDATASIZE PUSH1 0x4 PUSH2 0xD99 JUMP JUMPDEST PUSH2 0x74C JUMP JUMPDEST CALLVALUE DUP1 ISZERO PUSH2 0x20A JUMPI PUSH1 0x0 DUP1 REVERT JUMPDEST POP PUSH2 0x108 PUSH2 0x79F JUMP JUMPDEST CALLVALUE DUP1 ISZERO PUSH2 0x21F JUMPI PUSH1 0x0 DUP1 REVERT JUMPDEST POP PUSH2 0x108 PUSH2 0x22E CALLDATASIZE PUSH1 0x4 PUSH2 0xD99 JUMP JUMPDEST PUSH2 0x861 JUMP JUMPDEST CALLVALUE DUP1 ISZERO PUSH2 0x23F JUMPI PUSH1 0x0 DUP1 REVERT JUMPDEST POP PUSH2 0x108 PUSH2 0x24E CALLDATASIZE PUSH1 0x4 PUSH2 0xD99 JUMP JUMPDEST PUSH2 0x8B1 JUMP JUMPDEST CALLVALUE DUP1 ISZERO PUSH2 0x25F JUMPI PUSH1 0x0 DUP1 REVERT JUMPDEST POP PUSH2 0x2A2 PUSH2 0x26E CALLDATASIZE PUSH1 0x4 PUSH2 0xF1A JUMP JUMPDEST PUSH1 0x7 PUSH1 0x20 MSTORE PUSH1 0x0 SWAP1 DUP2 MSTORE PUSH1 0x40 SWAP1 KECCAK256 DUP1 SLOAD PUSH1 0x2 DUP3 ADD SLOAD PUSH1 0x3 DUP4 ADD SLOAD PUSH1 0x4 SWAP1 SWAP4 ADD SLOAD PUSH1 0x1 PUSH1 0x1 PUSH1 0xA0 SHL SUB SWAP1 SWAP3 AND SWAP3 SWAP1 SWAP2 PUSH1 0xFF AND DUP5 JUMP JUMPDEST PUSH1 0x40 DUP1 MLOAD PUSH1 0x1 PUSH1 0x1 PUSH1 0xA0 SHL SUB SWAP1 SWAP6 AND DUP6 MSTORE PUSH1 0x20 DUP6 ADD SWAP4 SWAP1 SWAP4 MSTORE SWAP2 DUP4 ADD MSTORE ISZERO ISZERO PUSH1 0x60 DUP3 ADD MSTORE PUSH1 0x80 ADD PUSH2 0x146 JUMP JUMPDEST CALLVALUE DUP1 ISZERO PUSH2 0x2DA JUMPI PUSH1 0x0 DUP1 REVERT JUMPDEST POP PUSH2 0x2E4 PUSH1 0x3 SLOAD DUP2 JUMP JUMPDEST PUSH1 0x40 MLOAD SWAP1 DUP2 MSTORE PUSH1 0x20 ADD PUSH2 0x146 JUMP JUMPDEST CALLVALUE DUP1 ISZERO PUSH2 0x2FE JUMPI PUSH1 0x0 DUP1 REVERT JUMPDEST POP PUSH2 0x108 PUSH2 0x30D CALLDATASIZE PUSH1 0x4 PUSH2 0xD99 JUMP JUMPDEST PUSH2 0x919 JUMP JUMPDEST CALLVALUE DUP1 ISZERO PUSH2 0x31E JUMPI PUSH1 0x0 DUP1 REVERT JUMPDEST POP PUSH2 0x13A PUSH2 0x32D CALLDATASIZE PUSH1 0x4 PUSH2 0xD99 JUMP JUMPDEST PUSH1 0x5 PUSH1 0x20 MSTORE PUSH1 0x0 SWAP1 DUP2 MSTORE PUSH1 0x40 SWAP1 KECCAK256 SLOAD PUSH1 0xFF AND DUP2 JUMP JUMPDEST CALLVALUE DUP1 ISZERO PUSH2 0x34E JUMPI PUSH1 0x0 DUP1 REVERT JUMPDEST POP PUSH2 0x108 PUSH2 0x35D CALLDATASIZE PUSH1 0x4 PUSH2 0xD99 JUMP JUMPDEST PUSH1 0x1 PUSH1 0x1 PUSH1 0xA0 SHL SUB AND PUSH1 0x0 SWAP1 DUP2 MSTORE PUSH1 0x1 PUSH1 0x20 DUP2 SWAP1 MSTORE PUSH1 0x40 SWAP1 SWAP2 KECCAK256 DUP1 SLOAD PUSH1 0xFF NOT AND SWAP1 SWAP2 OR SWAP1 SSTORE JUMP JUMPDEST CALLVALUE DUP1 ISZERO PUSH2 0x390 JUMPI PUSH1 0x0 DUP1 REVERT JUMPDEST POP PUSH2 0x13A PUSH2 0x39F CALLDATASIZE PUSH1 0x4 PUSH2 0xD99 JUMP JUMPDEST PUSH1 0x4 PUSH1 0x20 MSTORE PUSH1 0x0 SWAP1 DUP2 MSTORE PUSH1 0x40 SWAP1 KECCAK256 SLOAD PUSH1 0xFF AND DUP2 JUMP JUMPDEST PUSH2 0x108 PUSH2 0x3C2 CALLDATASIZE PUSH1 0x4 PUSH2 0xF1A JUMP JUMPDEST PUSH2 0x969 JUMP JUMPDEST CALLVALUE DUP1 ISZERO PUSH2 0x3D3 JUMPI PUSH1 0x0 DUP1 REVERT JUMPDEST POP PUSH2 0x13A PUSH2 0x3E2 CALLDATASIZE PUSH1 0x4 PUSH2 0xD99 JUMP JUMPDEST PUSH1 0x2 PUSH1 0x20 MSTORE PUSH1 0x0 SWAP1 DUP2 MSTORE PUSH1 0x40 SWAP1 KECCAK256 SLOAD PUSH1 0xFF AND DUP2 JUMP JUMPDEST CALLVALUE DUP1 ISZERO PUSH2 0x403 JUMPI PUSH1 0x0 DUP1 REVERT JUMPDEST POP PUSH2 0x2E4 PUSH1 0x6 SLOAD DUP2 JUMP JUMPDEST CALLVALUE DUP1 ISZERO PUSH2 0x419 JUMPI PUSH1 0x0 DUP1 REVERT JUMPDEST POP PUSH2 0x108 PUSH2 0x428 CALLDATASIZE PUSH1 0x4 PUSH2 0xD99 JUMP JUMPDEST PUSH2 0xC79 JUMP JUMPDEST CALLER PUSH1 0x0 SWAP1 DUP2 MSTORE PUSH1 0x2 PUSH1 0x20 MSTORE PUSH1 0x40 SWAP1 KECCAK256 SLOAD PUSH1 0xFF AND PUSH2 0x465 JUMPI PUSH1 0x40 MLOAD PUSH3 0x461BCD PUSH1 0xE5 SHL DUP2 MSTORE PUSH1 0x4 ADD PUSH2 0x45C SWAP1 PUSH2 0xF33 JUMP JUMPDEST PUSH1 0x40 MLOAD DUP1 SWAP2 SUB SWAP1 REVERT JUMPDEST PUSH1 0x0 DUP3 MLOAD GT PUSH2 0x4AC JUMPI PUSH1 0x40 MLOAD PUSH3 0x461BCD PUSH1 0xE5 SHL DUP2 MSTORE PUSH1 0x20 PUSH1 0x4 DUP3 ADD MSTORE PUSH1 0x13 PUSH1 0x24 DUP3 ADD MSTORE PUSH19 0x4368617269746965732061726520656D707479 PUSH1 0x68 SHL PUSH1 0x44 DUP3 ADD MSTORE PUSH1 0x64 ADD PUSH2 0x45C JUMP JUMPDEST PUSH1 0x1 PUSH1 0x1 PUSH1 0xA0 SHL SUB DUP4 AND PUSH1 0x0 SWAP1 DUP2 MSTORE PUSH1 0x20 DUP2 SWAP1 MSTORE PUSH1 0x40 SWAP1 KECCAK256 SLOAD PUSH1 0xFF AND PUSH2 0x514 JUMPI PUSH1 0x40 MLOAD PUSH3 0x461BCD PUSH1 0xE5 SHL DUP2 MSTORE PUSH1 0x20 PUSH1 0x4 DUP3 ADD MSTORE PUSH1 0x18 PUSH1 0x24 DUP3 ADD MSTORE PUSH32 0x436C69656E74206973206E6F74206F757220636C69656E740000000000000000 PUSH1 0x44 DUP3 ADD MSTORE PUSH1 0x64 ADD PUSH2 0x45C JUMP JUMPDEST PUSH1 0x6 DUP1 SLOAD PUSH1 0x0 SWAP1 DUP2 MSTORE PUSH1 0x7 PUSH1 0x20 MSTORE PUSH1 0x40 DUP1 DUP3 KECCAK256 DUP1 SLOAD PUSH1 0x1 PUSH1 0x1 PUSH1 0xA0 SHL SUB NOT AND PUSH1 0x1 PUSH1 0x1 PUSH1 0xA0 SHL SUB DUP9 AND OR SWAP1 SSTORE DUP3 SLOAD DUP3 MSTORE DUP1 DUP3 KECCAK256 PUSH1 0x3 ADD DUP5 SWAP1 SSTORE DUP5 MLOAD DUP4 SLOAD DUP4 MSTORE DUP2 DUP4 KECCAK256 PUSH1 0x2 ADD SSTORE SWAP2 SLOAD DUP2 MSTORE SWAP1 DUP2 KECCAK256 PUSH1 0x4 ADD DUP1 SLOAD PUSH1 0xFF NOT AND SWAP1 SSTORE JUMPDEST DUP3 MLOAD DUP2 LT ISZERO PUSH2 0x6F9 JUMPI PUSH1 0x4 PUSH1 0x0 DUP5 DUP4 DUP2 MLOAD DUP2 LT PUSH2 0x58C JUMPI PUSH2 0x58C PUSH2 0xF75 JUMP JUMPDEST PUSH1 0x20 SWAP1 DUP2 MUL SWAP2 SWAP1 SWAP2 ADD DUP2 ADD MLOAD MLOAD PUSH1 0x1 PUSH1 0x1 PUSH1 0xA0 SHL SUB AND DUP3 MSTORE DUP2 ADD SWAP2 SWAP1 SWAP2 MSTORE PUSH1 0x40 ADD PUSH1 0x0 KECCAK256 SLOAD PUSH1 0xFF AND PUSH2 0x61B JUMPI PUSH1 0x40 MLOAD PUSH3 0x461BCD PUSH1 0xE5 SHL DUP2 MSTORE PUSH1 0x20 PUSH1 0x4 DUP3 ADD MSTORE PUSH1 0x32 PUSH1 0x24 DUP3 ADD MSTORE PUSH32 0x4F6E65206F66207468652064657374696E6174696F6E73206973206E6F742061 PUSH1 0x44 DUP3 ADD MSTORE PUSH18 0x6E20617070726F7665642063686172697479 PUSH1 0x70 SHL PUSH1 0x64 DUP3 ADD MSTORE PUSH1 0x84 ADD PUSH2 0x45C JUMP JUMPDEST PUSH1 0x0 DUP4 DUP3 DUP2 MLOAD DUP2 LT PUSH2 0x62F JUMPI PUSH2 0x62F PUSH2 0xF75 JUMP JUMPDEST PUSH1 0x20 MUL PUSH1 0x20 ADD ADD MLOAD PUSH1 0x20 ADD MLOAD GT PUSH2 0x688 JUMPI PUSH1 0x40 MLOAD PUSH3 0x461BCD PUSH1 0xE5 SHL DUP2 MSTORE PUSH1 0x20 PUSH1 0x4 DUP3 ADD MSTORE PUSH1 0x1C PUSH1 0x24 DUP3 ADD MSTORE PUSH32 0x446F6E6174696F6E732073686F756C64206265206E6F6E2D7A65726F00000000 PUSH1 0x44 DUP3 ADD MSTORE PUSH1 0x64 ADD PUSH2 0x45C JUMP JUMPDEST DUP3 DUP2 DUP2 MLOAD DUP2 LT PUSH2 0x69A JUMPI PUSH2 0x69A PUSH2 0xF75 JUMP JUMPDEST PUSH1 0x20 SWAP1 DUP2 MUL SWAP2 SWAP1 SWAP2 ADD DUP2 ADD MLOAD PUSH1 0x6 SLOAD PUSH1 0x0 SWAP1 DUP2 MSTORE PUSH1 0x7 DUP4 MSTORE PUSH1 0x40 DUP1 DUP3 KECCAK256 DUP6 DUP4 MSTORE PUSH1 0x1 SWAP1 DUP2 ADD DUP6 MSTORE SWAP2 KECCAK256 DUP3 MLOAD DUP2 SLOAD PUSH1 0x1 PUSH1 0x1 PUSH1 0xA0 SHL SUB NOT AND PUSH1 0x1 PUSH1 0x1 PUSH1 0xA0 SHL SUB SWAP1 SWAP2 AND OR DUP2 SSTORE SWAP2 SWAP1 SWAP3 ADD MLOAD SWAP2 ADD SSTORE DUP1 PUSH2 0x6F1 DUP2 PUSH2 0xFA1 JUMP JUMPDEST SWAP2 POP POP PUSH2 0x56D JUMP JUMPDEST POP PUSH1 0x6 SLOAD PUSH1 0x40 MLOAD PUSH1 0x1 PUSH1 0x1 PUSH1 0xA0 SHL SUB DUP6 AND SWAP2 SWAP1 PUSH32 0x5FD655308280CA8F5B685114CFE87B25B8F728B401240ADCC0A98E877E3E29CD SWAP1 PUSH1 0x0 SWAP1 LOG3 PUSH1 0x6 DUP1 SLOAD SWAP1 PUSH1 0x0 PUSH2 0x742 DUP4 PUSH2 0xFA1 JUMP JUMPDEST SWAP2 SWAP1 POP SSTORE POP POP POP POP JUMP JUMPDEST CALLER PUSH1 0x0 SWAP1 DUP2 MSTORE PUSH1 0x2 PUSH1 0x20 MSTORE PUSH1 0x40 SWAP1 KECCAK256 SLOAD PUSH1 0xFF AND PUSH2 0x77B JUMPI PUSH1 0x40 MLOAD PUSH3 0x461BCD PUSH1 0xE5 SHL DUP2 MSTORE PUSH1 0x4 ADD PUSH2 0x45C SWAP1 PUSH2 0xF33 JUMP JUMPDEST PUSH1 0x1 PUSH1 0x1 PUSH1 0xA0 SHL SUB AND PUSH1 0x0 SWAP1 DUP2 MSTORE PUSH1 0x2 PUSH1 0x20 MSTORE PUSH1 0x40 SWAP1 KECCAK256 DUP1 SLOAD PUSH1 0xFF NOT AND PUSH1 0x1 OR SWAP1 SSTORE JUMP JUMPDEST CALLER PUSH1 0x0 SWAP1 DUP2 MSTORE PUSH1 0x2 PUSH1 0x20 MSTORE PUSH1 0x40 SWAP1 KECCAK256 SLOAD PUSH1 0xFF AND PUSH2 0x7CE JUMPI PUSH1 0x40 MLOAD PUSH3 0x461BCD PUSH1 0xE5 SHL DUP2 MSTORE PUSH1 0x4 ADD PUSH2 0x45C SWAP1 PUSH2 0xF33 JUMP JUMPDEST PUSH1 0x0 PUSH1 0x3 SLOAD GT PUSH2 0x816 JUMPI PUSH1 0x40 MLOAD PUSH3 0x461BCD PUSH1 0xE5 SHL DUP2 MSTORE PUSH1 0x20 PUSH1 0x4 DUP3 ADD MSTORE PUSH1 0x13 PUSH1 0x24 DUP3 ADD MSTORE PUSH19 0x4E6F7468696E6720746F207769746864726177 PUSH1 0x68 SHL PUSH1 0x44 DUP3 ADD MSTORE PUSH1 0x64 ADD PUSH2 0x45C JUMP JUMPDEST PUSH1 0x3 SLOAD PUSH1 0x40 MLOAD SWAP1 DUP2 MSTORE CALLER SWAP1 PUSH32 0xD964A27D45F595739C13D8B1160B57491050CACF3A2E5602207277D6228F64EE SWAP1 PUSH1 0x20 ADD PUSH1 0x40 MLOAD DUP1 SWAP2 SUB SWAP1 LOG2 PUSH2 0x85A CALLER PUSH1 0x3 SLOAD PUSH2 0xCDE JUMP JUMPDEST PUSH1 0x0 PUSH1 0x3 SSTORE JUMP JUMPDEST CALLER PUSH1 0x0 SWAP1 DUP2 MSTORE PUSH1 0x2 PUSH1 0x20 MSTORE PUSH1 0x40 SWAP1 KECCAK256 SLOAD PUSH1 0xFF AND PUSH2 0x890 JUMPI PUSH1 0x40 MLOAD PUSH3 0x461BCD PUSH1 0xE5 SHL DUP2 MSTORE PUSH1 0x4 ADD PUSH2 0x45C SWAP1 PUSH2 0xF33 JUMP JUMPDEST PUSH1 0x1 PUSH1 0x1 PUSH1 0xA0 SHL SUB AND PUSH1 0x0 SWAP1 DUP2 MSTORE PUSH1 0x20 DUP2 SWAP1 MSTORE PUSH1 0x40 SWAP1 KECCAK256 DUP1 SLOAD PUSH1 0xFF NOT AND SWAP1 SSTORE JUMP JUMPDEST CALLER PUSH1 0x0 SWAP1 DUP2 MSTORE PUSH1 0x2 PUSH1 0x20 MSTORE PUSH1 0x40 SWAP1 KECCAK256 SLOAD PUSH1 0xFF AND PUSH2 0x8E0 JUMPI PUSH1 0x40 MLOAD PUSH3 0x461BCD PUSH1 0xE5 SHL DUP2 MSTORE PUSH1 0x4 ADD PUSH2 0x45C SWAP1 PUSH2 0xF33 JUMP JUMPDEST PUSH1 0x1 PUSH1 0x1 PUSH1 0xA0 SHL SUB AND PUSH1 0x0 SWAP1 DUP2 MSTORE PUSH1 0x5 PUSH1 0x20 SWAP1 DUP2 MSTORE PUSH1 0x40 DUP1 DUP4 KECCAK256 DUP1 SLOAD PUSH1 0xFF NOT SWAP1 DUP2 AND SWAP1 SWAP2 SSTORE PUSH1 0x4 SWAP1 SWAP3 MSTORE SWAP1 SWAP2 KECCAK256 DUP1 SLOAD SWAP1 SWAP2 AND PUSH1 0x1 OR SWAP1 SSTORE JUMP JUMPDEST CALLER PUSH1 0x0 SWAP1 DUP2 MSTORE PUSH1 0x2 PUSH1 0x20 MSTORE PUSH1 0x40 SWAP1 KECCAK256 SLOAD PUSH1 0xFF AND PUSH2 0x948 JUMPI PUSH1 0x40 MLOAD PUSH3 0x461BCD PUSH1 0xE5 SHL DUP2 MSTORE PUSH1 0x4 ADD PUSH2 0x45C SWAP1 PUSH2 0xF33 JUMP JUMPDEST PUSH1 0x1 PUSH1 0x1 PUSH1 0xA0 SHL SUB AND PUSH1 0x0 SWAP1 DUP2 MSTORE PUSH1 0x4 PUSH1 0x20 MSTORE PUSH1 0x40 SWAP1 KECCAK256 DUP1 SLOAD PUSH1 0xFF NOT AND SWAP1 SSTORE JUMP JUMPDEST CALLER PUSH1 0x0 SWAP1 DUP2 MSTORE PUSH1 0x20 DUP2 SWAP1 MSTORE PUSH1 0x40 SWAP1 KECCAK256 SLOAD PUSH1 0xFF AND PUSH2 0x9D4 JUMPI PUSH1 0x40 MLOAD PUSH3 0x461BCD PUSH1 0xE5 SHL DUP2 MSTORE PUSH1 0x20 PUSH1 0x4 DUP3 ADD MSTORE PUSH1 0x23 PUSH1 0x24 DUP3 ADD MSTORE PUSH32 0x53656E646572206973206E6F742074686520617070726F76656420627573696E PUSH1 0x44 DUP3 ADD MSTORE PUSH3 0x657373 PUSH1 0xE8 SHL PUSH1 0x64 DUP3 ADD MSTORE PUSH1 0x84 ADD PUSH2 0x45C JUMP JUMPDEST PUSH1 0x0 DUP2 DUP2 MSTORE PUSH1 0x7 PUSH1 0x20 MSTORE PUSH1 0x40 SWAP1 KECCAK256 SLOAD DUP2 SWAP1 PUSH1 0x1 PUSH1 0x1 PUSH1 0xA0 SHL SUB AND PUSH2 0xA3A JUMPI PUSH1 0x40 MLOAD PUSH3 0x461BCD PUSH1 0xE5 SHL DUP2 MSTORE PUSH1 0x20 PUSH1 0x4 DUP3 ADD MSTORE PUSH1 0x1A PUSH1 0x24 DUP3 ADD MSTORE PUSH32 0x5472616E73616374696F6E20646F65736E27742065786973742E000000000000 PUSH1 0x44 DUP3 ADD MSTORE PUSH1 0x64 ADD PUSH2 0x45C JUMP JUMPDEST PUSH1 0x0 DUP3 DUP2 MSTORE PUSH1 0x7 PUSH1 0x20 MSTORE PUSH1 0x40 SWAP1 KECCAK256 DUP1 SLOAD PUSH1 0x1 PUSH1 0x1 PUSH1 0xA0 SHL SUB AND CALLER EQ PUSH2 0xAAF JUMPI PUSH1 0x40 MLOAD PUSH3 0x461BCD PUSH1 0xE5 SHL DUP2 MSTORE PUSH1 0x20 PUSH1 0x4 DUP3 ADD MSTORE PUSH1 0x25 PUSH1 0x24 DUP3 ADD MSTORE PUSH32 0x546865207472616E73616374696F6E20697320666F7220616E6F746865722063 PUSH1 0x44 DUP3 ADD MSTORE PUSH5 0x1B1A595B9D PUSH1 0xDA SHL PUSH1 0x64 DUP3 ADD MSTORE PUSH1 0x84 ADD PUSH2 0x45C JUMP JUMPDEST PUSH1 0x4 DUP2 ADD SLOAD PUSH1 0xFF AND ISZERO PUSH2 0xB04 JUMPI PUSH1 0x40 MLOAD PUSH3 0x461BCD PUSH1 0xE5 SHL DUP2 MSTORE PUSH1 0x20 PUSH1 0x4 DUP3 ADD MSTORE PUSH1 0x1B PUSH1 0x24 DUP3 ADD MSTORE PUSH32 0x5472616E73616374696F6E206973207061696420616C72656164790000000000 PUSH1 0x44 DUP3 ADD MSTORE PUSH1 0x64 ADD PUSH2 0x45C JUMP JUMPDEST PUSH1 0x0 DUP1 JUMPDEST DUP3 PUSH1 0x2 ADD SLOAD DUP2 LT ISZERO PUSH2 0xB46 JUMPI PUSH1 0x0 DUP2 DUP2 MSTORE PUSH1 0x1 DUP1 DUP6 ADD PUSH1 0x20 MSTORE PUSH1 0x40 SWAP1 SWAP2 KECCAK256 ADD SLOAD PUSH2 0xB32 SWAP1 DUP4 PUSH2 0xFBC JUMP JUMPDEST SWAP2 POP DUP1 PUSH2 0xB3E DUP2 PUSH2 0xFA1 JUMP JUMPDEST SWAP2 POP POP PUSH2 0xB08 JUMP JUMPDEST POP CALLVALUE DUP3 PUSH1 0x3 ADD SLOAD DUP3 PUSH2 0xB58 SWAP2 SWAP1 PUSH2 0xFBC JUMP JUMPDEST GT ISZERO PUSH2 0xBBF JUMPI PUSH1 0x40 MLOAD PUSH3 0x461BCD PUSH1 0xE5 SHL DUP2 MSTORE PUSH1 0x20 PUSH1 0x4 DUP3 ADD MSTORE PUSH1 0x30 PUSH1 0x24 DUP3 ADD MSTORE PUSH32 0x5468652076616C7565206973206E6F7420656E6F75676820746F20636F766572 PUSH1 0x44 DUP3 ADD MSTORE PUSH16 0x103A3432903A3930B739B0B1BA34B7B7 PUSH1 0x81 SHL PUSH1 0x64 DUP3 ADD MSTORE PUSH1 0x84 ADD PUSH2 0x45C JUMP JUMPDEST PUSH1 0x0 JUMPDEST DUP3 PUSH1 0x2 ADD SLOAD DUP2 LT ISZERO PUSH2 0xC0A JUMPI PUSH1 0x0 DUP2 DUP2 MSTORE PUSH1 0x1 DUP1 DUP6 ADD PUSH1 0x20 MSTORE PUSH1 0x40 SWAP1 SWAP2 KECCAK256 DUP1 SLOAD SWAP2 ADD SLOAD PUSH2 0xBF8 SWAP2 PUSH1 0x1 PUSH1 0x1 PUSH1 0xA0 SHL SUB AND SWAP1 PUSH2 0xCDE JUMP JUMPDEST DUP1 PUSH2 0xC02 DUP2 PUSH2 0xFA1 JUMP JUMPDEST SWAP2 POP POP PUSH2 0xBC2 JUMP JUMPDEST POP PUSH1 0x4 DUP3 ADD DUP1 SLOAD PUSH1 0xFF NOT AND PUSH1 0x1 OR SWAP1 SSTORE PUSH2 0xC24 DUP2 CALLVALUE PUSH2 0xFD4 JUMP JUMPDEST PUSH1 0x3 PUSH1 0x0 DUP3 DUP3 SLOAD PUSH2 0xC35 SWAP2 SWAP1 PUSH2 0xFBC JUMP JUMPDEST SWAP1 SWAP2 SSTORE POP POP DUP2 SLOAD PUSH1 0x40 MLOAD PUSH1 0x1 PUSH1 0x1 PUSH1 0xA0 SHL SUB SWAP1 SWAP2 AND SWAP1 DUP6 SWAP1 PUSH32 0x1048322214C2376910CB9740DEC280CF85A1375BE08C0DB6DD0413EDC8C49C8E SWAP1 PUSH1 0x0 SWAP1 LOG3 POP POP POP POP JUMP JUMPDEST CALLER PUSH1 0x0 SWAP1 DUP2 MSTORE PUSH1 0x2 PUSH1 0x20 MSTORE PUSH1 0x40 SWAP1 KECCAK256 SLOAD PUSH1 0xFF AND PUSH2 0xCA8 JUMPI PUSH1 0x40 MLOAD PUSH3 0x461BCD PUSH1 0xE5 SHL DUP2 MSTORE PUSH1 0x4 ADD PUSH2 0x45C SWAP1 PUSH2 0xF33 JUMP JUMPDEST PUSH1 0x1 PUSH1 0x1 PUSH1 0xA0 SHL SUB AND PUSH1 0x0 SWAP1 DUP2 MSTORE PUSH1 0x1 PUSH1 0x20 DUP2 DUP2 MSTORE PUSH1 0x40 DUP1 DUP5 KECCAK256 DUP1 SLOAD PUSH1 0xFF NOT SWAP1 DUP2 AND SWAP1 SWAP2 SSTORE SWAP2 DUP5 SWAP1 MSTORE SWAP1 SWAP3 KECCAK256 DUP1 SLOAD SWAP1 SWAP3 AND OR SWAP1 SSTORE JUMP JUMPDEST PUSH1 0x0 DUP3 PUSH1 0x1 PUSH1 0x1 PUSH1 0xA0 SHL SUB AND DUP3 PUSH1 0x40 MLOAD PUSH1 0x0 PUSH1 0x40 MLOAD DUP1 DUP4 SUB DUP2 DUP6 DUP8 GAS CALL SWAP3 POP POP POP RETURNDATASIZE DUP1 PUSH1 0x0 DUP2 EQ PUSH2 0xD2B JUMPI PUSH1 0x40 MLOAD SWAP2 POP PUSH1 0x1F NOT PUSH1 0x3F RETURNDATASIZE ADD AND DUP3 ADD PUSH1 0x40 MSTORE RETURNDATASIZE DUP3 MSTORE RETURNDATASIZE PUSH1 0x0 PUSH1 0x20 DUP5 ADD RETURNDATACOPY PUSH2 0xD30 JUMP JUMPDEST PUSH1 0x60 SWAP2 POP JUMPDEST POP POP SWAP1 POP DUP1 PUSH2 0xD78 JUMPI PUSH1 0x40 MLOAD PUSH3 0x461BCD PUSH1 0xE5 SHL DUP2 MSTORE PUSH1 0x20 PUSH1 0x4 DUP3 ADD MSTORE PUSH1 0x14 PUSH1 0x24 DUP3 ADD MSTORE PUSH20 0x4661696C656420746F2073656E642066756E6473 PUSH1 0x60 SHL PUSH1 0x44 DUP3 ADD MSTORE PUSH1 0x64 ADD PUSH2 0x45C JUMP JUMPDEST POP POP POP JUMP JUMPDEST DUP1 CALLDATALOAD PUSH1 0x1 PUSH1 0x1 PUSH1 0xA0 SHL SUB DUP2 AND DUP2 EQ PUSH2 0xD94 JUMPI PUSH1 0x0 DUP1 REVERT JUMPDEST SWAP2 SWAP1 POP JUMP JUMPDEST PUSH1 0x0 PUSH1 0x20 DUP3 DUP5 SUB SLT ISZERO PUSH2 0xDAB JUMPI PUSH1 0x0 DUP1 REVERT JUMPDEST PUSH2 0xDB4 DUP3 PUSH2 0xD7D JUMP JUMPDEST SWAP4 SWAP3 POP POP POP JUMP JUMPDEST PUSH4 0x4E487B71 PUSH1 0xE0 SHL PUSH1 0x0 MSTORE PUSH1 0x41 PUSH1 0x4 MSTORE PUSH1 0x24 PUSH1 0x0 REVERT JUMPDEST PUSH1 0x40 DUP1 MLOAD SWAP1 DUP2 ADD PUSH8 0xFFFFFFFFFFFFFFFF DUP2 GT DUP3 DUP3 LT OR ISZERO PUSH2 0xDF4 JUMPI PUSH2 0xDF4 PUSH2 0xDBB JUMP JUMPDEST PUSH1 0x40 MSTORE SWAP1 JUMP JUMPDEST PUSH1 0x40 MLOAD PUSH1 0x1F DUP3 ADD PUSH1 0x1F NOT AND DUP2 ADD PUSH8 0xFFFFFFFFFFFFFFFF DUP2 GT DUP3 DUP3 LT OR ISZERO PUSH2 0xE23 JUMPI PUSH2 0xE23 PUSH2 0xDBB JUMP JUMPDEST PUSH1 0x40 MSTORE SWAP2 SWAP1 POP JUMP JUMPDEST PUSH1 0x0 DUP1 PUSH1 0x0 PUSH1 0x60 DUP5 DUP7 SUB SLT ISZERO PUSH2 0xE40 JUMPI PUSH1 0x0 DUP1 REVERT JUMPDEST PUSH2 0xE49 DUP5 PUSH2 0xD7D JUMP JUMPDEST SWAP3 POP PUSH1 0x20 DUP1 DUP6 ADD CALLDATALOAD PUSH8 0xFFFFFFFFFFFFFFFF DUP1 DUP3 GT ISZERO PUSH2 0xE67 JUMPI PUSH1 0x0 DUP1 REVERT JUMPDEST DUP2 DUP8 ADD SWAP2 POP DUP8 PUSH1 0x1F DUP4 ADD SLT PUSH2 0xE7B JUMPI PUSH1 0x0 DUP1 REVERT JUMPDEST DUP2 CALLDATALOAD DUP2 DUP2 GT ISZERO PUSH2 0xE8D JUMPI PUSH2 0xE8D PUSH2 0xDBB JUMP JUMPDEST PUSH2 0xE9B DUP5 DUP3 PUSH1 0x5 SHL ADD PUSH2 0xDFA JUMP JUMPDEST DUP2 DUP2 MSTORE DUP5 DUP2 ADD SWAP3 POP PUSH1 0x6 SWAP2 SWAP1 SWAP2 SHL DUP4 ADD DUP5 ADD SWAP1 DUP10 DUP3 GT ISZERO PUSH2 0xEBB JUMPI PUSH1 0x0 DUP1 REVERT JUMPDEST SWAP3 DUP5 ADD SWAP3 JUMPDEST DUP2 DUP5 LT ISZERO PUSH2 0xF05 JUMPI PUSH1 0x40 DUP5 DUP12 SUB SLT ISZERO PUSH2 0xED9 JUMPI PUSH1 0x0 DUP1 DUP2 REVERT JUMPDEST PUSH2 0xEE1 PUSH2 0xDD1 JUMP JUMPDEST PUSH2 0xEEA DUP6 PUSH2 0xD7D JUMP JUMPDEST DUP2 MSTORE DUP5 DUP7 ADD CALLDATALOAD DUP7 DUP3 ADD MSTORE DUP4 MSTORE PUSH1 0x40 SWAP1 SWAP4 ADD SWAP3 SWAP2 DUP5 ADD SWAP2 PUSH2 0xEC0 JUMP JUMPDEST SWAP7 SWAP10 SWAP7 SWAP9 POP POP POP POP PUSH1 0x40 SWAP5 SWAP1 SWAP5 ADD CALLDATALOAD SWAP4 POP POP POP JUMP JUMPDEST PUSH1 0x0 PUSH1 0x20 DUP3 DUP5 SUB SLT ISZERO PUSH2 0xF2C JUMPI PUSH1 0x0 DUP1 REVERT JUMPDEST POP CALLDATALOAD SWAP2 SWAP1 POP JUMP JUMPDEST PUSH1 0x20 DUP1 DUP3 MSTORE PUSH1 0x22 SWAP1 DUP3 ADD MSTORE PUSH32 0x53656E646572206973206E6F742074686520617070726F766564206D616E6167 PUSH1 0x40 DUP3 ADD MSTORE PUSH2 0x32B9 PUSH1 0xF1 SHL PUSH1 0x60 DUP3 ADD MSTORE PUSH1 0x80 ADD SWAP1 JUMP JUMPDEST PUSH4 0x4E487B71 PUSH1 0xE0 SHL PUSH1 0x0 MSTORE PUSH1 0x32 PUSH1 0x4 MSTORE PUSH1 0x24 PUSH1 0x0 REVERT JUMPDEST PUSH4 0x4E487B71 PUSH1 0xE0 SHL PUSH1 0x0 MSTORE PUSH1 0x11 PUSH1 0x4 MSTORE PUSH1 0x24 PUSH1 0x0 REVERT JUMPDEST PUSH1 0x0 PUSH1 0x0 NOT DUP3 EQ ISZERO PUSH2 0xFB5 JUMPI PUSH2 0xFB5 PUSH2 0xF8B JUMP JUMPDEST POP PUSH1 0x1 ADD SWAP1 JUMP JUMPDEST PUSH1 0x0 DUP3 NOT DUP3 GT ISZERO PUSH2 0xFCF JUMPI PUSH2 0xFCF PUSH2 0xF8B JUMP JUMPDEST POP ADD SWAP1 JUMP JUMPDEST PUSH1 0x0 DUP3 DUP3 LT ISZERO PUSH2 0xFE6 JUMPI PUSH2 0xFE6 PUSH2 0xF8B JUMP JUMPDEST POP SUB SWAP1 JUMP INVALID LOG2 PUSH5 0x6970667358 0x22 SLT KECCAK256 DUP11 0x4D SWAP1 SWAP7 0xF8 PUSH28 0xFEA001AC990DBA9CA7F71C36DB0117E186EDA0549B3619CF56806473 PUSH16 0x6C634300080900330000000000000000 "
        },
        "methodIdentifiers": {
          "addManager(address)": "2d06177a",
          "addNewBusiness(address)": "e725a4be",
          "addNewCharity(address)": "166cd850",
          "approveBusiness(address)": "fddd4387",
          "approveCharity(address)": "45810583",
          "executeTransaction(uint256)": "ee22610b",
          "generateTransaction(address,(address,uint256)[],uint256)": "1702e2dc",
          "isBusiness(address)": "1466d019",
          "isCharity(address)": "e81ffbef",
          "isManager(address)": "f3ae2415",
          "pendingBusinesses(address)": "27b616cd",
          "pendingCharities(address)": "db20a887",
          "removeBusiness(address)": "419b96fa",
          "removeCharity(address)": "abefe591",
          "rewards()": "9ec5a894",
          "transactions(uint256)": "9ace38c2",
          "transactionsCount()": "fd99a746",
          "withdraw()": "3ccfd60b"
        }
      }
    }
  }
}