{
  "_format": "hh-sol-artifact-1",
  "contractName": "Relay",
  "sourceName": "contracts/Relay.sol",
  "abi": [
    {
      "inputs": [
        {
          "internalType": "address",
          "name": "manager",
          "type": "address"
        }
      ],
      "stateMutability": "nonpayable",
      "type": "constructor"
    },
    {
      "anonymous": false,
      "inputs": [
        {
          "indexed": true,
          "internalType": "address",
          "name": "addedManager",
          "type": "address"
        }
      ],
      "name": "ManagerAdded",
      "type": "event"
    },
    {
      "anonymous": false,
      "inputs": [
        {
          "indexed": true,
          "internalType": "address",
          "name": "addedManager",
          "type": "address"
        }
      ],
      "name": "ManagerRemoved",
      "type": "event"
    },
    {
      "anonymous": false,
      "inputs": [
        {
          "indexed": true,
          "internalType": "uint256",
          "name": "transactionId",
          "type": "uint256"
        },
        {
          "indexed": true,
          "internalType": "address",
          "name": "business",
          "type": "address"
        }
      ],
      "name": "TransactionAdded",
      "type": "event"
    },
    {
      "anonymous": false,
      "inputs": [
        {
          "indexed": true,
          "internalType": "uint256",
          "name": "transactionId",
          "type": "uint256"
        },
        {
          "indexed": true,
          "internalType": "address",
          "name": "business",
          "type": "address"
        }
      ],
      "name": "TransactionPaid",
      "type": "event"
    },
    {
      "anonymous": false,
      "inputs": [
        {
          "indexed": false,
          "internalType": "uint256",
          "name": "amount",
          "type": "uint256"
        },
        {
          "indexed": true,
          "internalType": "address",
          "name": "manager",
          "type": "address"
        }
      ],
      "name": "Withdrawal",
      "type": "event"
    },
    {
      "stateMutability": "payable",
      "type": "fallback"
    },
    {
      "inputs": [
        {
          "internalType": "address",
          "name": "manager",
          "type": "address"
        }
      ],
      "name": "addManager",
      "outputs": [],
      "stateMutability": "nonpayable",
      "type": "function"
    },
    {
      "inputs": [
        {
          "internalType": "address",
          "name": "business",
          "type": "address"
        }
      ],
      "name": "addNewBusiness",
      "outputs": [],
      "stateMutability": "nonpayable",
      "type": "function"
    },
    {
      "inputs": [
        {
          "internalType": "address",
          "name": "charity",
          "type": "address"
        }
      ],
      "name": "addNewCharity",
      "outputs": [],
      "stateMutability": "nonpayable",
      "type": "function"
    },
    {
      "inputs": [
        {
          "internalType": "address",
          "name": "business",
          "type": "address"
        }
      ],
      "name": "approveBusiness",
      "outputs": [],
      "stateMutability": "nonpayable",
      "type": "function"
    },
    {
      "inputs": [
        {
          "internalType": "address",
          "name": "charity",
          "type": "address"
        }
      ],
      "name": "approveCharity",
      "outputs": [],
      "stateMutability": "nonpayable",
      "type": "function"
    },
    {
      "inputs": [
        {
          "internalType": "uint256",
          "name": "transactionId",
          "type": "uint256"
        }
      ],
      "name": "executeTransaction",
      "outputs": [],
      "stateMutability": "payable",
      "type": "function"
    },
    {
      "inputs": [
        {
          "internalType": "address",
          "name": "client",
          "type": "address"
        },
        {
          "components": [
            {
              "internalType": "address",
              "name": "destination",
              "type": "address"
            },
            {
              "internalType": "uint256",
              "name": "value",
              "type": "uint256"
            }
          ],
          "internalType": "struct Types.TransactionPiece[]",
          "name": "pieces",
          "type": "tuple[]"
        },
        {
          "internalType": "uint256",
          "name": "fee",
          "type": "uint256"
        }
      ],
      "name": "generateTransaction",
      "outputs": [],
      "stateMutability": "nonpayable",
      "type": "function"
    },
    {
      "inputs": [
        {
          "internalType": "address",
          "name": "",
          "type": "address"
        }
      ],
      "name": "isBusiness",
      "outputs": [
        {
          "internalType": "bool",
          "name": "",
          "type": "bool"
        }
      ],
      "stateMutability": "view",
      "type": "function"
    },
    {
      "inputs": [
        {
          "internalType": "address",
          "name": "",
          "type": "address"
        }
      ],
      "name": "isCharity",
      "outputs": [
        {
          "internalType": "bool",
          "name": "",
          "type": "bool"
        }
      ],
      "stateMutability": "view",
      "type": "function"
    },
    {
      "inputs": [
        {
          "internalType": "address",
          "name": "",
          "type": "address"
        }
      ],
      "name": "isManager",
      "outputs": [
        {
          "internalType": "bool",
          "name": "",
          "type": "bool"
        }
      ],
      "stateMutability": "view",
      "type": "function"
    },
    {
      "inputs": [
        {
          "internalType": "address",
          "name": "",
          "type": "address"
        }
      ],
      "name": "pendingBusinesses",
      "outputs": [
        {
          "internalType": "bool",
          "name": "",
          "type": "bool"
        }
      ],
      "stateMutability": "view",
      "type": "function"
    },
    {
      "inputs": [
        {
          "internalType": "address",
          "name": "",
          "type": "address"
        }
      ],
      "name": "pendingCharities",
      "outputs": [
        {
          "internalType": "bool",
          "name": "",
          "type": "bool"
        }
      ],
      "stateMutability": "view",
      "type": "function"
    },
    {
      "inputs": [
        {
          "internalType": "address",
          "name": "business",
          "type": "address"
        }
      ],
      "name": "removeBusiness",
      "outputs": [],
      "stateMutability": "nonpayable",
      "type": "function"
    },
    {
      "inputs": [
        {
          "internalType": "address",
          "name": "charity",
          "type": "address"
        }
      ],
      "name": "removeCharity",
      "outputs": [],
      "stateMutability": "nonpayable",
      "type": "function"
    },
    {
      "inputs": [],
      "name": "rewards",
      "outputs": [
        {
          "internalType": "uint256",
          "name": "",
          "type": "uint256"
        }
      ],
      "stateMutability": "view",
      "type": "function"
    },
    {
      "inputs": [
        {
          "internalType": "uint256",
          "name": "",
          "type": "uint256"
        }
      ],
      "name": "transactions",
      "outputs": [
        {
          "internalType": "address",
          "name": "client",
          "type": "address"
        },
        {
          "internalType": "uint256",
          "name": "piecesCount",
          "type": "uint256"
        },
        {
          "internalType": "uint256",
          "name": "fee",
          "type": "uint256"
        },
        {
          "internalType": "bool",
          "name": "paid",
          "type": "bool"
        }
      ],
      "stateMutability": "view",
      "type": "function"
    },
    {
      "inputs": [],
      "name": "transactionsCount",
      "outputs": [
        {
          "internalType": "uint256",
          "name": "",
          "type": "uint256"
        }
      ],
      "stateMutability": "view",
      "type": "function"
    },
    {
      "inputs": [],
      "name": "withdraw",
      "outputs": [],
      "stateMutability": "nonpayable",
      "type": "function"
    },
    {
      "stateMutability": "payable",
      "type": "receive"
    }
  ],
  "bytecode": "0x608060405234801561001057600080fd5b506040516110b63803806110b683398101604081905261002f91610056565b6001600160a01b03166000908152600260205260409020805460ff19166001179055610086565b60006020828403121561006857600080fd5b81516001600160a01b038116811461007f57600080fd5b9392505050565b611021806100956000396000f3fe6080604052600436106101015760003560e01c80639ec5a8941161008f578063e81ffbef11610061578063e81ffbef14610384578063ee22610b146103b4578063f3ae2415146103c7578063fd99a746146103f7578063fddd43871461040d57005b80639ec5a894146102ce578063abefe591146102f2578063db20a88714610312578063e725a4be1461034257005b80632d06177a116100d35780632d06177a146101de5780633ccfd60b146101fe578063419b96fa1461021357806345810583146102335780639ace38c21461025357005b80631466d0191461010a578063166cd8501461014f5780631702e2dc1461018e57806327b616cd146101ae57005b3661010857005b005b34801561011657600080fd5b5061013a610125366004610d99565b60006020819052908152604090205460ff1681565b60405190151581526020015b60405180910390f35b34801561015b57600080fd5b5061010861016a366004610d99565b6001600160a01b03166000908152600560205260409020805460ff19166001179055565b34801561019a57600080fd5b506101086101a9366004610e2b565b61042d565b3480156101ba57600080fd5b5061013a6101c9366004610d99565b60016020526000908152604090205460ff1681565b3480156101ea57600080fd5b506101086101f9366004610d99565b61074c565b34801561020a57600080fd5b5061010861079f565b34801561021f57600080fd5b5061010861022e366004610d99565b610861565b34801561023f57600080fd5b5061010861024e366004610d99565b6108b1565b34801561025f57600080fd5b506102a261026e366004610f1a565b60076020526000908152604090208054600282015460038301546004909301546001600160a01b0390921692909160ff1684565b604080516001600160a01b03909516855260208501939093529183015215156060820152608001610146565b3480156102da57600080fd5b506102e460035481565b604051908152602001610146565b3480156102fe57600080fd5b5061010861030d366004610d99565b610919565b34801561031e57600080fd5b5061013a61032d366004610d99565b60056020526000908152604090205460ff1681565b34801561034e57600080fd5b5061010861035d366004610d99565b6001600160a01b03166000908152600160208190526040909120805460ff19169091179055565b34801561039057600080fd5b5061013a61039f366004610d99565b60046020526000908152604090205460ff1681565b6101086103c2366004610f1a565b610969565b3480156103d357600080fd5b5061013a6103e2366004610d99565b60026020526000908152604090205460ff1681565b34801561040357600080fd5b506102e460065481565b34801561041957600080fd5b50610108610428366004610d99565b610c79565b3360009081526002602052604090205460ff166104655760405162461bcd60e51b815260040161045c90610f33565b60405180910390fd5b60008251116104ac5760405162461bcd60e51b81526020600482015260136024820152724368617269746965732061726520656d70747960681b604482015260640161045c565b6001600160a01b03831660009081526020819052604090205460ff166105145760405162461bcd60e51b815260206004820152601860248201527f436c69656e74206973206e6f74206f757220636c69656e740000000000000000604482015260640161045c565b6006805460009081526007602052604080822080546001600160a01b0319166001600160a01b038816179055825482528082206003018490558451835483528183206002015591548152908120600401805460ff191690555b82518110156106f9576004600084838151811061058c5761058c610f75565b602090810291909101810151516001600160a01b031682528101919091526040016000205460ff1661061b5760405162461bcd60e51b815260206004820152603260248201527f4f6e65206f66207468652064657374696e6174696f6e73206973206e6f7420616044820152716e20617070726f766564206368617269747960701b606482015260840161045c565b600083828151811061062f5761062f610f75565b602002602001015160200151116106885760405162461bcd60e51b815260206004820152601c60248201527f446f6e6174696f6e732073686f756c64206265206e6f6e2d7a65726f00000000604482015260640161045c565b82818151811061069a5761069a610f75565b6020908102919091018101516006546000908152600783526040808220858352600190810185529120825181546001600160a01b0319166001600160a01b039091161781559190920151910155806106f181610fa1565b91505061056d565b506006546040516001600160a01b03851691907f5fd655308280ca8f5b685114cfe87b25b8f728b401240adcc0a98e877e3e29cd90600090a36006805490600061074283610fa1565b9190505550505050565b3360009081526002602052604090205460ff1661077b5760405162461bcd60e51b815260040161045c90610f33565b6001600160a01b03166000908152600260205260409020805460ff19166001179055565b3360009081526002602052604090205460ff166107ce5760405162461bcd60e51b815260040161045c90610f33565b6000600354116108165760405162461bcd60e51b81526020600482015260136024820152724e6f7468696e6720746f20776974686472617760681b604482015260640161045c565b60035460405190815233907fd964a27d45f595739c13d8b1160b57491050cacf3a2e5602207277d6228f64ee9060200160405180910390a261085a33600354610cde565b6000600355565b3360009081526002602052604090205460ff166108905760405162461bcd60e51b815260040161045c90610f33565b6001600160a01b03166000908152602081905260409020805460ff19169055565b3360009081526002602052604090205460ff166108e05760405162461bcd60e51b815260040161045c90610f33565b6001600160a01b03166000908152600560209081526040808320805460ff19908116909155600490925290912080549091166001179055565b3360009081526002602052604090205460ff166109485760405162461bcd60e51b815260040161045c90610f33565b6001600160a01b03166000908152600460205260409020805460ff19169055565b3360009081526020819052604090205460ff166109d45760405162461bcd60e51b815260206004820152602360248201527f53656e646572206973206e6f742074686520617070726f76656420627573696e60448201526265737360e81b606482015260840161045c565b60008181526007602052604090205481906001600160a01b0316610a3a5760405162461bcd60e51b815260206004820152601a60248201527f5472616e73616374696f6e20646f65736e27742065786973742e000000000000604482015260640161045c565b600082815260076020526040902080546001600160a01b03163314610aaf5760405162461bcd60e51b815260206004820152602560248201527f546865207472616e73616374696f6e20697320666f7220616e6f7468657220636044820152641b1a595b9d60da1b606482015260840161045c565b600481015460ff1615610b045760405162461bcd60e51b815260206004820152601b60248201527f5472616e73616374696f6e206973207061696420616c72656164790000000000604482015260640161045c565b6000805b8260020154811015610b46576000818152600180850160205260409091200154610b329083610fbc565b915080610b3e81610fa1565b915050610b08565b5034826003015482610b589190610fbc565b1115610bbf5760405162461bcd60e51b815260206004820152603060248201527f5468652076616c7565206973206e6f7420656e6f75676820746f20636f76657260448201526f103a3432903a3930b739b0b1ba34b7b760811b606482015260840161045c565b60005b8260020154811015610c0a576000818152600180850160205260409091208054910154610bf8916001600160a01b031690610cde565b80610c0281610fa1565b915050610bc2565b5060048201805460ff19166001179055610c248134610fd4565b60036000828254610c359190610fbc565b909155505081546040516001600160a01b039091169085907f1048322214c2376910cb9740dec280cf85a1375be08c0db6dd0413edc8c49c8e90600090a350505050565b3360009081526002602052604090205460ff16610ca85760405162461bcd60e51b815260040161045c90610f33565b6001600160a01b03166000908152600160208181526040808420805460ff19908116909155918490529092208054909216179055565b6000826001600160a01b03168260405160006040518083038185875af1925050503d8060008114610d2b576040519150601f19603f3d011682016040523d82523d6000602084013e610d30565b606091505b5050905080610d785760405162461bcd60e51b81526020600482015260146024820152734661696c656420746f2073656e642066756e647360601b604482015260640161045c565b505050565b80356001600160a01b0381168114610d9457600080fd5b919050565b600060208284031215610dab57600080fd5b610db482610d7d565b9392505050565b634e487b7160e01b600052604160045260246000fd5b6040805190810167ffffffffffffffff81118282101715610df457610df4610dbb565b60405290565b604051601f8201601f1916810167ffffffffffffffff81118282101715610e2357610e23610dbb565b604052919050565b600080600060608486031215610e4057600080fd5b610e4984610d7d565b925060208085013567ffffffffffffffff80821115610e6757600080fd5b818701915087601f830112610e7b57600080fd5b813581811115610e8d57610e8d610dbb565b610e9b848260051b01610dfa565b818152848101925060069190911b830184019089821115610ebb57600080fd5b928401925b81841015610f05576040848b031215610ed95760008081fd5b610ee1610dd1565b610eea85610d7d565b81528486013586820152835260409093019291840191610ec0565b96999698505050506040949094013593505050565b600060208284031215610f2c57600080fd5b5035919050565b60208082526022908201527f53656e646572206973206e6f742074686520617070726f766564206d616e616760408201526132b960f11b606082015260800190565b634e487b7160e01b600052603260045260246000fd5b634e487b7160e01b600052601160045260246000fd5b6000600019821415610fb557610fb5610f8b565b5060010190565b60008219821115610fcf57610fcf610f8b565b500190565b600082821015610fe657610fe6610f8b565b50039056fea26469706673582212208a4d9096f87bfea001ac990dba9ca7f71c36db0117e186eda0549b3619cf568064736f6c63430008090033",
  "linkReferences": {},
  "deployedLinkReferences": {}
}