{
  "_format": "hh-sol-artifact-1",
  "contractName": "Relay",
  "sourceName": "contracts/Relay.sol",
  "abi": [
    {
      "inputs": [
        {
          "internalType": "address",
          "name": "manager",
          "type": "address"
        }
      ],
      "stateMutability": "nonpayable",
      "type": "constructor"
    },
    {
      "anonymous": false,
      "inputs": [
        {
          "indexed": true,
          "internalType": "address",
          "name": "business",
          "type": "address"
        }
      ],
      "name": "BusinessApproved",
      "type": "event"
    },
    {
      "anonymous": false,
      "inputs": [
        {
          "indexed": true,
          "internalType": "address",
          "name": "business",
          "type": "address"
        }
      ],
      "name": "BusinessRemoved",
      "type": "event"
    },
    {
      "anonymous": false,
      "inputs": [
        {
          "indexed": true,
          "internalType": "address",
          "name": "charity",
          "type": "address"
        }
      ],
      "name": "CharityApproved",
      "type": "event"
    },
    {
      "anonymous": false,
      "inputs": [
        {
          "indexed": true,
          "internalType": "address",
          "name": "charity",
          "type": "address"
        }
      ],
      "name": "CharityRemoved",
      "type": "event"
    },
    {
      "anonymous": false,
      "inputs": [
        {
          "indexed": true,
          "internalType": "address",
          "name": "manager",
          "type": "address"
        }
      ],
      "name": "ManagerAdded",
      "type": "event"
    },
    {
      "anonymous": false,
      "inputs": [
        {
          "indexed": true,
          "internalType": "address",
          "name": "charity",
          "type": "address"
        }
      ],
      "name": "PendingBusinessAdded",
      "type": "event"
    },
    {
      "anonymous": false,
      "inputs": [
        {
          "indexed": true,
          "internalType": "address",
          "name": "charity",
          "type": "address"
        }
      ],
      "name": "PendingCharityAdded",
      "type": "event"
    },
    {
      "anonymous": false,
      "inputs": [
        {
          "indexed": true,
          "internalType": "uint256",
          "name": "transactionId",
          "type": "uint256"
        },
        {
          "indexed": true,
          "internalType": "address",
          "name": "business",
          "type": "address"
        }
      ],
      "name": "TransactionAdded",
      "type": "event"
    },
    {
      "anonymous": false,
      "inputs": [
        {
          "indexed": true,
          "internalType": "uint256",
          "name": "transactionId",
          "type": "uint256"
        },
        {
          "indexed": true,
          "internalType": "address",
          "name": "business",
          "type": "address"
        }
      ],
      "name": "TransactionPaid",
      "type": "event"
    },
    {
      "anonymous": false,
      "inputs": [
        {
          "indexed": false,
          "internalType": "uint256",
          "name": "amount",
          "type": "uint256"
        },
        {
          "indexed": true,
          "internalType": "address",
          "name": "manager",
          "type": "address"
        }
      ],
      "name": "Withdrawal",
      "type": "event"
    },
    {
      "stateMutability": "payable",
      "type": "fallback"
    },
    {
      "inputs": [
        {
          "internalType": "address",
          "name": "manager",
          "type": "address"
        }
      ],
      "name": "addManager",
      "outputs": [],
      "stateMutability": "nonpayable",
      "type": "function"
    },
    {
      "inputs": [
        {
          "internalType": "address",
          "name": "business",
          "type": "address"
        }
      ],
      "name": "addNewBusiness",
      "outputs": [],
      "stateMutability": "nonpayable",
      "type": "function"
    },
    {
      "inputs": [
        {
          "internalType": "address",
          "name": "charity",
          "type": "address"
        }
      ],
      "name": "addNewCharity",
      "outputs": [],
      "stateMutability": "nonpayable",
      "type": "function"
    },
    {
      "inputs": [
        {
          "internalType": "address",
          "name": "business",
          "type": "address"
        }
      ],
      "name": "approveBusiness",
      "outputs": [],
      "stateMutability": "nonpayable",
      "type": "function"
    },
    {
      "inputs": [
        {
          "internalType": "address",
          "name": "charity",
          "type": "address"
        }
      ],
      "name": "approveCharity",
      "outputs": [],
      "stateMutability": "nonpayable",
      "type": "function"
    },
    {
      "inputs": [
        {
          "internalType": "uint256",
          "name": "",
          "type": "uint256"
        }
      ],
      "name": "businesses",
      "outputs": [
        {
          "internalType": "address",
          "name": "",
          "type": "address"
        }
      ],
      "stateMutability": "view",
      "type": "function"
    },
    {
      "inputs": [
        {
          "internalType": "uint256",
          "name": "",
          "type": "uint256"
        }
      ],
      "name": "charities",
      "outputs": [
        {
          "internalType": "address",
          "name": "",
          "type": "address"
        }
      ],
      "stateMutability": "view",
      "type": "function"
    },
    {
      "inputs": [
        {
          "internalType": "address",
          "name": "",
          "type": "address"
        },
        {
          "internalType": "uint256",
          "name": "",
          "type": "uint256"
        }
      ],
      "name": "clientToTransaction",
      "outputs": [
        {
          "internalType": "uint256",
          "name": "",
          "type": "uint256"
        }
      ],
      "stateMutability": "view",
      "type": "function"
    },
    {
      "inputs": [
        {
          "internalType": "uint256",
          "name": "transactionId",
          "type": "uint256"
        }
      ],
      "name": "executeTransaction",
      "outputs": [],
      "stateMutability": "payable",
      "type": "function"
    },
    {
      "inputs": [
        {
          "internalType": "address",
          "name": "client",
          "type": "address"
        },
        {
          "components": [
            {
              "internalType": "address",
              "name": "destination",
              "type": "address"
            },
            {
              "internalType": "uint256",
              "name": "value",
              "type": "uint256"
            }
          ],
          "internalType": "struct Types.TransactionPiece[]",
          "name": "pieces",
          "type": "tuple[]"
        },
        {
          "internalType": "uint256",
          "name": "fee",
          "type": "uint256"
        }
      ],
      "name": "generateTransaction",
      "outputs": [],
      "stateMutability": "nonpayable",
      "type": "function"
    },
    {
      "inputs": [
        {
          "internalType": "address",
          "name": "",
          "type": "address"
        }
      ],
      "name": "isBusiness",
      "outputs": [
        {
          "internalType": "bool",
          "name": "",
          "type": "bool"
        }
      ],
      "stateMutability": "view",
      "type": "function"
    },
    {
      "inputs": [
        {
          "internalType": "address",
          "name": "",
          "type": "address"
        }
      ],
      "name": "isCharity",
      "outputs": [
        {
          "internalType": "bool",
          "name": "",
          "type": "bool"
        }
      ],
      "stateMutability": "view",
      "type": "function"
    },
    {
      "inputs": [
        {
          "internalType": "address",
          "name": "",
          "type": "address"
        }
      ],
      "name": "isManager",
      "outputs": [
        {
          "internalType": "bool",
          "name": "",
          "type": "bool"
        }
      ],
      "stateMutability": "view",
      "type": "function"
    },
    {
      "inputs": [
        {
          "internalType": "uint256",
          "name": "",
          "type": "uint256"
        }
      ],
      "name": "managers",
      "outputs": [
        {
          "internalType": "address",
          "name": "",
          "type": "address"
        }
      ],
      "stateMutability": "view",
      "type": "function"
    },
    {
      "inputs": [
        {
          "internalType": "uint256",
          "name": "",
          "type": "uint256"
        }
      ],
      "name": "pendingBusinesses",
      "outputs": [
        {
          "internalType": "address",
          "name": "",
          "type": "address"
        }
      ],
      "stateMutability": "view",
      "type": "function"
    },
    {
      "inputs": [
        {
          "internalType": "uint256",
          "name": "",
          "type": "uint256"
        }
      ],
      "name": "pendingCharities",
      "outputs": [
        {
          "internalType": "address",
          "name": "",
          "type": "address"
        }
      ],
      "stateMutability": "view",
      "type": "function"
    },
    {
      "inputs": [
        {
          "internalType": "address",
          "name": "client",
          "type": "address"
        }
      ],
      "name": "pendingTransactions",
      "outputs": [
        {
          "components": [
            {
              "internalType": "address",
              "name": "client",
              "type": "address"
            },
            {
              "components": [
                {
                  "internalType": "address",
                  "name": "destination",
                  "type": "address"
                },
                {
                  "internalType": "uint256",
                  "name": "value",
                  "type": "uint256"
                }
              ],
              "internalType": "struct Types.TransactionPiece[]",
              "name": "pieces",
              "type": "tuple[]"
            },
            {
              "internalType": "uint256",
              "name": "piecesCount",
              "type": "uint256"
            },
            {
              "internalType": "uint256",
              "name": "fee",
              "type": "uint256"
            },
            {
              "internalType": "bool",
              "name": "paid",
              "type": "bool"
            }
          ],
          "internalType": "struct Types.Transaction[]",
          "name": "",
          "type": "tuple[]"
        }
      ],
      "stateMutability": "view",
      "type": "function"
    },
    {
      "inputs": [
        {
          "internalType": "address",
          "name": "business",
          "type": "address"
        }
      ],
      "name": "removeBusiness",
      "outputs": [],
      "stateMutability": "nonpayable",
      "type": "function"
    },
    {
      "inputs": [
        {
          "internalType": "address",
          "name": "charity",
          "type": "address"
        }
      ],
      "name": "removeCharity",
      "outputs": [],
      "stateMutability": "nonpayable",
      "type": "function"
    },
    {
      "inputs": [],
      "name": "rewards",
      "outputs": [
        {
          "internalType": "uint256",
          "name": "",
          "type": "uint256"
        }
      ],
      "stateMutability": "view",
      "type": "function"
    },
    {
      "inputs": [
        {
          "internalType": "uint256",
          "name": "",
          "type": "uint256"
        }
      ],
      "name": "transactions",
      "outputs": [
        {
          "internalType": "address",
          "name": "client",
          "type": "address"
        },
        {
          "internalType": "uint256",
          "name": "piecesCount",
          "type": "uint256"
        },
        {
          "internalType": "uint256",
          "name": "fee",
          "type": "uint256"
        },
        {
          "internalType": "bool",
          "name": "paid",
          "type": "bool"
        }
      ],
      "stateMutability": "view",
      "type": "function"
    },
    {
      "inputs": [],
      "name": "transactionsCount",
      "outputs": [
        {
          "internalType": "uint256",
          "name": "",
          "type": "uint256"
        }
      ],
      "stateMutability": "view",
      "type": "function"
    },
    {
      "inputs": [],
      "name": "withdraw",
      "outputs": [],
      "stateMutability": "nonpayable",
      "type": "function"
    },
    {
      "stateMutability": "payable",
      "type": "receive"
    }
  ],
  "bytecode": "0x608060405234801561001057600080fd5b50604051611d72380380611d7283398101604081905261002f91610056565b6001600160a01b03166000908152600360205260409020805460ff19166001179055610086565b60006020828403121561006857600080fd5b81516001600160a01b038116811461007f57600080fd5b9392505050565b611cdd806100956000396000f3fe6080604052600436106101385760003560e01c80639ec5a894116100b0578063e81ffbef1161006c578063e81ffbef146103ff578063ee22610b1461042f578063f3ae241514610442578063fb709d2e14610472578063fd99a74614610492578063fddd4387146104a857005b80639ec5a8941461033c5780639ffd8fb814610352578063abefe59114610372578063b984c6ec14610392578063c127fd39146103b2578063e725a4be146103df57005b80633d39c260116100ff5780633d39c260146101fb578063418dff3d14610233578063419b96fa1461026157806345810583146102815780639ace38c2146102a15780639b0137b31461031c57005b80631466d01914610141578063166cd850146101865780631702e2dc146101a65780632d06177a146101c65780633ccfd60b146101e657005b3661013f57005b005b34801561014d57600080fd5b5061017161015c366004611953565b60006020819052908152604090205460ff1681565b60405190151581526020015b60405180910390f35b34801561019257600080fd5b5061013f6101a1366004611953565b6104c8565b3480156101b257600080fd5b5061013f6101c13660046119e5565b6105f4565b3480156101d257600080fd5b5061013f6101e1366004611953565b610943565b3480156101f257600080fd5b5061013f6109fe565b34801561020757600080fd5b5061021b610216366004611ad4565b610ac0565b6040516001600160a01b03909116815260200161017d565b34801561023f57600080fd5b5061025361024e366004611aed565b610aea565b60405190815260200161017d565b34801561026d57600080fd5b5061013f61027c366004611953565b610b1b565b34801561028d57600080fd5b5061013f61029c366004611953565b610cbf565b3480156102ad57600080fd5b506102f06102bc366004611ad4565b600a6020526000908152604090208054600282015460038301546004909301546001600160a01b0390921692909160ff1684565b604080516001600160a01b0390951685526020850193909352918301521515606082015260800161017d565b34801561032857600080fd5b5061021b610337366004611ad4565b610e9c565b34801561034857600080fd5b5061025360055481565b34801561035e57600080fd5b5061021b61036d366004611ad4565b610eac565b34801561037e57600080fd5b5061013f61038d366004611953565b610ebc565b34801561039e57600080fd5b5061021b6103ad366004611ad4565b611032565b3480156103be57600080fd5b506103d26103cd366004611953565b611042565b60405161017d9190611b17565b3480156103eb57600080fd5b5061013f6103fa366004611953565b611228565b34801561040b57600080fd5b5061017161041a366004611953565b60066020526000908152604090205460ff1681565b61013f61043d366004611ad4565b611350565b34801561044e57600080fd5b5061017161045d366004611953565b60036020526000908152604090205460ff1681565b34801561047e57600080fd5b5061021b61048d366004611ad4565b6116ac565b34801561049e57600080fd5b5061025360095481565b3480156104b457600080fd5b5061013f6104c3366004611953565b6116bc565b60005b60085481101561057b57816001600160a01b0316600882815481106104f2576104f2611bef565b6000918252602090912001546001600160a01b031614156105695760405162461bcd60e51b815260206004820152602660248201527f5468652063686172697479206164647265737320697320616c72656164792070604482015265656e64696e6760d01b60648201526084015b60405180910390fd5b8061057381611c1b565b9150506104cb565b506008805460018101825560009182527ff3f7a9fe364faab93b216da50a3214154f22a0a2b415b23a84c8169e8b636ee30180546001600160a01b0319166001600160a01b03841690811790915560405190917fee010dc102da811e4fb2e0202db4865ca889bc73f30087b25cbda0729c63eff391a250565b3360009081526003602052604090205460ff166106235760405162461bcd60e51b815260040161056090611c36565b600082511161066a5760405162461bcd60e51b81526020600482015260136024820152724368617269746965732061726520656d70747960681b6044820152606401610560565b6001600160a01b03831660009081526020819052604090205460ff166106d25760405162461bcd60e51b815260206004820152601860248201527f436c69656e74206973206e6f74206f757220636c69656e7400000000000000006044820152606401610560565b600980546000908152600a602052604080822080546001600160a01b0319166001600160a01b038816179055825482528082206003018490558451835483528183206002015591548152908120600401805460ff191690555b82518110156108cb576006600084838151811061074a5761074a611bef565b602090810291909101810151516001600160a01b031682528101919091526040016000205460ff166107d95760405162461bcd60e51b815260206004820152603260248201527f4f6e65206f66207468652064657374696e6174696f6e73206973206e6f7420616044820152716e20617070726f766564206368617269747960701b6064820152608401610560565b60008382815181106107ed576107ed611bef565b602002602001015160200151116108465760405162461bcd60e51b815260206004820152601c60248201527f446f6e6174696f6e732073686f756c64206265206e6f6e2d7a65726f000000006044820152606401610560565b600a6000600954815260200190815260200160002060010183828151811061087057610870611bef565b602090810291909101810151825460018082018555600094855293839020825160029092020180546001600160a01b0319166001600160a01b03909216919091178155910151910155806108c381611c1b565b91505061072b565b506001600160a01b0383166000818152600b60209081526040808320600980548254600181018455928652938520909101929092559054905190917f5fd655308280ca8f5b685114cfe87b25b8f728b401240adcc0a98e877e3e29cd91a36009805490600061093983611c1b565b9190505550505050565b3360009081526003602052604090205460ff166109725760405162461bcd60e51b815260040161056090611c36565b6001600160a01b038116600081815260036020526040808220805460ff1916600190811790915560048054918201815583527f8a35acfbc15ff81a39ae7d344fd709f28e8600b4aa8c65c6b64bfe7fe36bd19b0180546001600160a01b03191684179055517f3b4a40cccf2058c593542587329dd385be4f0b588db5471fbd9598e56dd7093a9190a250565b3360009081526003602052604090205460ff16610a2d5760405162461bcd60e51b815260040161056090611c36565b600060055411610a755760405162461bcd60e51b81526020600482015260136024820152724e6f7468696e6720746f20776974686472617760681b6044820152606401610560565b60055460405190815233907fd964a27d45f595739c13d8b1160b57491050cacf3a2e5602207277d6228f64ee9060200160405180910390a2610ab933600554611898565b6000600555565b60048181548110610ad057600080fd5b6000918252602090912001546001600160a01b0316905081565b600b6020528160005260406000208181548110610b0657600080fd5b90600052602060002001600091509150505481565b3360009081526003602052604090205460ff16610b4a5760405162461bcd60e51b815260040161056090611c36565b6001600160a01b038116600081815260208190526040808220805460ff19169055517f53c1bf54b1856bd715700f661ff046b40ed055bd0b5d09654df4cb6dc7fb2cfd9190a2600154610b9a5750565b60005b600154811015610cbb57816001600160a01b031660018281548110610bc457610bc4611bef565b6000918252602090912001546001600160a01b03161415610ca95760018054610bed9190611c78565b8114610c6d5760018054610c02908290611c78565b81548110610c1257610c12611bef565b600091825260209091200154600180546001600160a01b039092169183908110610c3e57610c3e611bef565b9060005260206000200160006101000a8154816001600160a01b0302191690836001600160a01b031602179055505b60018054610c7c908290611c78565b81548110610c8c57610c8c611bef565b600091825260209091200180546001600160a01b03191690555050565b80610cb381611c1b565b915050610b9d565b5050565b3360009081526003602052604090205460ff16610cee5760405162461bcd60e51b815260040161056090611c36565b6001600160a01b03811660009081526006602052604090205460ff1615610d125750565b6001600160a01b038116600081815260066020526040808220805460ff1916600190811790915560078054918201815583527fa66cc928b5edb82af9bd49922954155ab7b0942694bea4ce44661d9a8736c6880180546001600160a01b03191684179055517f28675749c11847be30a3b822f80f286058475c5f4977dcb99798b5b0ff2cbe5e9190a2600854610da55750565b60005b600854811015610cbb57816001600160a01b031660088281548110610dcf57610dcf611bef565b6000918252602090912001546001600160a01b03161415610e8a57600854610df990600190611c78565b8114610e7a5760088054610e0f90600190611c78565b81548110610e1f57610e1f611bef565b600091825260209091200154600880546001600160a01b039092169183908110610e4b57610e4b611bef565b9060005260206000200160006101000a8154816001600160a01b0302191690836001600160a01b031602179055505b60088054610c7c90600190611c78565b80610e9481611c1b565b915050610da8565b60088181548110610ad057600080fd5b60028181548110610ad057600080fd5b3360009081526003602052604090205460ff16610eeb5760405162461bcd60e51b815260040161056090611c36565b6001600160a01b038116600081815260066020526040808220805460ff19169055517f7db8df158d85e9475e8dd97a5e3e193c67dc6d977d2fc4f7321049b6c0b70e939190a2600754610f3b5750565b60005b600754811015610cbb57816001600160a01b031660078281548110610f6557610f65611bef565b6000918252602090912001546001600160a01b0316141561102057600754610f8f90600190611c78565b81146110105760078054610fa590600190611c78565b81548110610fb557610fb5611bef565b600091825260209091200154600780546001600160a01b039092169183908110610fe157610fe1611bef565b9060005260206000200160006101000a8154816001600160a01b0302191690836001600160a01b031602179055505b60078054610c7c90600190611c78565b8061102a81611c1b565b915050610f3e565b60018181548110610ad057600080fd5b6001600160a01b0381166000908152600b60205260408120546060918167ffffffffffffffff81111561107757611077611975565b6040519080825280602002602001820160405280156110e557816020015b6110d26040518060a0016040528060006001600160a01b031681526020016060815260200160008152602001600081526020016000151581525090565b8152602001906001900390816110955790505b50905060005b82811015611220576001600160a01b0385166000908152600b602052604081208054600a9291908490811061112257611122611bef565b600091825260208083209091015483528281019390935260409182018120825160a08101845281546001600160a01b031681526001820180548551818802810188019096528086529195929486840194909391929184015b828210156111c2576000848152602090819020604080518082019091526002850290910180546001600160a01b0316825260019081015482840152908352909201910161117a565b50505090825250600282015460208201526003820154604082015260049091015460ff161515606090910152825183908390811061120257611202611bef565b6020026020010181905250808061121890611c1b565b9150506110eb565b509392505050565b60005b6002548110156112d757816001600160a01b03166002828154811061125257611252611bef565b6000918252602090912001546001600160a01b031614156112c55760405162461bcd60e51b815260206004820152602760248201527f54686520627573696e657373206164647265737320697320616c72656164792060448201526670656e64696e6760c81b6064820152608401610560565b806112cf81611c1b565b91505061122b565b506002805460018101825560009182527f405787fa12a823e0f2b7631cc41b3ba8828b3321ca811111fa75cd3aa3bb5ace0180546001600160a01b0319166001600160a01b03841690811790915560405190917f8887e6f603275db1e771ec0f4ef66986dd7f78c8b354787c2055c5f56665602991a250565b3360009081526020819052604090205460ff166113bb5760405162461bcd60e51b815260206004820152602360248201527f53656e646572206973206e6f742074686520617070726f76656420627573696e60448201526265737360e81b6064820152608401610560565b6000818152600a602052604090205481906001600160a01b03166114215760405162461bcd60e51b815260206004820152601a60248201527f5472616e73616374696f6e20646f65736e27742065786973742e0000000000006044820152606401610560565b6000828152600a6020526040902080546001600160a01b031633146114965760405162461bcd60e51b815260206004820152602560248201527f546865207472616e73616374696f6e20697320666f7220616e6f7468657220636044820152641b1a595b9d60da1b6064820152608401610560565b600481015460ff16156114eb5760405162461bcd60e51b815260206004820152601b60248201527f5472616e73616374696f6e206973207061696420616c726561647900000000006044820152606401610560565b6000805b82600201548110156115415782600101818154811061151057611510611bef565b9060005260206000209060020201600101548261152d9190611c8f565b91508061153981611c1b565b9150506114ef565b50348260030154826115539190611c8f565b11156115ba5760405162461bcd60e51b815260206004820152603060248201527f5468652076616c7565206973206e6f7420656e6f75676820746f20636f76657260448201526f103a3432903a3930b739b0b1ba34b7b760811b6064820152608401610560565b60005b826002015481101561163d5761162b8360010182815481106115e1576115e1611bef565b60009182526020909120600290910201546001850180546001600160a01b03909216918490811061161457611614611bef565b906000526020600020906002020160010154611898565b8061163581611c1b565b9150506115bd565b5060048201805460ff191660011790556116578134611c78565b600560008282546116689190611c8f565b909155505081546040516001600160a01b039091169085907f1048322214c2376910cb9740dec280cf85a1375be08c0db6dd0413edc8c49c8e90600090a350505050565b60078181548110610ad057600080fd5b3360009081526003602052604090205460ff166116eb5760405162461bcd60e51b815260040161056090611c36565b6001600160a01b03811660009081526020819052604090205460ff161561170f5750565b6001600160a01b038116600081815260208190526040808220805460ff19166001908117909155805480820182559083527fb10e2d527612073b26eecdfd717e6a320cf44b4afac2b0732d9fcbe2b7fa0cf60180546001600160a01b03191684179055517faf1d127970278f3e2c952d5839b66d23f63c89edc514c3c4e96afbc3e0c9510f9190a26002546117a15750565b60005b600254811015610cbb57816001600160a01b0316600282815481106117cb576117cb611bef565b6000918252602090912001546001600160a01b03161415611886576002546117f590600190611c78565b8114611876576002805461180b90600190611c78565b8154811061181b5761181b611bef565b600091825260209091200154600280546001600160a01b03909216918390811061184757611847611bef565b9060005260206000200160006101000a8154816001600160a01b0302191690836001600160a01b031602179055505b60028054610c7c90600190611c78565b8061189081611c1b565b9150506117a4565b6000826001600160a01b03168260405160006040518083038185875af1925050503d80600081146118e5576040519150601f19603f3d011682016040523d82523d6000602084013e6118ea565b606091505b50509050806119325760405162461bcd60e51b81526020600482015260146024820152734661696c656420746f2073656e642066756e647360601b6044820152606401610560565b505050565b80356001600160a01b038116811461194e57600080fd5b919050565b60006020828403121561196557600080fd5b61196e82611937565b9392505050565b634e487b7160e01b600052604160045260246000fd5b6040805190810167ffffffffffffffff811182821017156119ae576119ae611975565b60405290565b604051601f8201601f1916810167ffffffffffffffff811182821017156119dd576119dd611975565b604052919050565b6000806000606084860312156119fa57600080fd5b611a0384611937565b925060208085013567ffffffffffffffff80821115611a2157600080fd5b818701915087601f830112611a3557600080fd5b813581811115611a4757611a47611975565b611a55848260051b016119b4565b818152848101925060069190911b830184019089821115611a7557600080fd5b928401925b81841015611abf576040848b031215611a935760008081fd5b611a9b61198b565b611aa485611937565b81528486013586820152835260409093019291840191611a7a565b96999698505050506040949094013593505050565b600060208284031215611ae657600080fd5b5035919050565b60008060408385031215611b0057600080fd5b611b0983611937565b946020939093013593505050565b60006020808301818452808551808352604092508286019150828160051b8701018488016000805b84811015611be057898403603f19018652825180516001600160a01b0390811686528982015160a08b8801819052815190880181905260c0880192918c01919086905b80821015611bad5783518051841686528e01518e860152938c0193928d019260019190910190611b82565b5050505081890151868a015260608083015190870152608091820151151591909501529487019491870191600101611b3f565b50919998505050505050505050565b634e487b7160e01b600052603260045260246000fd5b634e487b7160e01b600052601160045260246000fd5b6000600019821415611c2f57611c2f611c05565b5060010190565b60208082526022908201527f53656e646572206973206e6f742074686520617070726f766564206d616e616760408201526132b960f11b606082015260800190565b600082821015611c8a57611c8a611c05565b500390565b60008219821115611ca257611ca2611c05565b50019056fea2646970667358221220bb19456d27f0848144e3e6dec84e442d98dad5997af2691ebd7606cda7c39e5864736f6c63430008090033",
  "linkReferences": {},
  "deployedLinkReferences": {}
}