{
  "_format": "hh-sol-artifact-1",
  "contractName": "Relay",
  "sourceName": "contracts/Relay.sol",
  "abi": [
    {
      "inputs": [
        {
          "internalType": "address",
          "name": "manager",
          "type": "address"
        }
      ],
      "stateMutability": "nonpayable",
      "type": "constructor"
    },
    {
      "anonymous": false,
      "inputs": [
        {
          "indexed": true,
          "internalType": "address",
          "name": "addedManager",
          "type": "address"
        }
      ],
      "name": "ManagerAdded",
      "type": "event"
    },
    {
      "anonymous": false,
      "inputs": [
        {
          "indexed": true,
          "internalType": "address",
          "name": "addedManager",
          "type": "address"
        }
      ],
      "name": "ManagerRemoved",
      "type": "event"
    },
    {
      "anonymous": false,
      "inputs": [
        {
          "indexed": true,
          "internalType": "uint256",
          "name": "transactionId",
          "type": "uint256"
        },
        {
          "indexed": true,
          "internalType": "address",
          "name": "business",
          "type": "address"
        }
      ],
      "name": "TransactionAdded",
      "type": "event"
    },
    {
      "anonymous": false,
      "inputs": [
        {
          "indexed": true,
          "internalType": "uint256",
          "name": "transactionId",
          "type": "uint256"
        },
        {
          "indexed": true,
          "internalType": "address",
          "name": "business",
          "type": "address"
        }
      ],
      "name": "TransactionPaid",
      "type": "event"
    },
    {
      "anonymous": false,
      "inputs": [
        {
          "indexed": false,
          "internalType": "uint256",
          "name": "amount",
          "type": "uint256"
        },
        {
          "indexed": true,
          "internalType": "address",
          "name": "manager",
          "type": "address"
        }
      ],
      "name": "Withdrawal",
      "type": "event"
    },
    {
      "stateMutability": "payable",
      "type": "fallback"
    },
    {
      "inputs": [
        {
          "internalType": "address",
          "name": "manager",
          "type": "address"
        }
      ],
      "name": "addManager",
      "outputs": [],
      "stateMutability": "nonpayable",
      "type": "function"
    },
    {
      "inputs": [
        {
          "internalType": "address",
          "name": "business",
          "type": "address"
        }
      ],
      "name": "addNewBusiness",
      "outputs": [],
      "stateMutability": "nonpayable",
      "type": "function"
    },
    {
      "inputs": [
        {
          "internalType": "address",
          "name": "charity",
          "type": "address"
        }
      ],
      "name": "addNewCharity",
      "outputs": [],
      "stateMutability": "nonpayable",
      "type": "function"
    },
    {
      "inputs": [
        {
          "internalType": "address",
          "name": "business",
          "type": "address"
        }
      ],
      "name": "approveBusiness",
      "outputs": [],
      "stateMutability": "nonpayable",
      "type": "function"
    },
    {
      "inputs": [
        {
          "internalType": "address",
          "name": "charity",
          "type": "address"
        }
      ],
      "name": "approveCharity",
      "outputs": [],
      "stateMutability": "nonpayable",
      "type": "function"
    },
    {
      "inputs": [
        {
          "internalType": "address",
          "name": "",
          "type": "address"
        },
        {
          "internalType": "uint256",
          "name": "",
          "type": "uint256"
        }
      ],
      "name": "clientToTransaction",
      "outputs": [
        {
          "internalType": "uint256",
          "name": "",
          "type": "uint256"
        }
      ],
      "stateMutability": "view",
      "type": "function"
    },
    {
      "inputs": [
        {
          "internalType": "uint256",
          "name": "transactionId",
          "type": "uint256"
        }
      ],
      "name": "executeTransaction",
      "outputs": [],
      "stateMutability": "payable",
      "type": "function"
    },
    {
      "inputs": [
        {
          "internalType": "address",
          "name": "client",
          "type": "address"
        },
        {
          "components": [
            {
              "internalType": "address",
              "name": "destination",
              "type": "address"
            },
            {
              "internalType": "uint256",
              "name": "value",
              "type": "uint256"
            }
          ],
          "internalType": "struct Types.TransactionPiece[]",
          "name": "pieces",
          "type": "tuple[]"
        },
        {
          "internalType": "uint256",
          "name": "fee",
          "type": "uint256"
        }
      ],
      "name": "generateTransaction",
      "outputs": [],
      "stateMutability": "nonpayable",
      "type": "function"
    },
    {
      "inputs": [
        {
          "internalType": "address",
          "name": "",
          "type": "address"
        }
      ],
      "name": "isBusiness",
      "outputs": [
        {
          "internalType": "bool",
          "name": "",
          "type": "bool"
        }
      ],
      "stateMutability": "view",
      "type": "function"
    },
    {
      "inputs": [
        {
          "internalType": "address",
          "name": "",
          "type": "address"
        }
      ],
      "name": "isCharity",
      "outputs": [
        {
          "internalType": "bool",
          "name": "",
          "type": "bool"
        }
      ],
      "stateMutability": "view",
      "type": "function"
    },
    {
      "inputs": [
        {
          "internalType": "address",
          "name": "",
          "type": "address"
        }
      ],
      "name": "isManager",
      "outputs": [
        {
          "internalType": "bool",
          "name": "",
          "type": "bool"
        }
      ],
      "stateMutability": "view",
      "type": "function"
    },
    {
      "inputs": [
        {
          "internalType": "uint256",
          "name": "",
          "type": "uint256"
        }
      ],
      "name": "pendingBusinesses",
      "outputs": [
        {
          "internalType": "address",
          "name": "",
          "type": "address"
        }
      ],
      "stateMutability": "view",
      "type": "function"
    },
    {
      "inputs": [
        {
          "internalType": "uint256",
          "name": "",
          "type": "uint256"
        }
      ],
      "name": "pendingCharities",
      "outputs": [
        {
          "internalType": "address",
          "name": "",
          "type": "address"
        }
      ],
      "stateMutability": "view",
      "type": "function"
    },
    {
      "inputs": [
        {
          "internalType": "address",
          "name": "client",
          "type": "address"
        }
      ],
      "name": "pendingTransactions",
      "outputs": [
        {
          "components": [
            {
              "internalType": "address",
              "name": "client",
              "type": "address"
            },
            {
              "components": [
                {
                  "internalType": "address",
                  "name": "destination",
                  "type": "address"
                },
                {
                  "internalType": "uint256",
                  "name": "value",
                  "type": "uint256"
                }
              ],
              "internalType": "struct Types.TransactionPiece[]",
              "name": "pieces",
              "type": "tuple[]"
            },
            {
              "internalType": "uint256",
              "name": "piecesCount",
              "type": "uint256"
            },
            {
              "internalType": "uint256",
              "name": "fee",
              "type": "uint256"
            },
            {
              "internalType": "bool",
              "name": "paid",
              "type": "bool"
            }
          ],
          "internalType": "struct Types.Transaction[]",
          "name": "",
          "type": "tuple[]"
        }
      ],
      "stateMutability": "view",
      "type": "function"
    },
    {
      "inputs": [
        {
          "internalType": "address",
          "name": "business",
          "type": "address"
        }
      ],
      "name": "removeBusiness",
      "outputs": [],
      "stateMutability": "nonpayable",
      "type": "function"
    },
    {
      "inputs": [
        {
          "internalType": "address",
          "name": "charity",
          "type": "address"
        }
      ],
      "name": "removeCharity",
      "outputs": [],
      "stateMutability": "nonpayable",
      "type": "function"
    },
    {
      "inputs": [],
      "name": "rewards",
      "outputs": [
        {
          "internalType": "uint256",
          "name": "",
          "type": "uint256"
        }
      ],
      "stateMutability": "view",
      "type": "function"
    },
    {
      "inputs": [
        {
          "internalType": "uint256",
          "name": "",
          "type": "uint256"
        }
      ],
      "name": "transactions",
      "outputs": [
        {
          "internalType": "address",
          "name": "client",
          "type": "address"
        },
        {
          "internalType": "uint256",
          "name": "piecesCount",
          "type": "uint256"
        },
        {
          "internalType": "uint256",
          "name": "fee",
          "type": "uint256"
        },
        {
          "internalType": "bool",
          "name": "paid",
          "type": "bool"
        }
      ],
      "stateMutability": "view",
      "type": "function"
    },
    {
      "inputs": [],
      "name": "transactionsCount",
      "outputs": [
        {
          "internalType": "uint256",
          "name": "",
          "type": "uint256"
        }
      ],
      "stateMutability": "view",
      "type": "function"
    },
    {
      "inputs": [],
      "name": "withdraw",
      "outputs": [],
      "stateMutability": "nonpayable",
      "type": "function"
    },
    {
      "stateMutability": "payable",
      "type": "receive"
    }
  ],
  "bytecode": "0x608060405234801561001057600080fd5b506040516118f63803806118f683398101604081905261002f91610056565b6001600160a01b03166000908152600260205260409020805460ff19166001179055610086565b60006020828403121561006857600080fd5b81516001600160a01b038116811461007f57600080fd5b9392505050565b611861806100956000396000f3fe6080604052600436106101175760003560e01c80639ec5a8941161009a578063e81ffbef11610061578063e81ffbef1461039e578063ee22610b146103ce578063f3ae2415146103e1578063fd99a74614610411578063fddd43871461042757005b80639ec5a894146102fb5780639ffd8fb814610311578063abefe59114610331578063c127fd3914610351578063e725a4be1461037e57005b8063418dff3d116100de578063418dff3d146101da578063419b96fa1461020857806345810583146102285780639ace38c2146102485780639b0137b3146102c357005b80631466d01914610120578063166cd850146101655780631702e2dc146101855780632d06177a146101a55780633ccfd60b146101c557005b3661011e57005b005b34801561012c57600080fd5b5061015061013b3660046114d7565b60006020819052908152604090205460ff1681565b60405190151581526020015b60405180910390f35b34801561017157600080fd5b5061011e6101803660046114d7565b610447565b34801561019157600080fd5b5061011e6101a0366004611569565b61054d565b3480156101b157600080fd5b5061011e6101c03660046114d7565b61089c565b3480156101d157600080fd5b5061011e6108ef565b3480156101e657600080fd5b506101fa6101f5366004611658565b6109b1565b60405190815260200161015c565b34801561021457600080fd5b5061011e6102233660046114d7565b6109e2565b34801561023457600080fd5b5061011e6102433660046114d7565b610a32565b34801561025457600080fd5b50610297610263366004611682565b60076020526000908152604090208054600282015460038301546004909301546001600160a01b0390921692909160ff1684565b604080516001600160a01b0390951685526020850193909352918301521515606082015260800161015c565b3480156102cf57600080fd5b506102e36102de366004611682565b610bda565b6040516001600160a01b03909116815260200161015c565b34801561030757600080fd5b506101fa60035481565b34801561031d57600080fd5b506102e361032c366004611682565b610c04565b34801561033d57600080fd5b5061011e61034c3660046114d7565b610c14565b34801561035d57600080fd5b5061037161036c3660046114d7565b610c64565b60405161015c919061169b565b34801561038a57600080fd5b5061011e6103993660046114d7565b610e4a565b3480156103aa57600080fd5b506101506103b93660046114d7565b60046020526000908152604090205460ff1681565b61011e6103dc366004611682565b610f4b565b3480156103ed57600080fd5b506101506103fc3660046114d7565b60026020526000908152604090205460ff1681565b34801561041d57600080fd5b506101fa60065481565b34801561043357600080fd5b5061011e6104423660046114d7565b6112a7565b60005b6005548110156104fa57816001600160a01b03166005828154811061047157610471611773565b6000918252602090912001546001600160a01b031614156104e85760405162461bcd60e51b815260206004820152602660248201527f5468652063686172697479206164647265737320697320616c72656164792070604482015265656e64696e6760d01b60648201526084015b60405180910390fd5b806104f28161179f565b91505061044a565b50600580546001810182556000919091527f036b6384b5eca791c62761152d0c79bb0604c104a5fb6f4eb0703f3154bb3db00180546001600160a01b0319166001600160a01b0392909216919091179055565b3360009081526002602052604090205460ff1661057c5760405162461bcd60e51b81526004016104df906117ba565b60008251116105c35760405162461bcd60e51b81526020600482015260136024820152724368617269746965732061726520656d70747960681b60448201526064016104df565b6001600160a01b03831660009081526020819052604090205460ff1661062b5760405162461bcd60e51b815260206004820152601860248201527f436c69656e74206973206e6f74206f757220636c69656e74000000000000000060448201526064016104df565b6006805460009081526007602052604080822080546001600160a01b0319166001600160a01b038816179055825482528082206003018490558451835483528183206002015591548152908120600401805460ff191690555b825181101561082457600460008483815181106106a3576106a3611773565b602090810291909101810151516001600160a01b031682528101919091526040016000205460ff166107325760405162461bcd60e51b815260206004820152603260248201527f4f6e65206f66207468652064657374696e6174696f6e73206973206e6f7420616044820152716e20617070726f766564206368617269747960701b60648201526084016104df565b600083828151811061074657610746611773565b6020026020010151602001511161079f5760405162461bcd60e51b815260206004820152601c60248201527f446f6e6174696f6e732073686f756c64206265206e6f6e2d7a65726f0000000060448201526064016104df565b6007600060065481526020019081526020016000206001018382815181106107c9576107c9611773565b602090810291909101810151825460018082018555600094855293839020825160029092020180546001600160a01b0319166001600160a01b039092169190911781559101519101558061081c8161179f565b915050610684565b506001600160a01b0383166000818152600860209081526040808320600680548254600181018455928652938520909101929092559054905190917f5fd655308280ca8f5b685114cfe87b25b8f728b401240adcc0a98e877e3e29cd91a3600680549060006108928361179f565b9190505550505050565b3360009081526002602052604090205460ff166108cb5760405162461bcd60e51b81526004016104df906117ba565b6001600160a01b03166000908152600260205260409020805460ff19166001179055565b3360009081526002602052604090205460ff1661091e5760405162461bcd60e51b81526004016104df906117ba565b6000600354116109665760405162461bcd60e51b81526020600482015260136024820152724e6f7468696e6720746f20776974686472617760681b60448201526064016104df565b60035460405190815233907fd964a27d45f595739c13d8b1160b57491050cacf3a2e5602207277d6228f64ee9060200160405180910390a26109aa3360035461141c565b6000600355565b600860205281600052604060002081815481106109cd57600080fd5b90600052602060002001600091509150505481565b3360009081526002602052604090205460ff16610a115760405162461bcd60e51b81526004016104df906117ba565b6001600160a01b03166000908152602081905260409020805460ff19169055565b3360009081526002602052604090205460ff16610a615760405162461bcd60e51b81526004016104df906117ba565b6001600160a01b03811660009081526004602052604090205460ff1615610a855750565b6001600160a01b0381166000908152600460205260409020805460ff19166001179055600554610ab25750565b60005b600554811015610bd657816001600160a01b031660058281548110610adc57610adc611773565b6000918252602090912001546001600160a01b03161415610bc457600554610b06906001906117fc565b8114610b875760058054610b1c906001906117fc565b81548110610b2c57610b2c611773565b600091825260209091200154600580546001600160a01b039092169183908110610b5857610b58611773565b9060005260206000200160006101000a8154816001600160a01b0302191690836001600160a01b031602179055505b60058054610b97906001906117fc565b81548110610ba757610ba7611773565b600091825260209091200180546001600160a01b03191690555050565b80610bce8161179f565b915050610ab5565b5050565b60058181548110610bea57600080fd5b6000918252602090912001546001600160a01b0316905081565b60018181548110610bea57600080fd5b3360009081526002602052604090205460ff16610c435760405162461bcd60e51b81526004016104df906117ba565b6001600160a01b03166000908152600460205260409020805460ff19169055565b6001600160a01b0381166000908152600860205260408120546060918167ffffffffffffffff811115610c9957610c996114f9565b604051908082528060200260200182016040528015610d0757816020015b610cf46040518060a0016040528060006001600160a01b031681526020016060815260200160008152602001600081526020016000151581525090565b815260200190600190039081610cb75790505b50905060005b82811015610e42576001600160a01b03851660009081526008602052604081208054600792919084908110610d4457610d44611773565b600091825260208083209091015483528281019390935260409182018120825160a08101845281546001600160a01b031681526001820180548551818802810188019096528086529195929486840194909391929184015b82821015610de4576000848152602090819020604080518082019091526002850290910180546001600160a01b03168252600190810154828401529083529092019101610d9c565b50505090825250600282015460208201526003820154604082015260049091015460ff1615156060909101528251839083908110610e2457610e24611773565b60200260200101819052508080610e3a9061179f565b915050610d0d565b509392505050565b60005b600154811015610ef957816001600160a01b031660018281548110610e7457610e74611773565b6000918252602090912001546001600160a01b03161415610ee75760405162461bcd60e51b815260206004820152602760248201527f54686520627573696e657373206164647265737320697320616c72656164792060448201526670656e64696e6760c81b60648201526084016104df565b80610ef18161179f565b915050610e4d565b506001805480820182556000919091527fb10e2d527612073b26eecdfd717e6a320cf44b4afac2b0732d9fcbe2b7fa0cf60180546001600160a01b0319166001600160a01b0392909216919091179055565b3360009081526020819052604090205460ff16610fb65760405162461bcd60e51b815260206004820152602360248201527f53656e646572206973206e6f742074686520617070726f76656420627573696e60448201526265737360e81b60648201526084016104df565b60008181526007602052604090205481906001600160a01b031661101c5760405162461bcd60e51b815260206004820152601a60248201527f5472616e73616374696f6e20646f65736e27742065786973742e00000000000060448201526064016104df565b600082815260076020526040902080546001600160a01b031633146110915760405162461bcd60e51b815260206004820152602560248201527f546865207472616e73616374696f6e20697320666f7220616e6f7468657220636044820152641b1a595b9d60da1b60648201526084016104df565b600481015460ff16156110e65760405162461bcd60e51b815260206004820152601b60248201527f5472616e73616374696f6e206973207061696420616c7265616479000000000060448201526064016104df565b6000805b826002015481101561113c5782600101818154811061110b5761110b611773565b906000526020600020906002020160010154826111289190611813565b9150806111348161179f565b9150506110ea565b503482600301548261114e9190611813565b11156111b55760405162461bcd60e51b815260206004820152603060248201527f5468652076616c7565206973206e6f7420656e6f75676820746f20636f76657260448201526f103a3432903a3930b739b0b1ba34b7b760811b60648201526084016104df565b60005b8260020154811015611238576112268360010182815481106111dc576111dc611773565b60009182526020909120600290910201546001850180546001600160a01b03909216918490811061120f5761120f611773565b90600052602060002090600202016001015461141c565b806112308161179f565b9150506111b8565b5060048201805460ff1916600117905561125281346117fc565b600360008282546112639190611813565b909155505081546040516001600160a01b039091169085907f1048322214c2376910cb9740dec280cf85a1375be08c0db6dd0413edc8c49c8e90600090a350505050565b3360009081526002602052604090205460ff166112d65760405162461bcd60e51b81526004016104df906117ba565b6001600160a01b03811660009081526020819052604090205460ff16156112fa5750565b6001600160a01b0381166000908152602081905260409020805460ff19166001908117909155546113285750565b60005b600154811015610bd657816001600160a01b03166001828154811061135257611352611773565b6000918252602090912001546001600160a01b0316141561140a576001805461137b91906117fc565b81146113fb57600180546113909082906117fc565b815481106113a0576113a0611773565b600091825260209091200154600180546001600160a01b0390921691839081106113cc576113cc611773565b9060005260206000200160006101000a8154816001600160a01b0302191690836001600160a01b031602179055505b60018054610b979082906117fc565b806114148161179f565b91505061132b565b6000826001600160a01b03168260405160006040518083038185875af1925050503d8060008114611469576040519150601f19603f3d011682016040523d82523d6000602084013e61146e565b606091505b50509050806114b65760405162461bcd60e51b81526020600482015260146024820152734661696c656420746f2073656e642066756e647360601b60448201526064016104df565b505050565b80356001600160a01b03811681146114d257600080fd5b919050565b6000602082840312156114e957600080fd5b6114f2826114bb565b9392505050565b634e487b7160e01b600052604160045260246000fd5b6040805190810167ffffffffffffffff81118282101715611532576115326114f9565b60405290565b604051601f8201601f1916810167ffffffffffffffff81118282101715611561576115616114f9565b604052919050565b60008060006060848603121561157e57600080fd5b611587846114bb565b925060208085013567ffffffffffffffff808211156115a557600080fd5b818701915087601f8301126115b957600080fd5b8135818111156115cb576115cb6114f9565b6115d9848260051b01611538565b818152848101925060069190911b8301840190898211156115f957600080fd5b928401925b81841015611643576040848b0312156116175760008081fd5b61161f61150f565b611628856114bb565b815284860135868201528352604090930192918401916115fe565b96999698505050506040949094013593505050565b6000806040838503121561166b57600080fd5b611674836114bb565b946020939093013593505050565b60006020828403121561169457600080fd5b5035919050565b60006020808301818452808551808352604092508286019150828160051b8701018488016000805b8481101561176457898403603f19018652825180516001600160a01b0390811686528982015160a08b8801819052815190880181905260c0880192918c01919086905b808210156117315783518051841686528e01518e860152938c0193928d019260019190910190611706565b5050505081890151868a0152606080830151908701526080918201511515919095015294870194918701916001016116c3565b50919998505050505050505050565b634e487b7160e01b600052603260045260246000fd5b634e487b7160e01b600052601160045260246000fd5b60006000198214156117b3576117b3611789565b5060010190565b60208082526022908201527f53656e646572206973206e6f742074686520617070726f766564206d616e616760408201526132b960f11b606082015260800190565b60008282101561180e5761180e611789565b500390565b6000821982111561182657611826611789565b50019056fea264697066735822122005b03cf201fa8ea847920c3a3ef5fb332ff8fb27e84485d36f9c8c48cd26f79764736f6c63430008090033",
  "linkReferences": {},
  "deployedLinkReferences": {}
}