{
  "_format": "hh-sol-artifact-1",
  "contractName": "Relay",
  "sourceName": "contracts/Relay.sol",
  "abi": [
    {
      "inputs": [
        {
          "internalType": "address",
          "name": "manager",
          "type": "address"
        }
      ],
      "stateMutability": "nonpayable",
      "type": "constructor"
    },
    {
      "anonymous": false,
      "inputs": [
        {
          "indexed": true,
          "internalType": "address",
          "name": "addedManager",
          "type": "address"
        }
      ],
      "name": "ManagerAdded",
      "type": "event"
    },
    {
      "anonymous": false,
      "inputs": [
        {
          "indexed": true,
          "internalType": "address",
          "name": "addedManager",
          "type": "address"
        }
      ],
      "name": "ManagerRemoved",
      "type": "event"
    },
    {
      "anonymous": false,
      "inputs": [
        {
          "indexed": true,
          "internalType": "uint256",
          "name": "transactionId",
          "type": "uint256"
        },
        {
          "indexed": true,
          "internalType": "address",
          "name": "business",
          "type": "address"
        }
      ],
      "name": "TransactionAdded",
      "type": "event"
    },
    {
      "anonymous": false,
      "inputs": [
        {
          "indexed": true,
          "internalType": "uint256",
          "name": "transactionId",
          "type": "uint256"
        },
        {
          "indexed": true,
          "internalType": "address",
          "name": "business",
          "type": "address"
        }
      ],
      "name": "TransactionPaid",
      "type": "event"
    },
    {
      "anonymous": false,
      "inputs": [
        {
          "indexed": false,
          "internalType": "uint256",
          "name": "amount",
          "type": "uint256"
        },
        {
          "indexed": true,
          "internalType": "address",
          "name": "manager",
          "type": "address"
        }
      ],
      "name": "Withdrawal",
      "type": "event"
    },
    {
      "stateMutability": "payable",
      "type": "fallback"
    },
    {
      "inputs": [
        {
          "internalType": "address",
          "name": "manager",
          "type": "address"
        }
      ],
      "name": "addManager",
      "outputs": [],
      "stateMutability": "nonpayable",
      "type": "function"
    },
    {
      "inputs": [
        {
          "internalType": "address",
          "name": "business",
          "type": "address"
        }
      ],
      "name": "addNewBusiness",
      "outputs": [],
      "stateMutability": "nonpayable",
      "type": "function"
    },
    {
      "inputs": [
        {
          "internalType": "address",
          "name": "charity",
          "type": "address"
        }
      ],
      "name": "addNewCharity",
      "outputs": [],
      "stateMutability": "nonpayable",
      "type": "function"
    },
    {
      "inputs": [
        {
          "internalType": "address",
          "name": "business",
          "type": "address"
        }
      ],
      "name": "approveBusiness",
      "outputs": [],
      "stateMutability": "nonpayable",
      "type": "function"
    },
    {
      "inputs": [
        {
          "internalType": "address",
          "name": "charity",
          "type": "address"
        }
      ],
      "name": "approveCharity",
      "outputs": [],
      "stateMutability": "nonpayable",
      "type": "function"
    },
    {
      "inputs": [
        {
          "internalType": "uint256",
          "name": "transactionId",
          "type": "uint256"
        }
      ],
      "name": "executeTransaction",
      "outputs": [],
      "stateMutability": "payable",
      "type": "function"
    },
    {
      "inputs": [
        {
          "internalType": "address",
          "name": "client",
          "type": "address"
        },
        {
          "components": [
            {
              "internalType": "address",
              "name": "destination",
              "type": "address"
            },
            {
              "internalType": "uint256",
              "name": "value",
              "type": "uint256"
            }
          ],
          "internalType": "struct Types.TransactionPiece[]",
          "name": "pieces",
          "type": "tuple[]"
        },
        {
          "internalType": "uint256",
          "name": "fee",
          "type": "uint256"
        }
      ],
      "name": "generateTransaction",
      "outputs": [],
      "stateMutability": "nonpayable",
      "type": "function"
    },
    {
      "inputs": [
        {
          "internalType": "address",
          "name": "",
          "type": "address"
        }
      ],
      "name": "isBusiness",
      "outputs": [
        {
          "internalType": "bool",
          "name": "",
          "type": "bool"
        }
      ],
      "stateMutability": "view",
      "type": "function"
    },
    {
      "inputs": [
        {
          "internalType": "address",
          "name": "",
          "type": "address"
        }
      ],
      "name": "isCharity",
      "outputs": [
        {
          "internalType": "bool",
          "name": "",
          "type": "bool"
        }
      ],
      "stateMutability": "view",
      "type": "function"
    },
    {
      "inputs": [
        {
          "internalType": "address",
          "name": "",
          "type": "address"
        }
      ],
      "name": "isManager",
      "outputs": [
        {
          "internalType": "bool",
          "name": "",
          "type": "bool"
        }
      ],
      "stateMutability": "view",
      "type": "function"
    },
    {
      "inputs": [
        {
          "internalType": "address",
          "name": "",
          "type": "address"
        }
      ],
      "name": "pendingBusinesses",
      "outputs": [
        {
          "internalType": "bool",
          "name": "",
          "type": "bool"
        }
      ],
      "stateMutability": "view",
      "type": "function"
    },
    {
      "inputs": [
        {
          "internalType": "address",
          "name": "",
          "type": "address"
        }
      ],
      "name": "pendingCharities",
      "outputs": [
        {
          "internalType": "bool",
          "name": "",
          "type": "bool"
        }
      ],
      "stateMutability": "view",
      "type": "function"
    },
    {
      "inputs": [
        {
          "internalType": "address",
          "name": "business",
          "type": "address"
        }
      ],
      "name": "removeBusiness",
      "outputs": [],
      "stateMutability": "nonpayable",
      "type": "function"
    },
    {
      "inputs": [
        {
          "internalType": "address",
          "name": "charity",
          "type": "address"
        }
      ],
      "name": "removeCharity",
      "outputs": [],
      "stateMutability": "nonpayable",
      "type": "function"
    },
    {
      "inputs": [],
      "name": "rewards",
      "outputs": [
        {
          "internalType": "uint256",
          "name": "",
          "type": "uint256"
        }
      ],
      "stateMutability": "view",
      "type": "function"
    },
    {
      "inputs": [
        {
          "internalType": "uint256",
          "name": "",
          "type": "uint256"
        }
      ],
      "name": "transactions",
      "outputs": [
        {
          "internalType": "address",
          "name": "client",
          "type": "address"
        },
        {
          "internalType": "uint256",
          "name": "piecesCount",
          "type": "uint256"
        },
        {
          "internalType": "uint256",
          "name": "fee",
          "type": "uint256"
        },
        {
          "internalType": "bool",
          "name": "paid",
          "type": "bool"
        }
      ],
      "stateMutability": "view",
      "type": "function"
    },
    {
      "inputs": [],
      "name": "transactionsCount",
      "outputs": [
        {
          "internalType": "uint256",
          "name": "",
          "type": "uint256"
        }
      ],
      "stateMutability": "view",
      "type": "function"
    },
    {
      "inputs": [],
      "name": "withdraw",
      "outputs": [],
      "stateMutability": "nonpayable",
      "type": "function"
    },
    {
      "stateMutability": "payable",
      "type": "receive"
    }
  ],
  "bytecode": "0x60806040523480156200001157600080fd5b50604051620021e5380380620021e5833981810160405281019062000037919062000100565b6001600260008373ffffffffffffffffffffffffffffffffffffffff1673ffffffffffffffffffffffffffffffffffffffff16815260200190815260200160002060006101000a81548160ff0219169083151502179055505062000132565b600080fd5b600073ffffffffffffffffffffffffffffffffffffffff82169050919050565b6000620000c8826200009b565b9050919050565b620000da81620000bb565b8114620000e657600080fd5b50565b600081519050620000fa81620000cf565b92915050565b60006020828403121562000119576200011862000096565b5b60006200012984828501620000e9565b91505092915050565b6120a380620001426000396000f3fe60806040526004361061010d5760003560e01c80639ec5a89411610095578063e81ffbef11610064578063e81ffbef1461036e578063ee22610b146103ab578063f3ae2415146103c7578063fd99a74614610404578063fddd43871461042f57610114565b80639ec5a894146102b4578063abefe591146102df578063db20a88714610308578063e725a4be1461034557610114565b80632d06177a116100dc5780632d06177a146101e25780633ccfd60b1461020b578063419b96fa14610222578063458105831461024b5780639ace38c21461027457610114565b80631466d01914610116578063166cd850146101535780631702e2dc1461017c57806327b616cd146101a557610114565b3661011457005b005b34801561012257600080fd5b5061013d600480360381019061013891906115d9565b610458565b60405161014a9190611621565b60405180910390f35b34801561015f57600080fd5b5061017a600480360381019061017591906115d9565b610478565b005b34801561018857600080fd5b506101a3600480360381019061019e9190611820565b6104d3565b005b3480156101b157600080fd5b506101cc60048036038101906101c791906115d9565b610917565b6040516101d99190611621565b60405180910390f35b3480156101ee57600080fd5b50610209600480360381019061020491906115d9565b610937565b005b34801561021757600080fd5b50610220610a1e565b005b34801561022e57600080fd5b50610249600480360381019061024491906115d9565b610b55565b005b34801561025757600080fd5b50610272600480360381019061026d91906115d9565b610c3b565b005b34801561028057600080fd5b5061029b6004803603810190610296919061188f565b610d7a565b6040516102ab94939291906118da565b60405180910390f35b3480156102c057600080fd5b506102c9610dd7565b6040516102d6919061191f565b60405180910390f35b3480156102eb57600080fd5b50610306600480360381019061030191906115d9565b610ddd565b005b34801561031457600080fd5b5061032f600480360381019061032a91906115d9565b610ec4565b60405161033c9190611621565b60405180910390f35b34801561035157600080fd5b5061036c600480360381019061036791906115d9565b610ee4565b005b34801561037a57600080fd5b50610395600480360381019061039091906115d9565b610f3e565b6040516103a29190611621565b60405180910390f35b6103c560048036038101906103c0919061188f565b610f5e565b005b3480156103d357600080fd5b506103ee60048036038101906103e991906115d9565b611352565b6040516103fb9190611621565b60405180910390f35b34801561041057600080fd5b50610419611372565b604051610426919061191f565b60405180910390f35b34801561043b57600080fd5b50610456600480360381019061045191906115d9565b611378565b005b60006020528060005260406000206000915054906101000a900460ff1681565b6001600560008373ffffffffffffffffffffffffffffffffffffffff1673ffffffffffffffffffffffffffffffffffffffff16815260200190815260200160002060006101000a81548160ff02191690831515021790555050565b600260003373ffffffffffffffffffffffffffffffffffffffff1673ffffffffffffffffffffffffffffffffffffffff16815260200190815260200160002060009054906101000a900460ff1661055f576040517f08c379a0000000000000000000000000000000000000000000000000000000008152600401610556906119bd565b60405180910390fd5b60008251116105a3576040517f08c379a000000000000000000000000000000000000000000000000000000000815260040161059a90611a29565b60405180910390fd5b6000808473ffffffffffffffffffffffffffffffffffffffff1673ffffffffffffffffffffffffffffffffffffffff16815260200190815260200160002060009054906101000a900460ff1661062e576040517f08c379a000000000000000000000000000000000000000000000000000000000815260040161062590611a95565b60405180910390fd5b8260076000600654815260200190815260200160002060000160006101000a81548173ffffffffffffffffffffffffffffffffffffffff021916908373ffffffffffffffffffffffffffffffffffffffff1602179055508060076000600654815260200190815260200160002060030181905550815160076000600654815260200190815260200160002060020181905550600060076000600654815260200190815260200160002060040160006101000a81548160ff02191690831515021790555060005b82518110156108b3576004600084838151811061071457610713611ab5565b5b60200260200101516000015173ffffffffffffffffffffffffffffffffffffffff1673ffffffffffffffffffffffffffffffffffffffff16815260200190815260200160002060009054906101000a900460ff166107a7576040517f08c379a000000000000000000000000000000000000000000000000000000000815260040161079e90611b56565b60405180910390fd5b60008382815181106107bc576107bb611ab5565b5b60200260200101516020015111610808576040517f08c379a00000000000000000000000000000000000000000000000000000000081526004016107ff90611bc2565b60405180910390fd5b82818151811061081b5761081a611ab5565b5b6020026020010151600760006006548152602001908152602001600020600101600083815260200190815260200160002060008201518160000160006101000a81548173ffffffffffffffffffffffffffffffffffffffff021916908373ffffffffffffffffffffffffffffffffffffffff1602179055506020820151816001015590505080806108ab90611c11565b9150506106f4565b508273ffffffffffffffffffffffffffffffffffffffff166006547f5fd655308280ca8f5b685114cfe87b25b8f728b401240adcc0a98e877e3e29cd60405160405180910390a36006600081548092919061090d90611c11565b9190505550505050565b60016020528060005260406000206000915054906101000a900460ff1681565b600260003373ffffffffffffffffffffffffffffffffffffffff1673ffffffffffffffffffffffffffffffffffffffff16815260200190815260200160002060009054906101000a900460ff166109c3576040517f08c379a00000000000000000000000000000000000000000000000000000000081526004016109ba906119bd565b60405180910390fd5b6001600260008373ffffffffffffffffffffffffffffffffffffffff1673ffffffffffffffffffffffffffffffffffffffff16815260200190815260200160002060006101000a81548160ff02191690831515021790555050565b600260003373ffffffffffffffffffffffffffffffffffffffff1673ffffffffffffffffffffffffffffffffffffffff16815260200190815260200160002060009054906101000a900460ff16610aaa576040517f08c379a0000000000000000000000000000000000000000000000000000000008152600401610aa1906119bd565b60405180910390fd5b600060035411610aef576040517f08c379a0000000000000000000000000000000000000000000000000000000008152600401610ae690611ca5565b60405180910390fd5b3373ffffffffffffffffffffffffffffffffffffffff167fd964a27d45f595739c13d8b1160b57491050cacf3a2e5602207277d6228f64ee600354604051610b37919061191f565b60405180910390a2610b4b336003546114b6565b6000600381905550565b600260003373ffffffffffffffffffffffffffffffffffffffff1673ffffffffffffffffffffffffffffffffffffffff16815260200190815260200160002060009054906101000a900460ff16610be1576040517f08c379a0000000000000000000000000000000000000000000000000000000008152600401610bd8906119bd565b60405180910390fd5b60008060008373ffffffffffffffffffffffffffffffffffffffff1673ffffffffffffffffffffffffffffffffffffffff16815260200190815260200160002060006101000a81548160ff02191690831515021790555050565b600260003373ffffffffffffffffffffffffffffffffffffffff1673ffffffffffffffffffffffffffffffffffffffff16815260200190815260200160002060009054906101000a900460ff16610cc7576040517f08c379a0000000000000000000000000000000000000000000000000000000008152600401610cbe906119bd565b60405180910390fd5b6000600560008373ffffffffffffffffffffffffffffffffffffffff1673ffffffffffffffffffffffffffffffffffffffff16815260200190815260200160002060006101000a81548160ff0219169083151502179055506001600460008373ffffffffffffffffffffffffffffffffffffffff1673ffffffffffffffffffffffffffffffffffffffff16815260200190815260200160002060006101000a81548160ff02191690831515021790555050565b60076020528060005260406000206000915090508060000160009054906101000a900473ffffffffffffffffffffffffffffffffffffffff16908060020154908060030154908060040160009054906101000a900460ff16905084565b60035481565b600260003373ffffffffffffffffffffffffffffffffffffffff1673ffffffffffffffffffffffffffffffffffffffff16815260200190815260200160002060009054906101000a900460ff16610e69576040517f08c379a0000000000000000000000000000000000000000000000000000000008152600401610e60906119bd565b60405180910390fd5b6000600460008373ffffffffffffffffffffffffffffffffffffffff1673ffffffffffffffffffffffffffffffffffffffff16815260200190815260200160002060006101000a81548160ff02191690831515021790555050565b60056020528060005260406000206000915054906101000a900460ff1681565b60018060008373ffffffffffffffffffffffffffffffffffffffff1673ffffffffffffffffffffffffffffffffffffffff16815260200190815260200160002060006101000a81548160ff02191690831515021790555050565b60046020528060005260406000206000915054906101000a900460ff1681565b6000803373ffffffffffffffffffffffffffffffffffffffff1673ffffffffffffffffffffffffffffffffffffffff16815260200190815260200160002060009054906101000a900460ff16610fe9576040517f08c379a0000000000000000000000000000000000000000000000000000000008152600401610fe090611d37565b60405180910390fd5b80600073ffffffffffffffffffffffffffffffffffffffff166007600083815260200190815260200160002060000160009054906101000a900473ffffffffffffffffffffffffffffffffffffffff1673ffffffffffffffffffffffffffffffffffffffff160361108f576040517f08c379a000000000000000000000000000000000000000000000000000000000815260040161108690611da3565b60405180910390fd5b60006007600084815260200190815260200160002090503373ffffffffffffffffffffffffffffffffffffffff168160000160009054906101000a900473ffffffffffffffffffffffffffffffffffffffff1673ffffffffffffffffffffffffffffffffffffffff1614611138576040517f08c379a000000000000000000000000000000000000000000000000000000000815260040161112f90611e35565b60405180910390fd5b8060040160009054906101000a900460ff161561118a576040517f08c379a000000000000000000000000000000000000000000000000000000000815260040161118190611ea1565b60405180910390fd5b6000805b82600201548110156111d35782600101600082815260200190815260200160002060010154826111be9190611ec1565b915080806111cb90611c11565b91505061118e565b50348260030154826111e59190611ec1565b1115611226576040517f08c379a000000000000000000000000000000000000000000000000000000000815260040161121d90611f67565b60405180910390fd5b60005b82600201548110156112a25761128f83600101600083815260200190815260200160002060000160009054906101000a900473ffffffffffffffffffffffffffffffffffffffff16846001016000848152602001908152602001600020600101546114b6565b808061129a90611c11565b915050611229565b5060018260040160006101000a81548160ff02191690831515021790555080346112cc9190611f87565b600360008282546112dd9190611ec1565b925050819055508160000160009054906101000a900473ffffffffffffffffffffffffffffffffffffffff1673ffffffffffffffffffffffffffffffffffffffff16847f1048322214c2376910cb9740dec280cf85a1375be08c0db6dd0413edc8c49c8e60405160405180910390a350505050565b60026020528060005260406000206000915054906101000a900460ff1681565b60065481565b600260003373ffffffffffffffffffffffffffffffffffffffff1673ffffffffffffffffffffffffffffffffffffffff16815260200190815260200160002060009054906101000a900460ff16611404576040517f08c379a00000000000000000000000000000000000000000000000000000000081526004016113fb906119bd565b60405180910390fd5b6000600160008373ffffffffffffffffffffffffffffffffffffffff1673ffffffffffffffffffffffffffffffffffffffff16815260200190815260200160002060006101000a81548160ff02191690831515021790555060016000808373ffffffffffffffffffffffffffffffffffffffff1673ffffffffffffffffffffffffffffffffffffffff16815260200190815260200160002060006101000a81548160ff02191690831515021790555050565b60008273ffffffffffffffffffffffffffffffffffffffff16826040516114dc90611fec565b60006040518083038185875af1925050503d8060008114611519576040519150601f19603f3d011682016040523d82523d6000602084013e61151e565b606091505b5050905080611562576040517f08c379a00000000000000000000000000000000000000000000000000000000081526004016115599061204d565b60405180910390fd5b505050565b6000604051905090565b600080fd5b600080fd5b600073ffffffffffffffffffffffffffffffffffffffff82169050919050565b60006115a68261157b565b9050919050565b6115b68161159b565b81146115c157600080fd5b50565b6000813590506115d3816115ad565b92915050565b6000602082840312156115ef576115ee611571565b5b60006115fd848285016115c4565b91505092915050565b60008115159050919050565b61161b81611606565b82525050565b60006020820190506116366000830184611612565b92915050565b600080fd5b6000601f19601f8301169050919050565b7f4e487b7100000000000000000000000000000000000000000000000000000000600052604160045260246000fd5b61168a82611641565b810181811067ffffffffffffffff821117156116a9576116a8611652565b5b80604052505050565b60006116bc611567565b90506116c88282611681565b919050565b600067ffffffffffffffff8211156116e8576116e7611652565b5b602082029050602081019050919050565b600080fd5b600080fd5b6000819050919050565b61171681611703565b811461172157600080fd5b50565b6000813590506117338161170d565b92915050565b60006040828403121561174f5761174e6116fe565b5b61175960406116b2565b90506000611769848285016115c4565b600083015250602061177d84828501611724565b60208301525092915050565b600061179c611797846116cd565b6116b2565b905080838252602082019050604084028301858111156117bf576117be6116f9565b5b835b818110156117e857806117d48882611739565b8452602084019350506040810190506117c1565b5050509392505050565b600082601f8301126118075761180661163c565b5b8135611817848260208601611789565b91505092915050565b60008060006060848603121561183957611838611571565b5b6000611847868287016115c4565b935050602084013567ffffffffffffffff81111561186857611867611576565b5b611874868287016117f2565b925050604061188586828701611724565b9150509250925092565b6000602082840312156118a5576118a4611571565b5b60006118b384828501611724565b91505092915050565b6118c58161159b565b82525050565b6118d481611703565b82525050565b60006080820190506118ef60008301876118bc565b6118fc60208301866118cb565b61190960408301856118cb565b6119166060830184611612565b95945050505050565b600060208201905061193460008301846118cb565b92915050565b600082825260208201905092915050565b7f53656e646572206973206e6f742074686520617070726f766564206d616e616760008201527f6572000000000000000000000000000000000000000000000000000000000000602082015250565b60006119a760228361193a565b91506119b28261194b565b604082019050919050565b600060208201905081810360008301526119d68161199a565b9050919050565b7f4368617269746965732061726520656d70747900000000000000000000000000600082015250565b6000611a1360138361193a565b9150611a1e826119dd565b602082019050919050565b60006020820190508181036000830152611a4281611a06565b9050919050565b7f436c69656e74206973206e6f74206f757220636c69656e740000000000000000600082015250565b6000611a7f60188361193a565b9150611a8a82611a49565b602082019050919050565b60006020820190508181036000830152611aae81611a72565b9050919050565b7f4e487b7100000000000000000000000000000000000000000000000000000000600052603260045260246000fd5b7f4f6e65206f66207468652064657374696e6174696f6e73206973206e6f74206160008201527f6e20617070726f76656420636861726974790000000000000000000000000000602082015250565b6000611b4060328361193a565b9150611b4b82611ae4565b604082019050919050565b60006020820190508181036000830152611b6f81611b33565b9050919050565b7f446f6e6174696f6e732073686f756c64206265206e6f6e2d7a65726f00000000600082015250565b6000611bac601c8361193a565b9150611bb782611b76565b602082019050919050565b60006020820190508181036000830152611bdb81611b9f565b9050919050565b7f4e487b7100000000000000000000000000000000000000000000000000000000600052601160045260246000fd5b6000611c1c82611703565b91507fffffffffffffffffffffffffffffffffffffffffffffffffffffffffffffffff8203611c4e57611c4d611be2565b5b600182019050919050565b7f4e6f7468696e6720746f20776974686472617700000000000000000000000000600082015250565b6000611c8f60138361193a565b9150611c9a82611c59565b602082019050919050565b60006020820190508181036000830152611cbe81611c82565b9050919050565b7f53656e646572206973206e6f742074686520617070726f76656420627573696e60008201527f6573730000000000000000000000000000000000000000000000000000000000602082015250565b6000611d2160238361193a565b9150611d2c82611cc5565b604082019050919050565b60006020820190508181036000830152611d5081611d14565b9050919050565b7f5472616e73616374696f6e20646f65736e27742065786973742e000000000000600082015250565b6000611d8d601a8361193a565b9150611d9882611d57565b602082019050919050565b60006020820190508181036000830152611dbc81611d80565b9050919050565b7f546865207472616e73616374696f6e20697320666f7220616e6f74686572206360008201527f6c69656e74000000000000000000000000000000000000000000000000000000602082015250565b6000611e1f60258361193a565b9150611e2a82611dc3565b604082019050919050565b60006020820190508181036000830152611e4e81611e12565b9050919050565b7f5472616e73616374696f6e206973207061696420616c72656164790000000000600082015250565b6000611e8b601b8361193a565b9150611e9682611e55565b602082019050919050565b60006020820190508181036000830152611eba81611e7e565b9050919050565b6000611ecc82611703565b9150611ed783611703565b9250828201905080821115611eef57611eee611be2565b5b92915050565b7f5468652076616c7565206973206e6f7420656e6f75676820746f20636f76657260008201527f20746865207472616e73616374696f6e00000000000000000000000000000000602082015250565b6000611f5160308361193a565b9150611f5c82611ef5565b604082019050919050565b60006020820190508181036000830152611f8081611f44565b9050919050565b6000611f9282611703565b9150611f9d83611703565b9250828203905081811115611fb557611fb4611be2565b5b92915050565b600081905092915050565b50565b6000611fd6600083611fbb565b9150611fe182611fc6565b600082019050919050565b6000611ff782611fc9565b9150819050919050565b7f4661696c656420746f2073656e642066756e6473000000000000000000000000600082015250565b600061203760148361193a565b915061204282612001565b602082019050919050565b600060208201905081810360008301526120668161202a565b905091905056fea2646970667358221220ab847415e882cd7a1225aac8d34ac6221b20dffc5629ffd995419d9e94a6ca0164736f6c63430008130033",
  "linkReferences": {},
  "deployedLinkReferences": {}
}